:020000040800F2
:10000000A012002099010008AF1B00083717000854
:10001000AD1B0008290200084D2000080000000068
:1000200000000000000000000000000001010008C6
:100030002B0200080000000045010008C51C000854
:10004000B3010008B3010008B3010008B3010008C0
:10005000B3010008B3010008B3010008B3010008B0
:10006000B3010008B3010008B3010008B3010008A0
:10007000B3010008B3010008B3010008B301000890
:10008000B3010008B3010008B3010008B301000880
:10009000B3010008B3010008B3010008B301000870
:1000A000B3010008891D0008B3010008B30100086E
:1000B000951D0008B3010008B3010008B301000852
:1000C000B3010008B3010008B3010008B301000840
:1000D000B3010008B3010008B3010008B301000830
:1000E000B3010008B3010008B3010008DFF80CD029
:1000F00000F088F800480047B9200008A01200204E
:10010000224B19680868B0E8F00F80F30988BFF344
:100110006F8F4FF0000080F311884EF00D0E704786
:100120000000000006480068006880F3088862B696
:1001300061B6BFF34F8FBFF36F8F00DF00BF00BF0B
:1001400008ED00E0EFF30980BFF36F8F0F4B1A68E3
:1001500020E9F00F106008B54FF0500080F31188CF
:10016000BFF34F8FBFF36F8F02F022FC4FF0000000
:1001700080F31188BDE8084019680868B0E8F00FFE
:1001800080F30988BFF36F8F704700BF38000020ED
:10019000EFF3058070470000064880470648004797
:1001A000FEE7FEE7FEE7FEE7FEE7FEE7FEE7FEE727
:1001B000FEE7FEE7411D0008ED00000840EA0103EC
:1001C0009B0703D009E008C9121F08C0042AFAD20D
:1001D00003E011F8013B00F8013B521EF9D27047D1
:1001E000D2B201E000F8012B491EFBD27047002279
:1001F000F6E710B513460A4604461946FFF7F0FF26
:10020000204610BD064C074D06E0E06840F00103B3
:1002100094E8070098471034AC42F6D3FFF76AFF22
:10022000E82C0008082D0008FEE7704710B564238D
:100230000122A021034800F017FA08B1002010BDE8
:10024000012010BD9C0000200EB5642392B28DE801
:100250000E0002461023A021034800F0B5FA08B1B1
:1002600000200EBD01200EBD9C0000200EB5202AEE
:100270000AD8642392B28DE80E0002461023A02112
:10028000054800F0B1FB08B100200EBD072000F0CA
:1002900005F801200EBD00009C00002070B504464A
:1002A00000F0F6F80546601C02D0044800780444CB
:1002B00000F0EEF8401BA042FAD370BD28000020E9
:1002C0002DE9F84FDFF890A100220AF1040B144643
:1002D00001274FF00F090BF1040E00BF0B6807FA5E
:1002E00004F52B40AB4274D1DFF870C14E68A6EB29
:1002F0000C0866452BD00DDC032E34D005DC36B35C
:10030000012E19D0022E2FD11BE0112E16D0122E45
:100310002AD119E0B8F5881F19D006DCB8F5803F5E
:1003200015D0B8F5801F1FD111E0B8F5001F0ED011
:10033000B8F5041F18D10AE0CA6815E0CA68121D92
:1003400012E0CA6808320FE0CA680C320CE08A6812
:100350002AB1012A4FF0080203D0456104E00422CB
:1003600002E0056100E00022FF2B01D8064601E013
:1003700000F104064FEA840501D9A5F12005D6F85D
:1003800000C009FA05F82CEA080C02FA05F54CEA57
:10039000050CC6F800C04D68ED0057D5304DAE696C
:1003A00046F00106AE61AD6924F0030605F00105D3
:1003B00000952C4D06EB050CDCF80850A6074FEA1B
:1003C000167809FA08F6B543274EB04202D1002646
:1003D00010E03BE0254EB04201D101260AE0244E58
:1003E000B04201D1022605E0224EB04201D10326DF
:1003F00000E0042606FA08F62E43CCF808604D68A3
:10040000DAF80060ED03554601D51E4300E09E4337
:100410002E604D68DBF80060AD035D4601D51E43DC
:1004200000E09E432E604D68DEF80060ED027546E8
:1004300001D51E4300E09E432E604D68AD020E4D77
:100440002E6801D51E4300E09E432E60641C102CD4
:10045000FFF444AFBDE8F88F000401400000111024
:10046000001002400000014000080140000C014063
:1004700000100140001401400C0401408068084055
:1004800000D0012070470AB1016170470904FBE701
:1004900001488068704700002800002030B51E4DDC
:1004A00003681E4C122103221D4885B0AB4216D1B1
:1004B000E36943F40013E361E369039203F4001377
:1004C0000493C023CDE900316946FFF7F9FEE069E6
:1004D00040F40010E061E06900F4001019E0114DF3
:1004E000AB4217D1E36943F48003E361E36903920C
:1004F00003F4800304934FF44063CDE9003169466F
:10050000FFF7DEFEE06940F48000E061E06900F49E
:100510008000049005B030BD00540040001002403F
:10052000000C01400058004070B504001BD094F846
:100530003D00002520B984F83C50204600F0F2FA36
:10054000242084F83D002068016821F00101016049
:1005500000F0A0FC404A6168914201D83F4900E0A8
:100560003F49884201D2012070BD3E492368B0FB5B
:10057000F1F159606368934206D94FF49673594379
:100580004FF47A73B1FBF3F12368491C1962616877
:10059000914210D84900401EB0FBF1F2521CC2F348
:1005A0000B02042A01D2042022E0B0FBF1F0401C2F
:1005B000C0F30B001CE0A368CBB301EBC10202EB5C
:1005C0000116421EB2FBF6F2521C42F480421205A2
:1005D00036D06BB301EBC10202EB0111401EB0FB40
:1005E000F1F0401CC0F30B0040F4804040F40040A8
:1005F0002168C861D4E90701084321680860D4E98B
:100600000310084321688860D4E905010843216884
:10061000C8602068016841F0010101602564202064
:1006200084F83D00256384F83E50002070BD00E052
:1006300008E001EB4106421EB2FBF6F2521CC6E78F
:100640000120D5E701EB4101401EB0FBF1F0401C59
:10065000C0F30B00CAE70000A086010080841E00E2
:1006600000093D0040420F002DE9FF4F81B099463F
:100670008B4604464FF00108FFF70AFF054694F841
:100680003D0020287BD1192301224D4920460095A9
:1006900001F055F9002872D194F83C0001286ED081
:1006A000012084F83C0020680168C90703D1016873
:1006B00041F0010101602068016821F400610160DE
:1006C000242084F83D00002626643E48E06220276E
:1006D0002068016841F4807101604B4600224FF0B0
:1006E00001112046009501F02AF9002858D121680F
:1006F0000BF0FE000861FFF7CBFE21680546486954
:100700004969C0F3400094F83D20C1F380214FF0C7
:10071000A00A12E0B9F1000F04D0FFF7B9FE411BA7
:10072000494501D984F83DA0216848694969C0F369
:10073000400094F83D20C1F38021084301D1A02A54
:10074000E8D184F83D7020684169C943890717D40E
:10075000016841F4007101602068416980691923D2
:10076000012217492046009501F0E9F8C0B984F844
:100770003D7084F83C60002005B0BDE8F08F1DE0BE
:10078000016841F40071016021686FF48060486184
:10079000192301220A492046009501F0D0F808B13A
:1007A0000320E9E74146039808F1010881428FD30D
:1007B00084F83D7084F83C600120DDE70220DBE72F
:1007C000020010000000FFFF2DE9FF4F83B09A46A2
:1007D000DDE9118793460446DDF84090FFF758FEA7
:1007E000054694F83D00202872D1192301227B4947
:1007F0002046009501F0A3F80028F5D194F83C00BC
:10080000012865D0012084F83C0020680168C907F0
:1008100003D1016841F0010101602068016821F401
:1008200000610160222084F83D00402084F83E00F1
:1008300000262664C4F82490A4F82A806848E06260
:10084000608D2085CDE9007553465A4620460499AF
:1008500000F086FF28B1206C84F83C60042851D059
:1008600075E0208DDFF87C8168B1012814D0022862
:10087000206801681ED041F48061016020684169F0
:10088000806900909BE0206841698169009101685E
:1008900041F40071016092E02068016821F48061F8
:1008A000016072B62068416981690091016841F474
:1008B00000710AE041F40061016072B6206841698C
:1008C00081690091016821F48061016062B676E07F
:1008D00081E0032850D801280BD002283B464FF076
:1008E000000241462046009512D001F028F870BB66
:1008F00013E02A463946204601F096F830B1206CC4
:10090000202824D0012007B0BDE8F08F20684BE0FC
:1009100001F015F8D8B972B61BE02068016821F41F
:100920008061016072B620680169606A421C62627F
:100930000170208D401E2085608D401E60853B46E5
:10094000002241462046009500F0F9FF08B103203F
:10095000D9E72068016841F40071016020680169ED
:10096000606A421C62620170208D401E2085608D8D
:10097000401E608562B6C9E72A463946204601F026
:1009800053F80028BBD120680169606A421C62628A
:100990000170208D401E2085608D401E608520687E
:1009A0004169C94349070AD40169606A421C62620D
:1009B0000170208D401E2085608D401E6085208D39
:1009C000002886D1202084F83D0084F83E6084F819
:1009D0003C60002097E7022095E70000020010002D
:1009E0000000FFFF040001002DE9FF4F83B09A468D
:1009F000DDE9118793460446DDF84090FFF748FD96
:100A0000064694F83D0020287DD119230122434950
:100A10002046009600F093FF00287CD194F83C001B
:100A2000012878D0012084F83C0020680168C907BB
:100A300003D1016841F0010101602068016821F4DF
:100A400000610160212084F83D00402084F83E00D0
:100A500000252564C4F82490A4F82A803048E06278
:100A6000608D2085CDE9007653465A46204604998C
:100A700000F0EEFE80B3206C84F83C50042848D08F
:100A800008E032463946204600F0FFFF30B1206CC6
:100A9000042839D0032007B0BDE8F08F606A411CFC
:100AA0006162216800780861208D401E80B2208537
:100AB000618D491E618521684A69D24352070BD472
:100AC00068B1606A421C626200780861208D401E35
:100AD0002085608D401E6085208D0028D1D1324652
:100AE0003946204600F004FF0028D0D154F83D0BD1
:100AF000016841F400710160202004F81E09E577C7
:100B000065770020C7E706E02068016841F40071BE
:100B100001600120BFE70220BDE7000002001000D5
:100B20000000FFFF10B586B00021009101910291F5
:100B3000039100680F4988421AD10F4CA06940F018
:100B40000800A061A069694600F008000490C02078
:100B5000009012200190032003900848FFF7B0FB9B
:100B6000E06940F40010E061E06900F400100490D6
:100B700006B010BD0054004000100240000C0140BF
:100B80000248816802781144816070472800002083
:100B9000074810B5016841F010010160032000F022
:100BA00091F8002000F006F800F03EF8002010BD9B
:100BB0000020024000B5014687B00022192000F055
:100BC00061F8192000F052F81348816941F400617E
:100BD0008161806905A900F400600690684600F014
:100BE00039F900F067F90D490D4AB0FBF1F10D48F4
:100BF000491E0260416040F2E7320021C0E9032152
:100C0000816000F049FB10B1012007B000BD05482C
:100C100000F07AFBF9E700000010024040420F00AC
:100C2000002C0140700100200E4808B5816941F098
:100C300001018161816901F001010091C16941F007
:100C40008051C161C069002200F0805000900F21E6
:100C5000901E00F017F80448416821F0E0614160FF
:100C600008BD0000001002400000014000F01F021B
:100C7000012191404009800000F1E020C0F80011FE
:100C800070470000F0B40E4B1B680C46C3F3022300
:100C9000C3F10705042D00D90425191D072901D228
:100CA000002300E0DB1E012606FA05F1491E214063
:100CB00099409E40761E16403143F0BC00F078BF4C
:100CC0000CED00E0064900F0070208684FF6FF034C
:100CD000184040EA0220034A1043086070470000B1
:100CE0000CED00E00000FA052DE9F047DFF8548133
:100CF00005460E46D8F8000000F00700B0420CD2BE
:100D0000D8F8001021F007013143C8F80010D8F8D6
:100D1000000000F00700B0426FD128684A4C8107FC
:100D200012D5400703D5606840F4E0606060287821
:100D3000000703D5606840F4605060606068A9688F
:100D400020F0F000084360602878C00744D068684D
:100D5000012816D02168022816D0890700294CDA0C
:100D6000616821F0030101436160FFF791FB69684D
:100D7000074641F2883001290ED00229814618D059
:100D800026E021688903E9E78901E7E7FFF780FBAF
:100D9000C11B494501D918E081466068C0F3810054
:100DA0000128F3D118E000BFFFF772FBC11B4945D2
:100DB0000BD86068C0F381000228F5D10CE000BFB9
:100DC000FFF766FBC11B494502D90320BDE8F08748
:100DD000606810F00C0FF3D1D8F80010404601F015
:100DE0000701B1420BD9016821F0070131430160CD
:100DF000006800F00700B04201D00120E6E7287843
:100E0000400705D56068E96820F4E0600843606049
:100E10002878000706D56068296920F4605040EA08
:100E2000C100606000F056F86168084AC1F3031120
:100E3000515CC840064908600020FFF7BBFE002057
:100E4000C4E700000020024000100240AC2C000863
:100E5000340000200F2202600C4A536803F00303A1
:100E60004360536803F0F0038360536803F4E06366
:100E7000C36052684FF4E06303EAD202026104489F
:100E8000006800F007000860704700000010024092
:100E9000002002400448054900684968044AC1F33B
:100EA0000221515CC840704734000020001002400D
:100EB000BC2C00080448054900684968044AC1F38D
:100EC000C221515CC840704734000020001002402D
:100ED000BC2C000812A185B00FC98DE80F0014A02A
:100EE000144A006804905168134801F00C03042B65
:100EF00010D0082B0ED1C1F38343C9031DF80300A2
:100F00000AD5516804AAC1F34041515C0A4A5043D2
:100F1000B0FBF1F005B0704708494843FAE700001C
:100F200002030405060708090A0B0C0D0E0F10102A
:100F3000010200000010024000127A0000093D008A
:100F40002DE9F84F04460078B94DC00748D06868CD
:100F5000C0F38100012807D06868C0F3810002282F
:100F600009D16868C00306D52868800338D5606851
:100F700000286FD034E06068B0F5803F0BD010B12E
:100F8000B0F5A02F11D0286820F4803028602868A0
:100F900020F4802002E0286840F4803028606068F7
:100FA00088B1FFF775FA064609E0286840F480200A
:100FB0002860F0E7FFF76CFA801B642875D8286872
:100FC0008003F7D50CE0FFF763FA064605E000BFA3
:100FD000FFF75EFA801B6428F0D828688003F7D4F6
:100FE0002078944E80074FF001094FF000083BD560
:100FF000686810F00C0F07D06868C0F38100022801
:1010000009D16868C00306D42868800714D5206910
:1010100001281FD110E02069B0B1C6F80090FFF799
:1010200037FA074605E000BFFFF732FAC01B022877
:10103000C4D828688007F7D52868616920F0F800CF
:1010400040EAC10028600FE0C6F80080FFF720FAF0
:10105000074606E0E9E000BFFFF71AFAC01B0228C6
:1010600023D828688007F7D4207800072CD5724849
:10107000A169D9B1C0F80090FFF70AFA074604E069
:10108000FFF706FAC01B02280FD8686A8007F7D559
:101090006A484FF4FA510068B0FBF1F0009000BFCD
:1010A0000098411E0091FAD20EE080E0C0F8008066
:1010B000FFF7EEF9074604E0FFF7EAF9C01B022844
:1010C00075D8686A8007F7D42078400760D5E8694A
:1010D0000027C00008D4E86940F08050E861E86962
:1010E000012700F08050009055480168C90513D4CD
:1010F0000168834641F480710160FFF7C9F98246B7
:1011000006E000BFFFF7C4F9A0EB0A0064284ED840
:10111000DBF80000C005F5D5E06801280AD008B169
:10112000052813D0286A20F001002862286A20F0E0
:10113000040002E0286A40F001002862E06841F201
:10114000883B98B1FFF7A4F982460BE0286A40F08B
:1011500004002862EEE700BFFFF79AF9A0EB0A014E
:1011600059455AD8286A8007F6D50CE0FFF790F960
:10117000824605E0FFF78CF9A0EB0A0159454CD8EF
:10118000286A8007F6D41FB1E86920F08050E86132
:10119000E06988B36968C1F38101022945D002285A
:1011A000C6F8608004D0FFF773F9044638E034E0F5
:1011B000FFF76EF9074604E0FFF76AF9C01B022843
:1011C0002BD828688001F7D4206AB0F5803F05D17C
:1011D0006868A16820F4003008436860D4E9080119
:1011E0000843696821F4741108436860C6F8609088
:1011F000FFF74EF9044606E015E000BFFFF748F997
:10120000001B022809D828688001F7D50BE000BF31
:10121000FFF73EF9001B022802D90320BDE8F88F32
:1012200028688001F4D40020F8E70120F6E70000E8
:10123000001002400000424280044242340000207C
:10124000007000407047704730B590F83C20012A8C
:1012500020D0012280F83C20022380F83D30036832
:101260005C6824F070045C6003685C680D682C4363
:101270005C6003689C6824F080049C6003689C6840
:1012800049680C439C6080F83D20002180F83C10A8
:10129000084630BD022030BD10B5040003D094F8DC
:1012A0003D0010B107E0012010BD002084F83C0093
:1012B000204600F00DF8022084F83D00211D206832
:1012C00000F06EFD012084F83D00002010BD0000FC
:1012D00008B50068B0F1804F12D10A48C16941F0E9
:1012E0000101C161C069002200F0010000900521E8
:1012F0001C20FFF7C7FCBDE808401C20FFF7B6BC68
:1013000008BD0000001002400168CA6842F00102F6
:10131000CA600068016841F0010101600020704767
:1013200070B5044690F83C00012817D0012584F8D8
:101330003C50022084F83D002068826822F0770249
:1013400022F47F4282600868502837D00DDC2028C4
:1013500059D005DC88B3102841D151E0022070BD7E
:10136000302853D040283AD13FE060282ED0702852
:101370000BD0B0F5805F03D0B0F5005F2FD110E047
:101380002068816821F0070115E0CB68D1E90121CF
:10139000206800F03BFD2168886840F07700886095
:1013A0001DE0CB68D1E90121206800F02FFD206805
:1013B000816841F48041816011E01EE0CA6849689B
:1013C000206800F035FD5021206806E0CA684968B1
:1013D000206800F03EFD6021206800F021FD84F8C7
:1013E0003D50002084F83C0070BDCA684968206800
:1013F00000F01EFD40212068EFE700212068ECE7A7
:1014000010212068E9E720212068E6E730212068E4
:10141000E3E7704770B50446006801694FF00005C6
:10142000C943890715D4C168C943890711D4E91E86
:10143000016101202077206880698007204602D062
:10144000FFF7E7FF04E000F098F8204600F096F878
:10145000257720680169C943490717D4C168C94382
:10146000490713D46FF0040101610220207720683E
:10147000806910F4407F204602D0FFF7CAFF04E0E5
:1014800000F07BF8204600F079F8257720680169A4
:10149000C943090716D4C168C943090712D46FF0BC
:1014A00008010161042020772068C0698007204678
:1014B00002D0FFF7AEFF04E000F05FF8204600F036
:1014C0005DF8257720680169C943C90617D4C1684A
:1014D000C943C90613D46FF01001016108202077B9
:1014E0002068C06910F4407F204602D0FFF791FFCA
:1014F00004E000F042F8204600F040F8257720682C
:101500000169C943C90708D1C168C943C90704D1E2
:10151000891E0161204600F033F820680169C94343
:10152000090609D4C168C943090605D46FF08001D2
:1015300001612046FFF786FE20680169C94349061C
:1015400009D4C168C943490605D46FF0400101615F
:10155000204600F029F820680169C94389060BD4A8
:10156000C168C943890607D46FF020010161204694
:10157000BDE87040FFF767BE70BD70477047000060
:1015800010B504460068B0F1804F01D100F044FB73
:1015900004492068884203D1BDE81040FFF7F0BA43
:1015A00010BD0000002C0140704770B5040004D04D
:1015B00094F83900002510B106E0012070BD84F8D0
:1015C0003850204600F022F8242084F839002068A2
:1015D000C16821F40051C160204600F04DFC206834
:1015E000016921F4904101612068416921F02A01DB
:1015F00041612068C16841F40051C160E563202069
:1016000084F8390084F83A00002070BD30B585B008
:1016100000240094019402940394006814498842C1
:1016200024D11448816941F480418161816901F4C8
:1016300080410491816941F00401816180690E4D0E
:1016400000F0040004904FF400700090022001901C
:101650000320039069462846FEF732FE2815CDE99F
:101660000004694628460294FEF72AFE05B030BD04
:101670000038014000100240000801402DE9F84305
:10168000044690F839001F4616460D46202850D1D2
:10169000A5B19EB194F8380001284AD0012084F801
:1016A00038004FF00008C4F83C80212084F839004D
:1016B000FEF7EEFEA6848146E68426E00120BDE822
:1016C000F883E08C401EE084A0684B46B0F5805F54
:1016D0004FF000024FF080012046009703D000F049
:1016E00083FCE8B90DE000F07FFCC8B928882168C8
:1016F000C0F308004860206908B16D1C05E0AD1C0E
:1017000003E0216815F8010B4860E08C0028D8D16F
:101710004B46002240212046009700F065FC08B1AE
:101720000320CCE7202084F8390084F8388000209A
:10173000C5E70220C3E7FEE701684A69D2435205C4
:101740000CD46FF480624A6104210164002140F8E6
:10175000301F202242730173012070470020704720
:101760002DE9F84F0446006889460B9D01689846AC
:10177000174641F4806101602068016841F480717E
:10178000016000954FF0011A0022514620460A9B45
:1017900000F0D5F8F0BB216809F0FE0008610AF1FD
:1017A000010B2B46594620460A9A00F0F9F818B169
:1017B000206C042812D03AE02068416980690090CA
:1017C0002A4620460A9900F060F950B1206C04289E
:1017D0002DD12068016841F4007101600120BDE84D
:1017E000F88FFEB2B8F1010F09D02168380A0861FC
:1017F0002A4620460A9900F048F90028E6D12068D8
:1018000006612A4620460A9900F03FF90028DDD1FA
:10181000206800E00BE0016841F4807101600095F0
:101820000022514620460A9B00F089F808B10320A7
:10183000D5E7216809F0FF0040F0010008612B4660
:10184000594620460A9A00F0ABF80028B0D1C6E706
:101850002DE9F843044600680D46DDE90897016864
:101860009846164641F4807101604B4600224FF0C5
:1018700001112046009700F062F8E8B9216805F0F0
:10188000FE0008613B464A461849204600F088F8A9
:1018900028B1206C04280FD10120BDE8F88320680E
:1018A0004169806900903A464946204600F0EDF8CB
:1018B00020B1206C042813D00320EEE7F5B2B8F174
:1018C000010F09D02168300A08613A46494620468E
:1018D00000F0DBF80028ECD1206805610020DCE78F
:1018E0002068016841F400710160D5E70200010041
:1018F00070B516460D4604461AE02046FFF71CFF59
:1019000008B1012070BD681C12D025B1FEF7C0FDE2
:10191000801BA8420CD954F8400F40F0200044F836
:10192000100900202060202161732073032070BD06
:1019300020684069C0434007DFD4002070BD2DE916
:10194000F0471E4690460D460446C1F30747DDF8B2
:10195000209012E0701C10D02EB1FEF799FDA0EB84
:101960000900B04209D9002044F8300F20216173EA
:10197000A07320730320BDE8F0872068012F0AD0F0
:10198000806925EA00000004000C06D000214145D2
:10199000E0D00020EFE74069F3E70121F7E700001E
:1019A0002DE9F0479A4691460D46044600264FF031
:1019B0002008C1F307472AE020684069C04340057A
:1019C00012D42068016841F40071016021686FF44D
:1019D0008060486104202064266384F83D8084F898
:1019E0003C600120BDE8F087B9F1FF3F0FD0B9F1AD
:1019F000000F05D0FEF74CFDA0EB0A01494506D9C2
:101A000044F8306F84F80D8026730320EAE72068DD
:101A1000012F07D0D0F8180025EA00000004000CC0
:101A2000E0D0C9E74069F7E72DE9F041002590468D
:101A30000E460446202721E04069C043C0060CD46E
:101A400021686FF0100048612564256384F83D70BB
:101A500084F83C500120BDE8F0812EB1FEF718FD5E
:101A6000A0EB0800B04209D954F8400F40F0200024
:101A700044F80409677025700320ECE72068416989
:101A8000C9434906D8D40020E5E770B516460D468F
:101A900004461AE02046FFF74FFE08B1012070BD52
:101AA000681C12D025B1FEF7F3FC801BA8420CD9AC
:101AB00054F8400F40F0200044F810090020206046
:101AC000202161732073032070BD20684069C043EA
:101AD0000006DFD4002070BD30B51C488DB0816990
:101AE00041F004018161816901F004010C91816977
:101AF00041F008018161816901F008010C9181695F
:101B000041F0100181618069012500F010000C9006
:101B1000FF20CDE900050324694603940C48FEF735
:101B2000CFFB4FF6FF70CDE9040504A907940948DF
:101B3000FEF7C6FB44F2010008900020099008A9B6
:101B40000B940548FEF7BCFB0DB030BD0010024001
:101B500000080140000C01400010014010B586B0A3
:101B600000241148009401940294039404944FF0CB
:101B700080410594016048F69F41C0E901140A21A3
:101B8000C0E903148461FFF787FB4FF48050009095
:101B900069460548FFF7C4FB049404A9024805946C
:101BA000FFF752FB06B010BDF0000020FEE77047C3
:101BB0000907090E002806DA00F00F0000F1E02006
:101BC00080F8141D704700F1E02080F80014704781
:101BD00042F20F71884200D908464FF47A72B0FB86
:101BE000F2F30C490B70B0FBF2F302FB1303642217
:101BF000B3FBF2F34B70B0FBF2F302FB13030A22C8
:101C0000B3FBF2F38B70B0FBF2F302FB1300C8706E
:101C100070470000100000202DE9F047254C2648B1
:101C2000264E2178264F4FF400684FF4807904F156
:101C3000100551B14FF4007A012909D04FF48069A1
:101C400002290ED0032914D020E0002241460AE0E8
:101C5000002249468046FEF716FC012251464046C6
:101C60000FE0002251468046FEF70DFC0122494656
:101C7000F5E7494600228146FEF705FC0122414670
:101C80004846FEF700FC207802280DD02078285C1A
:101C9000305C38602078401CC0B22070032801D925
:101CA00000202070BDE8F087A878305C40F080000C
:101CB000EFE7000000000020000C0140642C000849
:101CC0000C08014010B5502080F31188BFF34F8FEE
:101CD000BFF36F8F00F000FF18B104494FF0805040
:101CE0000860002080F3118810BD000004ED00E0C2
:101CF00030B58FB028216846FEF779FA14210AA87A
:101D0000FEF775FA01210804CDE9001000240294C1
:101D100002250491CDE907504FF4E0100990684680
:101D2000FFF70EF90F20CDE90A056802CDE90C4056
:101D300002210AA80E94FEF7D7FF0FB030BD0000B5
:101D40000D48016841F00101016041680B4A1140F2
:101D5000416001680A4A11400160016821F4802154
:101D60000160416821F4FE0141604FF41F01816070
:101D70000449C00308607047001002400000FFF8EB
:101D8000FFFFF6FE08ED00E00148FFF743BB00004F
:101D9000700100200148FFF73DBB0000F00000206B
:101DA000F0B50268164B174C174D4FF0804798421C
:101DB00005D0B84203D0A04201D0A84203D122F0FE
:101DC00070064A683243984205D0B84203D0A04218
:101DD00001D0A84203D122F44074CA68224322F001
:101DE00080044A69224302608A68C2620A68826289
:101DF000984201D10969016301214161F0BD0000F0
:101E0000002C0140000400400008004010B5846828
:101E100042EA032224F47F440A432243826010BD35
:101E2000826822F070020A4342F007018160704725
:101E300010B5036A046A24F001040462846924F082
:101E4000F00444EA021423F00A020A4384610262A5
:101E500010BD10B5036A23F0100303628369046A9E
:101E600023F4704343EA023224F0A00343EA011151
:101E70008261016210BD00002DE9F0410446006856
:101E80000169E26821F44051114301612169A068B0
:101E90000843616908432168CA6841F20C639A43A8
:101EA0000243CA6020684169A26921F4407111436C
:101EB00041614C4920686425322688423CD1FEF7B6
:101EC000F9FF00EBC00101EB001061688900B0FB75
:101ED000F1F7FEF7EFFF00EBC00101EB00106168C6
:101EE000B0468900B0FBF1F0B0FBF5F06FF01801DF
:101EF000484307EB800106EB0110B0FBF5F000F062
:101F0000F006FEF7D7FF00EBC00101EB001061689F
:101F10008900B0FBF1F0B0FBF5F006EB0016FEF720
:101F2000C9FF00EBC00101EB001061688900B0FB44
:101F3000F1F7FEF7BFFF3BE0FEF7ACFF00EBC0019F
:101F400001EB001061688900B0FBF1F7FEF7A2FF1A
:101F500000EBC00101EB00106168B0468900B0FBE6
:101F6000F1F0B0FBF5F06FF01801484307EB80018A
:101F700006EB0110B0FBF5F000F0F006FEF78AFF6B
:101F800000EBC00101EB001061688900B0FBF1F0CB
:101F9000B0FBF5F006EB0016FEF77CFF00EBC0018E
:101FA00001EB001061688900B0FBF1F7FEF772FFEA
:101FB00000EBC00101EB001061688900B0FBF1F09B
:101FC000B0FBF5F06FF01801484307EB800108EB18
:101FD0000110B0FBF5F0216800F00F00304488607C
:101FE000BDE8F081003801402DE9F04198461746E0
:101FF0000E460446069D1DE0681C1BD02DB1FEF761
:1020000047FAA0EB0800A84214D92068C16821F45F
:10201000D071C1602068416921F001014161202037
:1020200084F8390084F83A00002084F8380003204E
:10203000BDE8F0812068006836EA000004D0002086
:10204000B842D9D00020F3E70120F9E7FEE700000D
:10205000014A024900F013B8A120000898000020AE
:1020600002E008C8121F08C1002AFAD17047704761
:10207000002001E001C1121F002AFBD170472DE9A9
:10208000F04116460F460446002503E03946B047A6
:10209000641C6D1C20780028F8D12846BDE8F0812A
:1020A00013B56423012269460248FFF7E7FA009856
:1020B0001CBD00003001002090B0FEF769FDFFF765
:1020C00017FEFFF709FD29482749002401604FF456
:1020D000E131C0E901140C21C460C0E9044184610C
:1020E000C461FFF762FA214821499438016046F241
:1020F000A811C0E901144FF48041C0E903414461D3
:102100008461C4610462FEF70FFAFFF727FD1748E8
:102110004038FFF7F9F815489438FEF7BFF9142254
:1021200014496846FEF74AF80021684600F038F87E
:10213000114C104914226060143105A8FEF73EF8D6
:10214000002105A800F02CF80A49A06014222831CB
:102150000AA8FEF733F800210AA800F021F8E06091
:1021600000F019F8FEE700000038014030010020BF
:1021700000540040702C00080000002001460020A0
:10218000842900D0C81C704710B500B9012000F0A8
:10219000ADFB002010BD10B500F0CEFB002010BD3F
:1021A0003EB504460D46B0F90800FFF7E7FF02A967
:1021B000CDE90001208A2B4682B2D4E9001000F05C
:1021C0005FFC012801D000203EBD02983EBD00000A
:1021D0002DE9F041184C0F460546E6682068001DC1
:1021E00000F0CEFA38B9206890F82C100120884011
:1021F000216981432161681C07D137B12168BDE89D
:10220000F0410E48091D00F0F3BA20683544B5428C
:102210004560216805D2A06BBDE8F041091D00F0C2
:10222000CFBA606B091D00F0CBFAA06A854200D2DC
:10223000A562BDE8F0810000380000208C0200207B
:102240002DE9F041054600F0DFFA2E4CA068401C55
:10225000A06020682C4F10B1606940B32DE025606C
:10226000A068012829D1002606EB860007EB800034
:1022700000F098FA761C072EF6D323488C3000F035
:1022800091FA2148A03000F08DFA1F48B43000F0D8
:1022900089FA1D48C83000F085FA1B48DC3000F090
:1022A00081FA19488C3060631430A06305E020681F
:1022B000E96AC06A884200D82560606A401C606292
:1022C000E96A0120226988401043206101EB810006
:1022D00007EB8000291D00F08BFA00F0B5FA606969
:1022E00000280CD02068E96AC06A884207D20749F2
:1022F0004FF080500860BFF34F8FBFF36F8FBDE882
:10230000F081000038000020B001002004ED00E062
:1023100070B5114E114C17E000F042FB3068B8B1B7
:1023200000F03EFC00F070FAF068C568281D00F06F
:1023300027FAA068401EA0606068401E606000F040
:1023400083FA284600F00CF860680028E4D170BDDC
:1023500000F026FCF8E7000078020020380000209A
:1023600010B50446006B00F083FA2046BDE810402B
:1023700000F07EBA10484FF44061420706D0C01DFD
:102380000D4920F00700411AC1F540610B4A0023B6
:102390000144C2E900030839103A21F00701116035
:1023A0004B600B600B1AC0E9001393604FF00040C4
:1023B0005360D06070470000A0020020840000201D
:1023C000074C4FF08056074DFFF7A2FF2068012809
:1023D000FAD92E60BFF34F8FBFF36F8FF4E7000081
:1023E000B001002004ED00E02DE9F0479A46DDE958
:1023F000098481466FF00303206B03EB82021044D3
:10240000089D20F00706700707D0502080F3118840
:10241000BFF34F8FBFF36F8FFEE723180A5C83F87B
:1024200034200A5C12B1401C1028F6D3002784F82F
:102430004370072D00D30625E562C4E91157201D1E
:1024400000F0BBF904F1180000F0B7F92461C5F100
:1024500007006462A061E76484F850705246494600
:10246000304600F0BFF82060B8F1000F01D0C8F886
:102470000040BDE8F087000030B5114900E011468A
:102480000A688242FBD34B685C18844203D14068DF
:1024900018444860084643681C18944209D1084C07
:1024A000103C2468A24209D052681A4442600A686B
:1024B00012680260814200D0086030BD0460F9E714
:1024C000840000200648416B096829B1416BC96846
:1024D000C9684968816270474FF0FF31FAE7000030
:1024E0003800002008484068401C4FF0500080F33E
:1024F000118804D0BFF34F8FBFF36F8FFEE7BFF398
:102500004F8FBFF36F8FFEE78C0000202DE9F04165
:102510000546002700F044FA314E306808B9FFF74D
:1025200029FFF06805424BD1C5B3083568070ED0C6
:1025300005F00700C0F108000544680707D05020E7
:1025400080F31188BFF34F8FBFF36F8FFEE72DB37A
:102550007068854234D82248103001460C6801E08A
:1025600020460C466168A94202D221680029F7D1B1
:1025700031688C4224D007682168016060680837A0
:10258000411B10290FD96019420708D0502080F351
:102590001188BFF34F8FBFF36F8FFEE710E04160EC
:1025A0006560FFF769FF61687068401A7060B26823
:1025B000904200D2B060F06801430020C4E90001FD
:1025C00000F0EEFA780707D0502080F31188BFF3AF
:1025D0004F8FBFF36F8FFEE73846BDE8F0810000F4
:1025E0007400002010B5031F4FF080741C601B1F87
:1025F00021F001011960191F024B0B60143940389A
:102600000A6010BDE524000815A0FFF721FD1DA0FC
:10261000FFF71EFD21A0FFF71BFD2CA0FFF718FD03
:102620004FF47A742FA0FFF713FD02E06420FDF74A
:1026300035FEFDF7FBFD0028F8D008222F490020C9
:10264000FDF714FE2046FFF79FFD2C4908220831B4
:102650000020FDF7F9FD2046FFF796FDE2E70000B8
:102660004465766963653A20647275672070726F9D
:102670006475637420636F6E74726F6C6C65720D39
:102680000A0000005265766973653A2032382F30AF
:10269000342F323031390D0A000000004375737455
:1026A0006F6D65723A20446F616E2056616E204CEA
:1026B000756F6E6740446F6D6573636F20446F6E16
:1026C0006720546861700D0A00000000446573695A
:1026D000676E65723A2070686F6E676E6833323865
:1026E000390D0A006C6F6720636F6D6D616E643A1F
:1026F0002048656C6C6F0D0A000000001800002077
:102700000120FFF741FDFBE71A4C1B4F1B4D4FF417
:102710008046012211463846FDF7B5FE0A20FFF734
:1027200033FD01212046FDF7A9FE58B90A20FFF725
:102730002BFD01212046FDF7A1FE0028F9D0688875
:10274000401C688031462046FDF798FE40B90A20BB
:10275000FFF71AFD31462046FDF790FE0028F9D01C
:10276000002201213846FDF78EFE6888FFF730FA17
:10277000CFE7000000100140000C014000000020E5
:10278000D0E9013201699A60D0E901235A604A68B0
:10279000824201D182684A60002202610868401EBC
:1027A0000860704700F108014FF0FF32C0E90112E4
:1027B000C160016100210160704700210161704723
:1027C00030B50B685A1C02D000F1080202E0026921
:1027D00004E02246546825689D42FAD953684B604C
:1027E00099608A60516008610168491C016030BDD0
:1027F00042684A6093688B60936859609160086191
:102800000168491C01607047502080F31188BFF3B4
:102810004F8FBFF36F8F0A494868401C48600128FA
:102820000CD10848006810F0FF0F07D0502080F34B
:102830001188BFF34F8FBFF36F8FFEE77047000023
:102840008C00002004ED00E00849486828B1401ED3
:10285000486001D180F311887047502080F31188BF
:10286000BFF34F8FBFF36F8FFEE700008C00002097
:1028700070B5002827D0144DA0F108046168E868FD
:10288000014207D1502080F31188BFF34F8FBFF36F
:102890006F8FFEE722683AB1502080F31188BFF3B2
:1028A0004F8FBFF36F8FFEE78143616000F078F8D0
:1028B00060686968084468602046FFF7DDFDBDE890
:1028C000704000F06DB970BD7400002006484FF4F0
:1028D0007A710068B0FBF1F14FF0E020491E4161D0
:1028E00007210161704700003400002010B502008C
:1028F00014D00F48006B38B1502080F31188BFF31B
:102900004F8FBFF36F8FFEE700F04AF800211046AB
:10291000FFF75EFC00F044F9002807D105494FF0AD
:1029200080500860BFF34F8FBFF36F8F10BD000062
:102930003800002004ED00E01CB515480024CDE966
:1029400000402346802213A1144800F099F8012882
:1029500009D0401C1AD1502080F31188BFF34F8F4B
:10296000BFF36F8FFEE7502080F31188BFF34F8FC6
:10297000BFF36F8F06484FF0FF312C388162012181
:102980004161C460BDE81C4000F040B81CBD0000BF
:102990006400002049444C4500000000C1230008A9
:1029A0000248016B491C0163704700003800002099
:1029B0001448016B11B10121C16170470021C1614F
:1029C0000169B1FA81F1C1F11F0101EB81020E49E8
:1029D00051F822306BB101EB820101F108034A6822
:1029E00052684A609A4201D152684A60D1680160D7
:1029F0007047502080F31188BFF34F8FBFF36F8F64
:102A0000FEE7000038000020B00100201CB5194985
:102A100008780190FF20087008788DF800009DF874
:102A20000000154A00F0500010700720906005E08B
:102A30009DF800305B008DF80030401E9DF800309E
:102A40001B06F5D4000200F4E06090600198087065
:102A50000A48016841F470010160016841F0704169
:102A60000160FFF733FF00205060FDF75BFB0020A3
:102A70001CBD000000E400E08C00002020ED00E020
:102A80002DE9FF5F8346DDE90E87994616468A46A3
:102A90009000FFF73BFD05001AD05420FFF736FDEC
:102AA000040012D025630021CDE90241CDE9008761
:102AB0004B46324651465846FFF796FC2046FFF7F4
:102AC000BFFB012004B0BDE8F09F2846FFF7D0FE11
:102AD0004FF0FF30F6E700002DE9F0412E4C0027C3
:102AE000206B40B1A069401CA061E06900B10127E2
:102AF0003846BDE8F081E668761CE66013D1606B6D
:102B0000006838B1502080F31188BFF34F8FBFF3B6
:102B10006F8FFEE7606BA16B6163A063206A401C4E
:102B20002062FFF7CFFCA06ADFF87080864209D3ED
:102B3000606B006880B1606BC068C5686868864279
:102B40000DD2A0622068C06A00EB800158F8210015
:102B50000128CAD90127C8E74FF0FF30F1E7281D47
:102B6000FFF70EFEA86A18B105F11800FFF708FE7E
:102B7000E86A0121226981401143216100EB800153
:102B800008EB8100291DFFF733FEE86A2168C96A56
:102B90008842CDD30127CBE738000020B0010020C8
:102BA0002DE9F0472C4D00242746286B38B1FFF75C
:102BB0002BFE286B401E2863286B40B146E0502056
:102BC00080F31188BFF34F8FBFF36F8FFEE7A968C3
:102BD000224E0120D1B3A6F1B40980463068E8B195
:102BE000F068C46804F11800FFF7CAFD201DFFF764
:102BF000C7FDE06A2A6908FA00F11143296100EB78
:102C0000800109EB8100211DFFF7F2FDE06A2968D0
:102C1000C96A8842E2D3C5F81C80DFE70CB1FFF730
:102C200051FCAC6944B14646FFF756FF00B1EE6176
:102C3000641EF9D10020A861E86938B1084901276C
:102C400038070860BFF34F8FBFF36F8FFFF7FCFDAE
:102C50003846BDE8F08700003800002064020020FC
:102C600004ED00E07E306D79335B5F707F7B0000A8
:102C7000D02C000809260008000000000000000019
:102C800080000000DC2C000809270008FDFF000080
:102C90000000000080000000C42C0008012700088C
:102CA000FDFF0000000000008000000000000000A8
:102CB00000000000010203040607080900000000EC
:102CC00001020304726573657276655F6973720051
:102CD0006D61696E5F6973720000000073657475E1
:102CE000705F697372000000082D0008000000206A
:102CF0009C00000060200008A42D00089C0000201B
:102D000004120000702000080000D204000000003F
:102D1000000000000000000000020507050607088B
:102D2000010203040506070800000000000000007F
:102D300001000000100000000000000000A24A0492
:102D40000000000000000000000000000000000083
:102D50000000000000000000000000000000000073
:102D60000000000000000000000000000000000063
:102D70000000000000000000000000000000000053
:102D80000000000000000000000000000000000043
:102D90000000000000000000AAAAAAAA000000008B
:042DA000000000002F
:04000005080000ED02
:00000001FF
