:020000040800F2
:10000000A813002099010008CB1C0008DF17000886
:10001000C91C00087F0200089922000800000000A7
:1000200000000000000000000000000001010008C6
:10003000810200080000000045010008A91D000819
:10004000B3010008B3010008B3010008B3010008C0
:10005000B3010008B3010008B3010008B3010008B0
:10006000B3010008B3010008B3010008B3010008A0
:10007000B3010008B3010008B3010008B301000890
:10008000B3010008B3010008B3010008B301000880
:10009000B3010008B3010008B3010008B301000870
:1000A000B3010008691E0008B3010008B30100088D
:1000B000751E0008811E0008B3010008B301000886
:1000C000B3010008B3010008B3010008B301000840
:1000D000B3010008B3010008B3010008B301000830
:1000E000B3010008B3010008B3010008DFF80CD029
:1000F00000F088F80048004705230008A8130020F6
:10010000224B19680868B0E8F00F80F30988BFF344
:100110006F8F4FF0000080F311884EF00D0E704786
:100120000000000006480068006880F3088862B696
:1001300061B6BFF34F8FBFF36F8F00DF00BF00BF0B
:1001400008ED00E0EFF30980BFF36F8F0F4B1A68E3
:1001500020E9F00F106008B54FF0500080F31188CF
:10016000BFF34F8FBFF36F8F03F030FC4FF00000F1
:1001700080F31188BDE8084019680868B0E8F00FFE
:1001800080F30988BFF36F8F704700BF0001002024
:10019000EFF3058070470000064880470648004797
:1001A000FEE7FEE7FEE7FEE7FEE7FEE7FEE7FEE727
:1001B000FEE7FEE7211E0008ED00000840EA01030B
:1001C0009B0703D009E008C9121F08C0042AFAD20D
:1001D00003E011F8013B00F8013B521EF9D27047D1
:1001E000D2B201E000F8012B491EFBD27047002279
:1001F000F6E710B513460A4604461946FFF7F0FF26
:10020000204610BD064C074D06E0E06840F00103B3
:1002100094E8070098471034AC42F6D3FFF76AFF22
:10022000583D0008783D000870B58C1810F8015B47
:1002300015F0070301D110F8013B2A1106D110F87F
:10024000012B03E010F8016B01F8016B5B1EF9D183
:100250002B0705D40023521E0DD401F8013BFAE709
:1002600010F8013BCB1A921C03E013F8015B01F874
:10027000015B521EF9D5A142D8D3002070BDFEE724
:100280007047000010B564230122A021034800F04C
:1002900017FA08B1002010BD012010BD6401002034
:1002A0000EB5642392B28DE80E0002461023A02101
:1002B000034800F0B5FA08B100200EBD01200EBDC4
:1002C000640100200EB5202A0AD8642392B28DE87A
:1002D0000E0002461023A021054800F0B1FB08B132
:1002E00000200EBD072000F005F801200EBD000023
:1002F0006401002070B5044600F0F6F80546601C65
:1003000002D004480078044400F0EEF8401BA042FC
:10031000FAD370BDF00000202DE9F84FDFF890A16E
:1003200000220AF1040B144601274FF00F090BF1CC
:10033000040E00BF0B6807FA04F52B40AB4274D1E2
:10034000DFF870C14E68A6EB0C0866452BD00DDCBB
:10035000032E34D005DC36B3012E19D0022E2FD156
:100360001BE0112E16D0122E2AD119E0B8F5881FE5
:1003700019D006DCB8F5803F15D0B8F5801F1FD125
:1003800011E0B8F5001F0ED0B8F5041F18D10AE02F
:10039000CA6815E0CA68121D12E0CA6808320FE088
:1003A000CA680C320CE08A682AB1012A4FF00802B0
:1003B00003D0456104E0042202E0056100E0002270
:1003C000FF2B01D8064601E000F104064FEA840540
:1003D00001D9A5F12005D6F800C009FA05F82CEAE4
:1003E000080C02FA05F54CEA050CC6F800C04D6889
:1003F000ED0057D5304DAE6946F00106AE61AD69EE
:1004000024F0030605F0010500952C4D06EB050CC4
:10041000DCF80850A6074FEA167809FA08F6B54343
:10042000274EB04202D1002610E03BE0254EB042FC
:1004300001D101260AE0244EB04201D1022605E096
:10044000224EB04201D1032600E0042606FA08F647
:100450002E43CCF808604D68DAF80060ED0355468D
:1004600001D51E4300E09E432E604D68DBF800601E
:10047000AD035D4601D51E4300E09E432E604D68EE
:10048000DEF80060ED02754601D51E4300E09E4394
:100490002E604D68AD020E4D2E6801D51E4300E062
:1004A0009E432E60641C102CFFF444AFBDE8F88F0F
:1004B0000004014000001110001002400000014043
:1004C00000080140000C01400010014000140140F0
:1004D0000C0401408068084000D0012070470AB138
:1004E000016170470904FBE701488068704700001C
:1004F000F000002030B51E4D03681E4C122103226F
:100500001D4885B0AB4216D1E36943F40013E361A3
:10051000E369039203F400130493C023CDE900318F
:100520006946FFF7F9FEE06940F40010E061E06918
:1005300000F4001019E0114DAB4217D1E36943F408
:100540008003E361E369039203F4800304934FF4AF
:100550004063CDE900316946FFF7DEFEE06940F413
:100560008000E061E06900F48000049005B030BDD7
:100570000054004000100240000C014000580040B0
:1005800070B504001BD094F83D00002520B984F814
:100590003C50204600F0F2FA242084F83D00206808
:1005A000016821F00101016000F0A0FC404A61688F
:1005B000914201D83F4900E03F49884201D20120E1
:1005C00070BD3E492368B0FBF1F159606368934206
:1005D00006D94FF4967359434FF47A73B1FBF3F194
:1005E0002368491C19626168914210D84900401E75
:1005F000B0FBF1F2521CC2F30B02042A01D2042018
:1006000022E0B0FBF1F0401CC0F30B001CE0A3683B
:10061000CBB301EBC10202EB0116421EB2FBF6F2B4
:10062000521C42F48042120536D06BB301EBC1027A
:1006300002EB0111401EB0FBF1F0401CC0F30B00B7
:1006400040F4804040F400402168C861D4E90701CB
:10065000084321680860D4E90310084321688860D2
:10066000D4E9050108432168C8602068016841F0A9
:10067000010101602564202084F83D00256384F891
:100680003E50002070BD00E008E001EB4106421E34
:10069000B2FBF6F2521CC6E70120D5E701EB41019F
:1006A000401EB0FBF1F0401CC0F30B00CAE7000095
:1006B000A086010080841E0000093D0040420F001A
:1006C0002DE9FF4F81B099468B4604464FF0010853
:1006D000FFF70AFF054694F83D0020287BD1192337
:1006E00001224D492046009501F07DF9002872D184
:1006F00094F83C0001286ED0012084F83C0020686A
:100700000168C90703D1016841F001010160206857
:10071000016821F400610160242084F83D00002676
:1007200026643E48E06220272068016841F4807119
:1007300001604B4600224FF001112046009501F068
:1007400052F9002858D121680BF0FE000861FFF72C
:10075000CBFE2168054648694969C0F3400094F81A
:100760003D20C1F380214FF0A00A12E0B9F1000F43
:1007700004D0FFF7B9FE411B494501D984F83DA0DB
:10078000216848694969C0F3400094F83D20C1F3ED
:100790008021084301D1A02AE8D184F83D70206867
:1007A0004169C943890717D4016841F400710160A8
:1007B0002068416980691923012217492046009564
:1007C00001F011F9C0B984F83D7084F83C60002054
:1007D00005B0BDE8F08F1DE0016841F400710160D3
:1007E00021686FF480604861192301220A4920467C
:1007F000009501F0F8F808B10320E9E741460398B5
:1008000008F1010881428FD384F83D7084F83C6080
:100810000120DDE70220DBE7020010000000FFFFFF
:100820002DE9FF4F83B09A46DDE9118793460446D0
:10083000DDF84090FFF758FE054694F83D0020286B
:1008400072D1192301227B492046009501F0CBF893
:100850000028F5D194F83C00012865D0012084F8E7
:100860003C0020680168C90703D1016841F001011B
:1008700001602068016821F400610160222084F891
:100880003D00402084F83E0000262664C4F82490F1
:10089000A4F82A806848E062608D2085CDE9007563
:1008A00053465A462046049900F0AEFF28B1206C0A
:1008B00084F83C60042851D075E0208DDFF87C81FD
:1008C00068B1012814D00228206801681ED041F4C4
:1008D0008061016020684169806900909BE0206828
:1008E000416981690091016841F40071016092E001
:1008F0002068016821F48061016072B62068416956
:1009000081690091016841F400710AE041F40061DD
:10091000016072B62068416981690091016821F423
:100920008061016062B676E081E0032850D801283A
:100930000BD002283B464FF000024146204600956E
:1009400012D001F050F870BB13E02A463946204619
:1009500001F0BEF830B1206C202824D0012007B06F
:10096000BDE8F08F20684BE001F03DF8D8B972B6D1
:100970001BE02068016821F48061016072B6206884
:100980000169606A421C62620170208D401E2085F0
:10099000608D401E60853B46002241462046009502
:1009A00001F021F808B10320D9E72068016841F47B
:1009B0000071016020680169606A421C6262017016
:1009C000208D401E2085608D401E608562B6C9E77F
:1009D0002A463946204601F07BF80028BBD1206822
:1009E0000169606A421C62620170208D401E208590
:1009F000608D401E608520684169C94349070AD45B
:100A00000169606A421C62620170208D401E20856F
:100A1000608D401E6085208D002886D1202084F8BE
:100A20003D0084F83E6084F83C60002097E7022097
:100A300095E70000020010000000FFFF0400010025
:100A40002DE9FF4F83B09A46DDE9118793460446AE
:100A5000DDF84090FFF748FD064694F83D00202859
:100A60007DD11923012243492046009600F0BBFFA7
:100A700000287CD194F83C00012878D0012084F82B
:100A80003C0020680168C90703D1016841F00101F9
:100A900001602068016821F400610160212084F870
:100AA0003D00402084F83E0000252564C4F82490D1
:100AB000A4F82A803048E062608D2085CDE9007678
:100AC00053465A462046049900F016FF80B3206C26
:100AD00084F83C50042848D008E032463946204685
:100AE00001F027F830B1206C042839D0032007B07A
:100AF000BDE8F08F606A411C61622168007808617E
:100B0000208D401E80B22085618D491E618521683F
:100B10004A69D24352070BD468B1606A421C6262D0
:100B200000780861208D401E2085608D401E608504
:100B3000208D0028D1D132463946204600F02CFFC6
:100B40000028D0D154F83D0B016841F400710160D8
:100B5000202004F81E09E57765770020C7E706E046
:100B60002068016841F4007101600120BFE70220A4
:100B7000BDE70000020010000000FFFF10B586B0C6
:100B80000021009101910291039100680F49884270
:100B90001AD10F4CA06940F00800A061A069694615
:100BA00000F008000490C020009012200190032063
:100BB00003900848FFF7B0FBE06940F40010E061E3
:100BC000E06900F40010049006B010BD005400402D
:100BD00000100240000C0140024881680278114474
:100BE00081607047F0000020074810B5016841F0AF
:100BF00010010160032000F091F8002000F006F8D9
:100C000000F03EF8002010BD0020024000B5014673
:100C100087B00022192000F061F8192000F052F886
:100C20001348816941F400618161806905A900F47C
:100C300000600690684600F039F900F067F90D4948
:100C40000D4AB0FBF1F10D48491E0260416040F2CF
:100C5000E7320021C0E90321816000F049FB10B1B7
:100C6000012007B000BD054800F08EFBF9E7000049
:100C70000010024040420F00002C0140780200208A
:100C80000E4808B5816941F001018161816901F077
:100C900001010091C16941F08051C161C069002228
:100CA00000F0805000900F21901E00F017F80448CB
:100CB000416821F0E061416008BD00000010024081
:100CC0000000014000F01F02012191404009800016
:100CD00000F1E020C0F8001170470000F0B40E4BA6
:100CE0001B680C46C3F30223C3F10705042D00D98A
:100CF0000425191D072901D2002300E0DB1E01266F
:100D000006FA05F1491E214099409E40761E164084
:100D10003143F0BC00F0DABF0CED00E0064900F012
:100D2000070208684FF6FF03184040EA0220034A12
:100D300010430860704700000CED00E00000FA0569
:100D40002DE9F047DFF8548105460E46D8F800003B
:100D500000F00700B0420CD2D8F8001021F00701D3
:100D60003143C8F80010D8F8000000F00700B04286
:100D70006FD128684A4C810712D5400703D56068B7
:100D800040F4E06060602878000703D5606840F4B4
:100D9000605060606068A96820F0F00008436060FF
:100DA0002878C00744D06868012816D02168022836
:100DB00016D0890700294CDA616821F0030101434C
:100DC0006160FFF791FB6968074641F288300129AD
:100DD0000ED00229814618D026E021688903E9E770
:100DE0008901E7E7FFF780FBC11B494501D918E0FE
:100DF00081466068C0F381000128F3D118E000BF8C
:100E0000FFF772FBC11B49450BD86068C0F3810036
:100E10000228F5D10CE000BFFFF766FBC11B494576
:100E200002D90320BDE8F087606810F00C0FF3D101
:100E3000D8F80010404601F00701B1420BD9016813
:100E400021F0070131430160006800F00700B04263
:100E500001D00120E6E72878400705D56068E968F9
:100E600020F4E060084360602878000706D56068D9
:100E7000296920F4605040EAC100606000F056F833
:100E80006168084AC1F30311515CC8400649086013
:100E90000020FFF7BBFE0020C4E700000020024056
:100EA000001002401C3D0008FC0000200F220260E0
:100EB0000C4A536803F003034360536803F0F003E4
:100EC0008360536803F4E063C36052684FF4E063E7
:100ED00003EAD20202610448006800F007000860DB
:100EE00070470000001002400020024004480549FD
:100EF00000684968044AC1F30221515CC840704748
:100F0000FC000020001002402C3D00080448054968
:100F100000684968044AC1F3C221515CC840704767
:100F2000FC000020001002402C3D000812A185B0FA
:100F30000FC98DE80F0014A0144A0068049051688E
:100F4000134801F00C03042B10D0082B0ED1C1F371
:100F50008343C9031DF803000AD5516804AAC1F3ED
:100F60004041515C0A4A5043B0FBF1F005B0704774
:100F700008494843FAE70000020304050607080988
:100F80000A0B0C0D0E0F10100102000000100240A1
:100F900000127A0000093D002DE9F84F0446007860
:100FA000B94DC00748D06868C0F38100012807D058
:100FB0006868C0F38100022809D16868C00306D5BB
:100FC0002868800338D5606800286FD034E06068F6
:100FD000B0F5803F0BD010B1B0F5A02F11D028682C
:100FE00020F480302860286820F4802002E02868FF
:100FF00040F480302860606888B1FFF775FA0646D3
:1010000009E0286840F480202860F0E7FFF76CFAD8
:10101000801B642875D828688003F7D50CE0FFF79B
:1010200063FA064605E000BFFFF75EFA801B6428FE
:10103000F0D828688003F7D42078944E80074FF0CA
:1010400001094FF000083BD5686810F00C0F07D07D
:101050006868C0F38100022809D16868C00306D41B
:101060002868800714D5206901281FD110E0206965
:10107000B0B1C6F80090FFF737FA074605E000BFA9
:10108000FFF732FAC01B0228C4D828688007F7D5BA
:101090002868616920F0F80040EAC10028600FE08C
:1010A000C6F80080FFF720FA074606E0E9E000BF37
:1010B000FFF71AFAC01B022823D828688007F7D444
:1010C000207800072CD57248A169D9B1C0F80090EA
:1010D000FFF70AFA074604E0FFF706FAC01B0228EA
:1010E0000FD8686A8007F7D56A484FF4FA5100684C
:1010F000B0FBF1F0009000BF0098411E0091FAD2C1
:101100000EE080E0C0F80080FFF7EEF9074604E04B
:10111000FFF7EAF9C01B022875D8686A8007F7D480
:101120002078400760D5E8690027C00008D4E86946
:1011300040F08050E861E869012700F0805000909D
:1011400055480168C90513D40168834641F480718C
:101150000160FFF7C9F9824606E000BFFFF7C4F956
:10116000A0EB0A0064284ED8DBF80000C005F5D5D6
:10117000E06801280AD008B1052813D0286A20F0B9
:1011800001002862286A20F0040002E0286A40F08A
:1011900001002862E06841F2883B98B1FFF7A4F9AA
:1011A00082460BE0286A40F004002862EEE700BFA8
:1011B000FFF79AF9A0EB0A0159455AD8286A800727
:1011C000F6D50CE0FFF790F9824605E0FFF78CF9C1
:1011D000A0EB0A0159454CD8286A8007F6D41FB104
:1011E000E86920F08050E861E06988B36968C1F37C
:1011F0008101022945D00228C6F8608004D0FFF79B
:1012000073F9044638E034E0FFF76EF9074604E06E
:10121000FFF76AF9C01B02282BD828688001F7D491
:10122000206AB0F5803F05D16868A16820F40030DD
:1012300008436860D4E908010843696821F474111F
:1012400008436860C6F86090FFF74EF9044606E070
:1012500015E000BFFFF748F9001B022809D82868ED
:101260008001F7D50BE000BFFFF73EF9001B022815
:1012700002D90320BDE8F88F28688001F4D400204B
:10128000F8E70120F6E700000010024000004242AB
:1012900080044242FC00002000700040704770470C
:1012A00030B590F83C20012A20D0012280F83C2063
:1012B000022380F83D3003685C6824F070045C60B1
:1012C00003685C680D682C435C6003689C6824F0CC
:1012D00080049C6003689C6849680C439C6080F8AB
:1012E0003D20002180F83C10084630BD022030BD72
:1012F00010B5040003D094F83D0010B107E00120C0
:1013000010BD002084F83C00204600F00DF80220BB
:1013100084F83D00211D206800F0B8FD012084F80C
:101320003D00002010BD000008B501681448B1F16F
:10133000804F14D0134A914220D1C16941F002017B
:10134000C161C069002200F00200009005211D204B
:10135000FFF7C4FC1D20BDE80840FFF7B3BCC1691E
:1013600041F00101C161C069002200F0010000905C
:1013700005211C20FFF7B2FC1C20ECE708BD000093
:1013800000100240000400400168CA6842F00102F7
:10139000CA600068016841F00101016000207047E7
:1013A00070B5044690F83C00012817D0012584F858
:1013B0003C50022084F83D002068826822F07702C9
:1013C00022F47F4282600868502837D00DDC202844
:1013D00059D005DC88B3102841D151E0022070BDFE
:1013E000302853D040283AD13FE060282ED07028D2
:1013F0000BD0B0F5805F03D0B0F5005F2FD110E0C7
:101400002068816821F0070115E0CB68D1E901214E
:10141000206800F071FD2168886840F077008860DE
:101420001DE0CB68D1E90121206800F065FD20684E
:10143000816841F48041816011E01EE0CA6849681A
:10144000206800F06BFD5021206806E0CA684968FA
:10145000206800F074FD6021206800F057FD84F8DA
:101460003D50002084F83C0070BDCA68496820687F
:1014700000F054FD40212068EFE700212068ECE7F0
:1014800010212068E9E720212068E6E73021206864
:10149000E3E7704770B50446006801694FF0000546
:1014A000C943890715D4C168C943890711D4E91E06
:1014B000016101202077206880698007204602D0E2
:1014C000FFF7E7FF04E000F098F8204600F096F8F8
:1014D000257720680169C943490717D4C168C94302
:1014E000490713D46FF004010161022020772068BE
:1014F000806910F4407F204602D0FFF7CAFF04E065
:1015000000F07BF8204600F079F825772068016923
:10151000C943090716D4C168C943090712D46FF03B
:1015200008010161042020772068C06980072046F7
:1015300002D0FFF7AEFF04E000F05FF8204600F0B5
:101540005DF8257720680169C943C90617D4C168C9
:10155000C943C90613D46FF0100101610820207738
:101560002068C06910F4407F204602D0FFF791FF49
:1015700004E000F042F8204600F040F825772068AB
:101580000169C943C90708D1C168C943C90704D162
:10159000891E0161204600F033F820680169C943C3
:1015A000090609D4C168C943090605D46FF0800152
:1015B00001612046FFF772FE20680169C9434906B0
:1015C00009D4C168C943490605D46FF040010161DF
:1015D000204600F03DF820680169C94389060BD414
:1015E000C168C943890607D46FF020010161204614
:1015F000BDE87040FFF753BE70BD704770470000F4
:1016000010B504460068B0F1804F01D100F092FBA4
:101610000C492068884201D1FFF7DEFA0A492068A8
:1016200088420ED10948418AB1F57A7F01D900215B
:101630004182C179012901D1418A0182418A491C33
:10164000418210BD002C0140000400400000002039
:10165000704770B5040004D094F83900002510B12B
:1016600006E0012070BD84F83850204600F022F8D2
:10167000242084F839002068C16821F40051C16039
:10168000204600F01FFD2068016921F490410161AE
:101690002068416921F02A0141612068C16841F454
:1016A0000051C160E563202084F8390084F83A00D5
:1016B000002070BD30B585B00024009401940294E0
:1016C000039400681449884224D11448816941F484
:1016D00080418161816901F480410491816941F017
:1016E0000401816180690E4D00F0040004904FF404
:1016F0000070009002200190032003906946284664
:10170000FEF70AFE2815CDE9000469462846029432
:10171000FEF702FE05B030BD003801400010024067
:10172000000801402DE9F843044690F839001F46AF
:1017300016460D46202850D1A5B19EB194F8380028
:1017400001284AD0012084F838004FF00008C4F87E
:101750003C80212084F83900FEF7C6FEA68481462D
:10176000E68426E00120BDE8F883E08C401EE0849A
:10177000A0684B46B0F5805F4FF000024FF080014B
:101780002046009703D000F055FDE8B90DE000F0C9
:1017900051FDC8B928882168C0F308004860206955
:1017A00008B16D1C05E0AD1C03E0216815F8010BC4
:1017B0004860E08C0028D8D14B46002240212046CA
:1017C000009700F037FD08B10320CCE7202084F813
:1017D000390084F838800020C5E70220C3E7FEE71F
:1017E00001684A69D24352050CD46FF480624A61A1
:1017F00004210164002140F8301F2022427301734C
:1018000001207047002070472DE9F84F044600681A
:1018100089460B9D01689846174641F48061016036
:101820002068016841F48071016000954FF0011A51
:101830000022514620460A9B00F0D5F8F0BB2168F3
:1018400009F0FE0008610AF1010B2B4659462046BB
:101850000A9A00F0F9F818B1206C042812D03AE086
:1018600020684169806900902A4620460A9900F064
:1018700060F950B1206C04282DD12068016841F432
:10188000007101600120BDE8F88FFEB2B8F1010FD0
:1018900009D02168380A08612A4620460A9900F0D2
:1018A00048F90028E6D1206806612A4620460A99B0
:1018B00000F03FF90028DDD1206800E00BE001686E
:1018C00041F48071016000950022514620460A9B38
:1018D00000F089F808B10320D5E7216809F0FF007E
:1018E00040F0010008612B46594620460A9A00F054
:1018F000ABF80028B0D1C6E72DE9F84304460068EC
:101900000D46DDE9089701689846164641F4807156
:1019100001604B4600224FF001112046009700F075
:1019200062F8E8B9216805F0FE0008613B464A46C6
:101930001849204600F088F828B1206C04280FD1FF
:101940000120BDE8F88320684169806900903A462B
:101950004946204600F0EDF820B1206C042813D051
:101960000320EEE7F5B2B8F1010F09D02168300A83
:1019700008613A464946204600F0DBF80028ECD1E1
:10198000206805610020DCE72068016841F40071EF
:101990000160D5E70200010070B516460D46044609
:1019A0001AE02046FFF71CFF08B1012070BD681C3B
:1019B00012D025B1FEF798FD801BA8420CD954F82F
:1019C000400F40F0200044F8100900202060202142
:1019D00061732073032070BD20684069C0434007D5
:1019E000DFD4002070BD2DE9F0471E4690460D461D
:1019F0000446C1F30747DDF8209012E0701C10D0B8
:101A00002EB1FEF771FDA0EB0900B04209D900200C
:101A100044F8300F20216173A07320730320BDE8C8
:101A2000F0872068012F0AD0806925EA00000004B1
:101A3000000C06D000214145E0D00020EFE74069CE
:101A4000F3E70121F7E700002DE9F0479A469146B8
:101A50000D46044600264FF02008C1F307472AE050
:101A600020684069C043400512D42068016841F4F1
:101A70000071016021686FF4806048610420206477
:101A8000266384F83D8084F83C600120BDE8F0873F
:101A9000B9F1FF3F0FD0B9F1000F05D0FEF724FDDB
:101AA000A0EB0A01494506D944F8306F84F80D804F
:101AB00026730320EAE72068012F07D0D0F818002A
:101AC00025EA00000004000CE0D0C9E74069F7E710
:101AD0002DE9F041002590460E460446202721E0DE
:101AE0004069C043C0060CD421686FF01000486103
:101AF0002564256384F83D7084F83C500120BDE8DE
:101B0000F0812EB1FEF7F0FCA0EB0800B04209D93D
:101B100054F8400F40F0200044F804096770257025
:101B20000320ECE720684169C9434906D8D4002066
:101B3000E5E770B516460D4604461AE02046FFF765
:101B40004FFE08B1012070BD681C12D025B1FEF710
:101B5000CBFC801BA8420CD954F8400F40F0200069
:101B600044F81009002020602021617320730320B5
:101B700070BD20684069C0430006DFD4002070BDFE
:101B8000F0B524488DB0816941F00401816181691B
:101B900001F004010C91816941F0080181618169C2
:101BA00001F008010C91816941F0100181618069A7
:101BB0000124FF2500F01000CDE90054164F0C90D1
:101BC000694638460394FEF7A7FB20020026CDE9BC
:101BD0000006694603943846FEF79EFBCDE904569D
:101BE0000E4D04A907942846FEF796FB4FF47F405C
:101BF000CDE9040404A928460794FEF78DFB4FF6AF
:101C0000FF70CDE9080408A905480B94FEF784FB92
:101C10000DB0F0BD0010024000080140000C014072
:101C20000010014010B586B00024114800940194C2
:101C30000294039404944FF080410594016043F6AC
:101C40007F61C0E901140521C0E903148461FFF735
:101C50004FFB4FF48050009069460548FFF7A0FB0A
:101C6000049404A902480594FFF71AFB06B010BDBE
:101C7000B801002010B586B00024124800940194E9
:101C80000294039404940E490594016047F6FF41C1
:101C9000C0E90114C821C0E903148461FFF728FBDF
:101CA0004FF48050009069460648FFF779FB049492
:101CB00004A904480594FFF7F3FA06B010BD00002C
:101CC00000040040F8010020FEE770470907090EF4
:101CD000002806DA00F00F0000F1E02080F8141D63
:101CE000704700F1E02080F80014704710B542F210
:101CF0000F71884200D900204FF47A71B0FBF1F2E5
:101D000001FB12016423B1FBF3F209494A714C79DA
:101D10000A2204B94A71B0FBF3F403FB1403B3FBCA
:101D2000F2F38B71B0FBF2F302FB1300C87110BD2C
:101D30003000002030B51848427801219140174A00
:101D4000116044781649174B00F13002062C02D17D
:101D5000C478012C12D0CC6804F47F44CC60CC68E9
:101D60004578525D9A5C1443CC604178491C4170BF
:101D70004178072901D90021417030BDCC6804F4B5
:101D80007F44CC60CC684578525D9A5C144344F043
:101D90008002CA60E9E70000000000200C08014052
:101DA00000100140803C000810B5502080F31188DD
:101DB000BFF34F8FBFF36F8F01F09CFE18B1044942
:101DC0004FF080500860002080F3118810BD0000A3
:101DD00004ED00E030B58FB028216846FEF707FA21
:101DE00014210AA8FEF703FA0224012004900094AB
:101DF0001020059000254FF46010CDE9085007949D
:101E00006846FFF7C9F80AA90F2081E8310060028F
:101E1000CDE90D0502210AA8FEF792FF0FB030BDF3
:101E20000D48016841F00101016041680B4A114011
:101E3000416001680A4A11400160016821F4802173
:101E40000160416821F4FE0141604FF41F0181608F
:101E50000449C00308607047001002400000FFF80A
:101E6000FFFFF6FE08ED00E00148FFF713BB00009E
:101E7000780200200148FFF70DBB0000B8010020E8
:101E80000148FFF707BB0000F8010020F0B5026829
:101E9000164B174C174D4FF08047984205D0B8426B
:101EA00003D0A04201D0A84203D122F070064A68B4
:101EB0003243984205D0B84203D0A04201D0A84294
:101EC00003D122F44074CA68224322F080044A6994
:101ED000224302608A68C2620A688262984201D123
:101EE0000969016301214161F0BD0000002C01403E
:101EF000000400400008004010B5846842EA032254
:101F000024F47F440A432243826010BD826822F099
:101F100070020A4342F007018160704710B5036AFE
:101F2000046A24F001040462846924F0F00444EAA1
:101F3000021423F00A020A438461026210BD10B544
:101F4000036A23F0100303628369046A23F4704375
:101F500043EA023224F0A00343EA011182610162E4
:101F600010BD000070B50A4D044601212846FEF759
:101F7000B1FA08490C4430B102212846FEF7AAFA0A
:101F800020B1FF2070BD14F8010C70BDE07970BD68
:101F9000000C01403800002010B5012000F036F898
:101FA0000120FFF7DFFFFF282FD1022000F02EF8DD
:101FB0000220FFF7D7FFFF2827D1032000F026F8E3
:101FC0000320FFF7CFFFFF281FD1042000F01EF8E9
:101FD0000420FFF7C7FFFF2817D1052000F016F8EF
:101FE0000520FFF7BFFFFF280FD1062000F00EF8F5
:101FF0000620FFF7B7FFFF2807D1072000F006F8FB
:10200000BDE810400720FFF7ADBF10BD2DE9F05F20
:1020100001222B4D0446160231462846FEF75FFA90
:102020000122570239462846FEF759FA4FF48068D4
:10203000012241462846FEF752FA4FF40069012278
:1020400049462846FEF74BFA4FF4805A0122514682
:102050002846FEF744FA4FF4005B01225946284611
:10206000FEF73DFA012291032846FEF738FA012CCB
:1020700012D0022C13D0032C14D0042C15D0052C14
:1020800016D0062C17D0072C18D10022B1012846F3
:10209000BDE8F05FFEF723BA00223146F7E70022E1
:1020A0003946F4E700224146F1E700224946EEE7CF
:1020B00000225146EBE700225946E8E7BDE8F09FD1
:1020C000001001402DE9F041044600680169E26812
:1020D00021F44051114301612169A06808436169FD
:1020E00008432168CA6841F20C639A430243CA60FC
:1020F00020684169A26921F44071114341614C4952
:1021000020686425322688423CD1FEF7FFFE00EBB2
:10211000C00101EB001061688900B0FBF1F7FEF728
:10212000F5FE00EBC00101EB00106168B0468900CC
:10213000B0FBF1F0B0FBF5F06FF01801484307EB8E
:10214000800106EB0110B0FBF5F000F0F006FEF7A1
:10215000DDFE00EBC00101EB001061688900B0FBFF
:10216000F1F0B0FBF5F006EB0016FEF7CFFE00EB4A
:10217000C00101EB001061688900B0FBF1F7FEF7C8
:10218000C5FE3BE0FEF7B2FE00EBC00101EB001024
:1021900061688900B0FBF1F7FEF7A8FE00EBC00113
:1021A00001EB00106168B0468900B0FBF1F0B0FBB4
:1021B000F5F06FF01801484307EB800106EB0110C2
:1021C000B0FBF5F000F0F006FEF790FE00EBC0016A
:1021D00001EB001061688900B0FBF1F0B0FBF5F095
:1021E00006EB0016FEF782FE00EBC00101EB0010CB
:1021F00061688900B0FBF1F7FEF778FE00EBC001E3
:1022000001EB001061688900B0FBF1F0B0FBF5F064
:102210006FF01801484307EB800108EB0110B0FB99
:10222000F5F0216800F00F0030448860BDE8F081CF
:10223000003801402DE9F041984617460E46044605
:10224000069D1DE0681C1BD02DB1FEF74DF9A0EBDB
:102250000800A84214D92068C16821F4D071C16077
:102260002068416921F001014161202084F8390092
:1022700084F83A00002084F838000320BDE8F0819B
:102280002068006836EA000004D00020B842D9D0A7
:102290000020F3E70120F9E7FEE70000014A0249C8
:1022A00000F013B8ED2200086001002002E008C829
:1022B000121F08C1002AFAD170477047002001E0C0
:1022C00001C1121F002AFBD170472DE9F0411646CB
:1022D0000F460446002503E03946B047641C6D1CD8
:1022E00020780028F8D12846BDE8F08113B5642392
:1022F000012269460248FFF715FA00981CBD00004C
:102300003802002090B0FEF76FFCFFF763FDFFF787
:1023100037FC77487549002401604FF4E131C0E98A
:1023200001140C21C460C0E904418461C461FFF759
:1023300090F96F486F49D4384FF48045016046F2F8
:10234000A811C0E90114C0E9034544618461C46176
:102350000462FEF715F9FFF765FCFFF78BFC644894
:102360008038FFF711F862484038FFF70DF86048F1
:10237000D438FEF7BFF8604C0022E9102046FEF783
:10238000AEF80022A1142046FEF7A9F8002261143D
:102390002046FEF7A4F8002229462046FEF79FF8C3
:1023A000002269002046FEF79AF802E06420FDF75B
:1023B000A1FFFDF767FF0028F8D00F224F4900204A
:1023C000FDF76EFF6420FDF795FF4C490F220F319A
:1023D0001020FDF765FF6420FDF78CFF47490F22B1
:1023E0001E312020FDF75CFF6420FDF783FF434989
:1023F0000F222D313020FDF753FF6420FDF77AFFC7
:102400003E490F223C314020FDF74AFF6420FDF792
:1024100071FF3A490F224B315020FDF741FF6420F4
:10242000FDF768FF35490F225A316020FDF738FF6C
:102430006420FDF75FFF31490F2269317020FDF7FD
:102440002FFF6420FDF756FF2C490F2278318020A2
:10245000FDF726FF6420FDF74DFF28490F22873145
:102460009020FDF71DFF6420FDF744FF2349032260
:102470003739A020FDF714FF6420FDF73BFF1F480C
:10248000373800F1100102784A7143788B718078F7
:10249000C87164214A43194C03EB830102EB4101EB
:1024A000573C08442071142215496846FDF786FE02
:1024B0000021684600F038F8114960621422143196
:1024C00005A8FDF77BFE002105A800F02DF80C49BA
:1024D000A062142228310AA8FDF770FE00210AA884
:1024E00000F022F8E06200F01AF8FEE70038014040
:1024F0003802002000540040000C0140570000202A
:10250000E03C000801460020842900D0C81C704728
:1025100010B500B9012001F0F7F9002010BD10B589
:1025200001F018FA002010BD3EB504460D46B0F982
:102530000800FFF7E7FF02A9CDE90001208A2B463A
:1025400082B2D4E9001001F0A9FA012801D00020DC
:102550003EBD02983EBD00002DE9F041184C0F46EB
:102560000546E6682068001D01F018F938B92068B2
:1025700090F82C1001208840216981432161681C5A
:1025800007D137B12168BDE8F0410E48091D01F0BF
:102590003DB920683544B5424560216805D2A06B3D
:1025A000BDE8F041091D01F019B9606B091D01F08A
:1025B00015F9A06A854200D2A562BDE8F08100004D
:1025C00000010020940300202DE9F041054601F0B0
:1025D00029F92E4CA068401CA06020682C4F10B137
:1025E000606940B32DE02560A068012829D100264C
:1025F00006EB860007EB800001F0E2F8761C072E60
:10260000F6D323488C3001F0DBF82148A03001F0EC
:10261000D7F81F48B43001F0D3F81D48C83001F096
:10262000CFF81B48DC3001F0CBF819488C306063E0
:102630001430A06305E02068E96AC06A884200D8C7
:102640002560606A401C6062E96A01202269884056
:102650001043206101EB810007EB8000291D01F090
:10266000D5F801F0FFF8606900280CD02068E96A0D
:10267000C06A884207D207494FF080500860BFF314
:102680004F8FBFF36F8FBDE8F08100000001002085
:10269000B802002004ED00E070B5114E114C17E0B7
:1026A00001F08CF93068B8B101F088FA01F0BAF89D
:1026B000F068C568281D01F071F8A068401EA06090
:1026C0006068401E606001F0CDF8284600F00CF80C
:1026D00060680028E4D170BD01F070FAF8E70000EE
:1026E000800300200001002010B50446006B01F0BB
:1026F000CDF82046BDE8104001F0C8B810484FF4AE
:102700004061420706D0C01D0D4920F00700411A64
:10271000C1F540610B4A00230144C2E900030839B6
:10272000103A21F0070111604B600B600B1AC0E9F1
:10273000001393604FF000405360D060704700007A
:10274000A80300204C010020074C4FF08056074D95
:10275000FFF7A2FF20680128FAD92E60BFF34F8F40
:10276000BFF36F8FF4E70000B802002004ED00E033
:102770002DE9F0479A46DDE9098481466FF00303AD
:10278000206B03EB82021044089D20F007067007BF
:1027900007D0502080F31188BFF34F8FBFF36F8FA6
:1027A000FEE723180A5C83F834200A5C12B1401C4F
:1027B0001028F6D3002784F84370072D00D3062590
:1027C000E562C4E91157201D01F005F804F1180075
:1027D00001F001F82461C5F107006462A061E764BB
:1027E00084F8507052464946304600F0BFF82060E9
:1027F000B8F1000F01D0C8F80040BDE8F087000034
:1028000030B5114900E011460A688242FBD34B689B
:102810005C18844203D14068184448600846436805
:102820001C18944209D1084C103C2468A24209D0DB
:1028300052681A4442600A6812680260814200D0FD
:10284000086030BD0460F9E74C0100200648416B88
:10285000096829B1416BC968C968496881627047D4
:102860004FF0FF31FAE700000001002008484068FF
:10287000401C4FF0500080F3118804D0BFF34F8FFD
:10288000BFF36F8FFEE7BFF34F8FBFF36F8FFEE78E
:10289000540100202DE9F0410546002701F08EF893
:1028A000314E306808B9FFF729FFF06805424BD177
:1028B000C5B3083568070ED005F00700C0F1080061
:1028C0000544680707D0502080F31188BFF34F8F6D
:1028D000BFF36F8FFEE72DB37068854234D822486E
:1028E000103001460C6801E020460C466168A942A0
:1028F00002D221680029F7D131688C4224D00768C0
:102900002168016060680837411B10290FD96019E0
:10291000420708D0502080F31188BFF34F8FBFF3D8
:102920006F8FFEE710E041606560FFF769FF616847
:102930007068401A7060B268904200D2B060F0686F
:1029400001430020C4E9000101F038F9780707D0FD
:10295000502080F31188BFF34F8FBFF36F8FFEE7D6
:102960003846BDE8F08100003C01002010B5031F8F
:102970004FF080741C601B1F21F001011960191FAA
:10298000024B0B60143940380A6010BD6D280008F6
:102990000BA0FFF783FC13A0FFF780FC17A0FFF745
:1029A0007DFC22A0FFF77AFC264CE079012802D1B9
:1029B000208AFFF79BF90A20FFF7AAFDF5E7000040
:1029C0004465766963653A20647275672070726F3A
:1029D0006475637420636F6E74726F6C6C65720DD6
:1029E0000A0000005265766973653A2032382F304C
:1029F000342F323031390D0A0000000043757374F2
:102A00006F6D65723A20446F616E2056616E204C86
:102A1000756F6E6740446F6D6573636F20446F6EB2
:102A20006720546861700D0A0000000044657369F6
:102A3000676E65723A2070686F6E676E6833323801
:102A4000390D0A00000000209D4D0126DFF86CA220
:102A50004FF00A0B4F274FF03008A5F11009A5F1F0
:102A6000300400BF4FF480719648FDF733FD00B984
:102A7000A671A079012803D017E16420FDF73AFC84
:102A8000FDF700FC0028F8D0207A4FF6FF71401EB9
:102A900001EA00108A490F221831FDF701FC88482D
:102AA0006422183001785143427802EB820201EB34
:102AB000420182781144A182C17864225143027993
:102AC00002EB820201EB420142791144E1828179F9
:102AD00064225143C27902EB820201EB4201027A85
:102AE00011442183417A64225143827A02EB8202AB
:102AF00001EB4201C27A11446183017B642251439C
:102B0000427B807B02EB820201EB42010844A083FE
:102B1000002060822082E671E6706079012800D191
:102B20002F71607908B985F804800B20287085F82A
:102B300001B085F802B085F803B00122D1025046F9
:102B4000FDF7CDFCA08A618A8842FBD100224FF4B8
:102B500000615046FDF7C3FC6079012813D10020C5
:102B6000608220820C202870012211035046FDF75C
:102B7000B6FCE08A618A8842FBD100224FF4805182
:102B80005046FDF7ACFC0020608220820D202870AA
:102B9000012251035046FDF7A2FC208B618A884236
:102BA000FBD100224FF400515046FDF798FC002065
:102BB000608220820E202870012291035046FDF78A
:102BC0008EFC608B618A8842FBD100224FF48041E9
:102BD0005046FDF784FC0020608220820F20287080
:102BE0000122D1035046FDF77AFCA08B618A88420E
:102BF000FBD100224FF400415046FDF770FC00204D
:102C0000E071E0702079401C207121794FF47A70D6
:102C1000B1FBF0F200FB12106421B0FBF1FC89F86B
:102C200000C02279B2FBF1F301FB13225946B2FB3B
:102C3000F1F289F801202279B2FBFBF30BFB13219F
:102C400089F802106079012800D12F71607908B9E4
:102C500085F804801D2028701E2068701920A87037
:102C60001A20E8704846BCF1090F03D90921017008
:102C700041708170017869714178A97199F80200F9
:102C8000E87102E06420FDF735FBFDF7FBFA002850
:102C9000F8D00B4903221039A020FDF713FB4FF4A5
:102CA0007A70FDF727FB0020A0710A20FFF730FCA7
:102CB0004FF4FA70FDF71EFBD4E60000000C014053
:102CC0003000002000080140DFF81484002608F1DD
:102CD0000F0AA8F1370B0127A8F127044FF05D096F
:102CE000FFF75AF9FE4D573DFF28287000D0A87015
:102CF000A8780A2801D1AF71AE70A8790028EFD169
:102D0000A87873283BD1A87AC8BB287BB8BBA87B1E
:102D1000A8BBE87A98BB687B88BBAE70687920B1A5
:102D20006E716879012802D012E06F71F9E72670A0
:102D3000182060700A20A070E0704F2020719BF86E
:102D4000001061719BF80110A1719BF80200E07105
:102D5000687980B9267010206070A0700A20E07039
:102D6000302020719BF8001061719BF80110A17157
:102D70009BF80200E0714FF49670FDF7BBFAA8785B
:102D8000632841D1A87AE0BB287BD0BBA87BC0BB1D
:102D9000E87AB0BB687BA0BBAE702E718BF8006088
:102DA0008BF801608BF8026002E06420FDF7A2FA64
:102DB000FDF768FA0028F8D0C94903223739A02066
:102DC000FDF780FA6420FDF795FAC54903223739EB
:102DD000A020FDF765FA1D2020701E2060701920CC
:102DE000A0701A20E07084F804909BF800106171C4
:102DF0009BF80110A1719BF80200E0714FF49670EE
:102E000000E001E0FDF776FAA878012870D1AE70F5
:102E1000AF722E736E73EE72AE73687A012863D14F
:102E20000B2020700A206070A070E0702071287A5A
:102E300001281BD0287A022821D0287A032827D0FD
:102E4000287A042827D0287A052827D0287A062827
:102E500027D0287A072827D0287A082827D0287A48
:102E6000092827D0287A0A2827D02EE098F80010C1
:102E7000617198F80110A17198F8020024E09AF8A5
:102E8000001061719AF80110A1719AF802001BE01C
:102E900093481E3013E092482D3010E090483C30AB
:102EA0000DE08F484B300AE08D485A3007E08C48DF
:102EB000693004E08A48783001E089488730017839
:102EC00061714178A1718078E0716179642041433A
:102ED000A07900EB800001EB4000E17908442882F2
:102EE000EF70288AFEF702FF4FF49670FDF702FAA2
:102EF000A878022870D1AE70AE722E736E73EF7226
:102F0000AE73687A012863D10C2020700A206070AB
:102F1000A070E0702071287A01281BD0287A02283E
:102F200021D0287A032827D0287A042827D0287A85
:102F3000052827D0287A062827D0287A072827D0DE
:102F4000287A082827D0287A092827D0287A0A281A
:102F500027D02EE098F80310617198F80410A17141
:102F600098F8050024E09AF8031061719AF80410AB
:102F7000A1719AF805001BE059481E3013E058482B
:102F80002D3010E056483C300DE055484B300AE0FB
:102F900053485A3007E05248693004E050487830CE
:102FA00001E04F488730C17861710179A1714079A2
:102FB000E071607964214843A17901EB810100EB64
:102FC0004100E17908442882EF70288AFEF78EFEDE
:102FD0004FF49670FDF78EF9A878032870D1AE7083
:102FE000AE722F736E73EE72AE73687A012863D17E
:102FF0000D2020700A206070A070E0702071287A87
:1030000001281BD0287A022821D0287A032827D02B
:10301000287A042827D0287A052827D0287A062855
:1030200027D0287A072827D0287A082827D0287A76
:10303000092827D0287A0A2827D02EE098F80610E9
:10304000617198F80710A17198F8080024E09AF8C7
:10305000061061719AF80710A1719AF808001BE038
:103060001F481E3013E01E482D3010E01C483C3035
:103070000DE01B484B300AE019485A3007E0184869
:10308000693004E01648783001E0154887308179CE
:103090006171C179A171007AE07161796420414365
:1030A000A07900EB800001EB4000E1790844288220
:1030B000EF70288AFEF71AFE4FF49670FDF71AF9A2
:1030C000A878042872D1AE70AE722E736F73EE7250
:1030D000AE73687A012865D10E2020700A2001E0C5
:1030E000570000206070A070E0702071287A0128DD
:1030F0001BD0287A022821D0287A032827D0287AC2
:10310000042826D0287A052826D0287A062826D012
:10311000287A072826D0287A082826D0287A09284D
:1031200026D0287A0A2826D02DE098F80910617157
:1031300098F80A10A17198F80B0023E09AF809108A
:1031400061719AF80A10A1719AF80B001AE0FE4812
:1031500013E0FD480F3010E0FB481E300DE0FA4848
:103160002D300AE0F8483C3007E0F7484B3004E0E7
:10317000F5485A3001E0F4486930417A6171817A4A
:10318000A171C07AE071607964214843A17901EBB3
:10319000810100EB4100E17908442882EF70288A20
:1031A000FEF7A4FD4FF49670FDF7A4F8A878052863
:1031B0006FD1AE70AE722E736E73EE72AF73687AAB
:1031C000012862D10F2020700A206070A070E0708A
:1031D0002071287A01281BD0287A022821D0287A49
:1031E000032827D0287A042826D0287A052826D034
:1031F000287A062826D0287A072826D0287A082870
:1032000026D0287A092826D0287A0A2826D02DE028
:1032100098F80C10617198F80D10A17198F80E00D3
:1032200023E09AF80C1061719AF80D10A1719AF8C8
:103230000E001AE0C44813E0C3480F3010E0C24843
:103240001E300DE0C0482D300AE0BF483C3007E09A
:10325000BD484B3004E0BC485A3001E0BA48693000
:10326000017B6171417BA171807BE0716079642198
:103270004843A17901EB810100EB4100E179084469
:103280002882EF70288AFEF731FD4FF49670FDF723
:1032900031F8A878692875D1AE70A87A012809D1CB
:1032A000288A401C2882EF70288AFEF71FFD002024
:1032B00000F0DAF9E87A012809D1288A401C28822E
:1032C000EF70288AFEF712FD032000F0CDF9287B6D
:1032D000012809D1288A401C2882EF70288AFEF72D
:1032E00005FD062000F0C0F9687B012809D1288A75
:1032F000401C2882EF70288AFEF7F8FC092000F0B5
:10330000B3F9A87B012809D1288A401C2882EF70D4
:10331000288AFEF7EBFC0C2000F0A6F9687A012859
:1033200046D1A87A78BB287B68BBA87B58BBE87AD3
:1033300048BB687B38BB287A401C2872287A0A2848
:1033400001D90A202872287A01281DD0287A02285B
:103350001CD0287A032819D0287A042816D0287A75
:10336000052813D0287A062810D0287A07280DD0EF
:10337000287A08280AD0287A092807D0287A0A2823
:1033800008D009E017E013E0277000E0207084F80F
:10339000019001E02770667084F8029084F8039031
:1033A00084F8049084F8059084F8069084F80790D7
:1033B0006420FCF79FFFA87870287DD1AE70687AF2
:1033C000401C6872687A022803D07AE06420FCF717
:1033D00091FFFCF757FF0028F8D0287A01281BD06E
:1033E000287A02281DD0287A03281FD0287A04289A
:1033F00020D0287A052822D0287A062824D0287AB6
:10340000072826D0287A082828D0287A09282AD000
:10341000287A0A282CD031E04B490F221E3900208F
:103420002AE049490F220F39102025E00F22464992
:10343000202021E044490F220F3130201CE0424976
:103440000F221E31402017E03F490F222D3150201E
:1034500012E03D490F223C3160200DE03A490F2235
:103460004B31702008E038490F225A31802003E0A8
:1034700035490F2269319020FCF724FF6E72EE70FF
:10348000AE722E736E73EE72AE736879012801D13D
:103490004F202071687908B9302020711D202070DC
:1034A0001E2060701920A0701A20E0709BF8001098
:1034B00061719BF8011000E03DE0A1719BF80200F2
:1034C000E071687A012832D1287A01281BD0287A45
:1034D00002281AD0287A032817D0287A042814D072
:1034E000287A052811D0287A06280ED0287A0728AD
:1034F0000BD0287A082808D0287A092805D0287AFD
:103500000A2806D007E0277000E0207084F80190B8
:1035100001E02770667084F8029084F8039084F8C4
:10352000049084F8059084F8069084F807904FF48E
:103530009670FCF7DFFEA878642876D1AE70A87A82
:1035400001280CD1288A01E075000020401E288245
:10355000EF70288AFEF7CAFB002000F085F8E87AB1
:10356000012809D1288A401E2882EF70288AFEF798
:10357000BDFB032000F078F8287B012809D1288AB8
:10358000401E2882EF70288AFEF7B0FB062000F06C
:103590006BF8687B012809D1288A401E2882EF70C9
:1035A000288AFEF7A3FB092000F05EF8A87B01281B
:1035B00009D1288A401E2882EF70288AFEF796FBE0
:1035C0000C2000F051F8687A012844D1A87A68BB31
:1035D000287B58BBA87B48BBE87A38BB687B28BBF4
:1035E000287A401E2872287A00B92F72287A01287A
:1035F0001DD0287A02281CD0287A032819D0287ACE
:10360000042816D0287A052813D0287A062810D046
:10361000287A07280DD0287A08280AD0287A09287D
:1036200007D0287A0A2808D009E017E013E02770AD
:1036300000E0207084F8019001E02770667084F843
:10364000029084F8039084F8049084F8059084F83C
:10365000069084F807906420FCF74CFE9620FEF755
:1036600057FFFFF73DBB000070B54B490D7A64234F
:103670000A224FF47A74012D24D00D7A022D2BD01A
:103680000D7A032D42D00D7A042D49D00D7A052DE7
:1036900050D00D7A062D57D00D7A072D5ED00D7AB9
:1036A000082D65D00D7A092D6CD00D7A0A2D2CD1FC
:1036B0000D8AB5FBF4F604FB1654B4FBF3F501F1E7
:1036C000DE0412E00D8AB5FBF4F604FB1654B4FBDD
:1036D000F3F5314C573408E00D8AB5FBF4F604FBE2
:1036E0001654B4FBF3F52C4C663425540D8A204453
:1036F000B5FBF3F603FB1653B3FBF2F34370098AF1
:10370000B1FBF2F302FB1311817070BD0D8AB5FBA2
:10371000F4F604FB1654B4FBF3F51F4C7534E4E7E0
:103720000D8AB5FBF4F604FB1654B4FBF3F51A4C02
:103730008434DAE70D8AB5FBF4F604FB1654B4FBC7
:10374000F3F5154C9334D0E70D8AB5FBF4F604FB82
:103750001654B4FBF3F5104CA234C6E70D8AB5FB42
:10376000F4F604FB1654B4FBF3F50B4CB134BCE790
:103770000D8AB5FBF4F604FB1654B4FBF3F5064CC6
:10378000C034B2E70D8AB5FBF4F604FB1654B4FB63
:10379000F3F5014CCF34A8E700000020D0E9013256
:1037A00001699A60D0E901235A604A68824201D1D6
:1037B00082684A60002202610868401E0860704703
:1037C00000F108014FF0FF32C0E90112C160016150
:1037D00000210160704700210161704730B50B681E
:1037E0005A1C02D000F1080202E0026904E02246FD
:1037F000546825689D42FAD953684B6099608A6085
:10380000516008610168491C016030BD42684A602E
:1038100093688B6093685960916008610168491CE6
:1038200001607047502080F31188BFF34F8FBFF3C2
:103830006F8F0A494868401C486001280CD108482D
:10384000006810F0FF0F07D0502080F31188BFF3FD
:103850004F8FBFF36F8FFEE77047000054010020C9
:1038600004ED00E00849486828B1401E486001D1D5
:1038700080F311887047502080F31188BFF34F8F79
:10388000BFF36F8FFEE700005401002070B50028E1
:1038900027D0144DA0F108046168E868014207D1FF
:1038A000502080F31188BFF34F8FBFF36F8FFEE777
:1038B00022683AB1502080F31188BFF34F8FBFF3D5
:1038C0006F8FFEE78143616000F078F86068696897
:1038D000084468602046FEF793FFBDE8704000F0A2
:1038E0006DB970BD3C01002006484FF47A71006844
:1038F000B0FBF1F14FF0E020491E41610721016169
:1039000070470000FC00002010B5020014D00F48E2
:10391000006B38B1502080F31188BFF34F8FBFF395
:103920006F8FFEE700F04AF800211046FEF714FE04
:1039300000F044F9002807D105494FF08050086095
:10394000BFF34F8FBFF36F8F10BD00000001002049
:1039500004ED00E01CB515480024CDE900402346E5
:10396000802213A1144800F099F8012809D0401CC6
:103970001AD1502080F31188BFF34F8FBFF36F8FA0
:10398000FEE7502080F31188BFF34F8FBFF36F8F96
:1039900006484FF0FF312C38816201214161C4603B
:1039A000BDE81C4000F040B81CBD00002C01002008
:1039B00049444C4500000000492700080248016BBB
:1039C000491C016370470000000100201448016B8E
:1039D00011B10121C16170470021C1610169B1FAD2
:1039E00081F1C1F11F0101EB81020E4951F8223032
:1039F0006BB101EB820101F108034A6852684A6029
:103A00009A4201D152684A60D168016070475020E3
:103A100080F31188BFF34F8FBFF36F8FFEE7000075
:103A200000010020B80200201CB519490878019057
:103A3000FF20087008788DF800009DF80000154AF6
:103A400000F0500010700720906005E09DF80030F5
:103A50005B008DF80030401E9DF800301B06F5D449
:103A6000000200F4E0609060019808700A48016864
:103A700041F470010160016841F070410160FFF79D
:103A800033FF00205060FCF74DFB00201CBD000000
:103A900000E400E05401002020ED00E02DE9FF5F8C
:103AA0008346DDE90E87994616468A469000FEF762
:103AB000F1FE05001AD05420FEF7ECFE040012D0EF
:103AC00025630021CDE90241CDE900874B4632460E
:103AD00051465846FEF74CFE2046FEF775FD012084
:103AE00004B0BDE8F09F2846FFF7D0FE4FF0FF304E
:103AF000F6E700002DE9F0412E4C0027206B40B185
:103B0000A069401CA061E06900B101273846BDE80A
:103B1000F081E668761CE66013D1606B006838B10E
:103B2000502080F31188BFF34F8FBFF36F8FFEE7F4
:103B3000606BA16B6163A063206A401C2062FEF78A
:103B400085FEA06ADFF87080864209D3606B00684A
:103B500080B1606BC068C568686886420DD2A0629B
:103B60002068C06A00EB800158F821000128CAD9FA
:103B70000127C8E74FF0FF30F1E7281DFFF70EFEE1
:103B8000A86A18B105F11800FFF708FEE86A0121DC
:103B9000226981401143216100EB800108EB810023
:103BA000291DFFF733FEE86A2168C96A8842CDD330
:103BB0000127CBE700010020B80200202DE9F047E3
:103BC0002C4D00242746286B38B1FFF72BFE286BBD
:103BD000401E2863286B40B146E0502080F31188D6
:103BE000BFF34F8FBFF36F8FFEE7A968224E01200E
:103BF000D1B3A6F1B40980463068E8B1F068C46872
:103C000004F11800FFF7CAFD201DFFF7C7FDE06AA9
:103C10002A6908FA00F11143296100EB800109EBE0
:103C20008100211DFFF7F2FDE06A2968C96A884218
:103C3000E2D3C5F81C80DFE70CB1FEF707FEAC69E4
:103C400044B14646FFF756FF00B1EE61641EF9D15C
:103C50000020A861E86938B10849012738070860E1
:103C6000BFF34F8FBFF36F8FFFF7FCFD3846BDE802
:103C7000F0870000000100206C03002004ED00E04C
:103C80003F065B4F666D7D077F6F00777C395E79FD
:103C9000713D76301E753815375C736B336D313E70
:103CA0003E2A766E5B090D614843D35F39640F236A
:103CB00008025F7C585E7B716F74100C7530145471
:103CC0005C7367506D781C1C14766E5B4630700117
:103CD0000086227E6DD24620290B21701040805232
:103CE000403D00089129000800000000000000008D
:103CF000800000004C3D0008C92C0008FDFF0000BA
:103D00000000000080000000343D0008492A00083F
:103D1000FDFF000000000000800000000000000027
:103D2000000000000102030406070809000000006B
:103D300001020304726573657276655F69737200D0
:103D40006D61696E5F697372000000007365747560
:103D5000705F697372000000783D00080000002069
:103D60006401000028020008B03D00086401002042
:103D700044120000BC22000872FF02270110191D26
:103D80001E191A5D0A0A0A020305690A6F73070100
:103D9000040B700D636408BB0101030B9202020364
:103DA00049E882100458A24A041AAA0181000000BE
:04000005080000ED02
:00000001FF
