:020000040800F2
:10000000A0130020990100084B1A0008731600087D
:10001000491A00087F0200082120000800000000A3
:1000200000000000000000000000000001010008C6
:10003000810200080000000045010008311B000893
:10004000B3010008B3010008B3010008B3010008C0
:10005000B3010008B3010008B3010008B3010008B0
:10006000B3010008B3010008B3010008B3010008A0
:10007000B3010008B3010008B3010008B301000890
:10008000B3010008B3010008B3010008B301000880
:10009000B3010008B3010008B3010008B301000870
:1000A000B3010008F11B0008B3010008B301000808
:1000B000FD1B0008091C0008B3010008B30100087B
:1000C000B3010008B3010008B3010008B301000840
:1000D000B3010008B3010008B3010008B301000830
:1000E000B3010008B3010008B3010008DFF80CD029
:1000F00000F088F8004800478D200008A013002079
:10010000224B19680868B0E8F00F80F30988BFF344
:100110006F8F4FF0000080F311884EF00D0E704786
:100120000000000006480068006880F3088862B696
:1001300061B6BFF34F8FBFF36F8F00DF00BF00BF0B
:1001400008ED00E0EFF30980BFF36F8F0F4B1A68E3
:1001500020E9F00F106008B54FF0500080F31188CF
:10016000BFF34F8FBFF36F8F02F0B8FC4FF000006A
:1001700080F31188BDE8084019680868B0E8F00FFE
:1001800080F30988BFF36F8F704700BFF400002031
:10019000EFF3058070470000064880470648004797
:1001A000FEE7FEE7FEE7FEE7FEE7FEE7FEE7FEE727
:1001B000FEE7FEE7A91B0008ED00000840EA010386
:1001C0009B0703D009E008C9121F08C0042AFAD20D
:1001D00003E011F8013B00F8013B521EF9D27047D1
:1001E000D2B201E000F8012B491EFBD27047002279
:1001F000F6E710B513460A4604461946FFF7F0FF26
:10020000204610BD064C074D06E0E06840F00103B3
:1002100094E8070098471034AC42F6D3FFF76AFF22
:10022000682E0008882E000870B58C1810F8015B45
:1002300015F0070301D110F8013B2A1106D110F87F
:10024000012B03E010F8016B01F8016B5B1EF9D183
:100250002B0705D40023521E0DD401F8013BFAE709
:1002600010F8013BCB1A921C03E013F8015B01F874
:10027000015B521EF9D5A142D8D3002070BDFEE724
:100280007047000010B564230122A021034800F04C
:10029000FFF908B1002010BD012010BD5801002059
:1002A0000EB5642392B28DE80E0002461023A02101
:1002B000034800F09DFA08B100200EBD01200EBDDC
:1002C0005801002070B5044600F0F6F80546601CA1
:1002D00002D004480078044400F0EEF8401BA0422D
:1002E000FAD370BDE40000202DE9F84FDFF890A1AB
:1002F00000220AF1040B144601274FF00F090BF1FD
:10030000040E00BF0B6807FA04F52B40AB4274D112
:10031000DFF870C14E68A6EB0C0866452BD00DDCEB
:10032000032E34D005DC36B3012E19D0022E2FD186
:100330001BE0112E16D0122E2AD119E0B8F5881F15
:1003400019D006DCB8F5803F15D0B8F5801F1FD155
:1003500011E0B8F5001F0ED0B8F5041F18D10AE05F
:10036000CA6815E0CA68121D12E0CA6808320FE0B8
:10037000CA680C320CE08A682AB1012A4FF00802E0
:1003800003D0456104E0042202E0056100E00022A0
:10039000FF2B01D8064601E000F104064FEA840570
:1003A00001D9A5F12005D6F800C009FA05F82CEA14
:1003B000080C02FA05F54CEA050CC6F800C04D68B9
:1003C000ED0057D5304DAE6946F00106AE61AD691E
:1003D00024F0030605F0010500952C4D06EB050CF5
:1003E000DCF80850A6074FEA167809FA08F6B54374
:1003F000274EB04202D1002610E03BE0254EB0422D
:1004000001D101260AE0244EB04201D1022605E0C6
:10041000224EB04201D1032600E0042606FA08F677
:100420002E43CCF808604D68DAF80060ED035546BD
:1004300001D51E4300E09E432E604D68DBF800604E
:10044000AD035D4601D51E4300E09E432E604D681E
:10045000DEF80060ED02754601D51E4300E09E43C4
:100460002E604D68AD020E4D2E6801D51E4300E092
:100470009E432E60641C102CFFF444AFBDE8F88F3F
:100480000004014000001110001002400000014073
:1004900000080140000C0140001001400014014020
:1004A0000C0401408068084000D0012070470AB168
:1004B000016170470904FBE701488068704700004C
:1004C000E400002030B51E4D03681E4C12210322AB
:1004D0001D4885B0AB4216D1E36943F40013E361D4
:1004E000E369039203F400130493C023CDE90031C0
:1004F0006946FFF7F9FEE06940F40010E061E06949
:1005000000F4001019E0114DAB4217D1E36943F438
:100510008003E361E369039203F4800304934FF4DF
:100520004063CDE900316946FFF7DEFEE06940F443
:100530008000E061E06900F48000049005B030BD07
:100540000054004000100240000C014000580040E0
:1005500070B504001BD094F83D00002520B984F844
:100560003C50204600F054FA242084F83D002068D6
:10057000016821F00101016000F002FC404A61685D
:10058000914201D83F4900E03F49884201D2012011
:1005900070BD3E492368B0FBF1F159606368934236
:1005A00006D94FF4967359434FF47A73B1FBF3F1C4
:1005B0002368491C19626168914210D84900401EA5
:1005C000B0FBF1F2521CC2F30B02042A01D2042048
:1005D00022E0B0FBF1F0401CC0F30B001CE0A3686C
:1005E000CBB301EBC10202EB0116421EB2FBF6F2E5
:1005F000521C42F48042120536D06BB301EBC102AB
:1006000002EB0111401EB0FBF1F0401CC0F30B00E7
:1006100040F4804040F400402168C861D4E90701FB
:10062000084321680860D4E9031008432168886002
:10063000D4E9050108432168C8602068016841F0D9
:10064000010101602564202084F83D00256384F8C1
:100650003E50002070BD00E008E001EB4106421E64
:10066000B2FBF6F2521CC6E70120D5E701EB4101CF
:10067000401EB0FBF1F0401CC0F30B00CAE70000C5
:10068000A086010080841E0000093D0040420F004A
:100690002DE9FF4F81B099468B4604464FF0010883
:1006A000FFF70AFF054694F83D0020287BD1192367
:1006B00001224D492046009501F068F8002872D1CA
:1006C00094F83C0001286ED0012084F83C0020689A
:1006D0000168C90703D1016841F001010160206888
:1006E000016821F400610160242084F83D000026A7
:1006F00026643E48E06220272068016841F480714A
:1007000001604B4600224FF001112046009501F098
:100710003DF8002858D121680BF0FE000861FFF772
:10072000CBFE2168054648694969C0F3400094F84A
:100730003D20C1F380214FF0A00A12E0B9F1000F73
:1007400004D0FFF7B9FE411B494501D984F83DA00B
:10075000216848694969C0F3400094F83D20C1F31D
:100760008021084301D1A02AE8D184F83D70206897
:100770004169C943890717D4016841F400710160D8
:100780002068416980691923012217492046009594
:1007900000F0FCFFC0B984F83D7084F83C60002094
:1007A00005B0BDE8F08F1DE0016841F40071016003
:1007B00021686FF480604861192301220A492046AC
:1007C000009500F0E3FF08B10320E9E741460398F4
:1007D00008F1010881428FD384F83D7084F83C60B1
:1007E0000120DDE70220DBE7020010000000FFFF30
:1007F0002DE9FF4F83B09A46DDE911879346044601
:10080000DDF84090FFF758FE054694F83D0020289B
:1008100072D1192301227B492046009500F0B6FFD2
:100820000028F5D194F83C00012865D0012084F817
:100830003C0020680168C90703D1016841F001014B
:1008400001602068016821F400610160222084F8C1
:100850003D00402084F83E0000262664C4F8249021
:10086000A4F82A806848E062608D2085CDE9007593
:1008700053465A462046049900F010FF28B1206CD8
:1008800084F83C60042851D075E0208DDFF87C812D
:1008900068B1012814D00228206801681ED041F4F4
:1008A0008061016020684169806900909BE0206858
:1008B000416981690091016841F40071016092E031
:1008C0002068016821F48061016072B62068416986
:1008D00081690091016841F400710AE041F400610E
:1008E000016072B62068416981690091016821F454
:1008F0008061016062B676E081E0032850D801286B
:100900000BD002283B464FF000024146204600959E
:1009100012D000F03BFF70BB13E02A463946204658
:1009200000F0A8FF30B1206C202824D0012007B0AF
:10093000BDE8F08F20684BE000F028FFD8B972B610
:100940001BE02068016821F48061016072B62068B4
:100950000169606A421C62620170208D401E208520
:10096000608D401E60853B46002241462046009532
:1009700000F00CFF08B10320D9E72068016841F4BA
:100980000071016020680169606A421C6262017046
:10099000208D401E2085608D401E608562B6C9E7AF
:1009A0002A463946204600F065FF0028BBD1206862
:1009B0000169606A421C62620170208D401E2085C0
:1009C000608D401E608520684169C94349070AD48B
:1009D0000169606A421C62620170208D401E2085A0
:1009E000608D401E6085208D002886D1202084F8EF
:1009F0003D0084F83E6084F83C60002097E70220C8
:100A000095E70000020010000000FFFF0400010055
:100A100010B586B000210091019102910391006808
:100A20000F4988421AD10F4CA06940F00800A0611C
:100A3000A069694600F008000490C02000901220D0
:100A40000190032003900848FFF74EFCE06940F452
:100A50000010E061E06900F40010049006B010BDE1
:100A60000054004000100240000C01400248816820
:100A70000278114481607047E4000020074810B5F7
:100A8000016841F010010160032000F091F800209E
:100A900000F006F800F03EF8002010BD00200240F3
:100AA00000B5014687B00022192000F061F8192036
:100AB00000F052F81348816941F400618161806956
:100AC00005A900F400600690684600F039F900F0CE
:100AD00067F90D490D4AB0FBF1F10D48491E02605E
:100AE000416040F2E7320021C0E90321816000F05B
:100AF00049FB10B1012007B000BD054800F08EFB96
:100B0000F9E700000010024040420F00002C0140B5
:100B10006C0200200E4808B5816941F00101816135
:100B2000816901F001010091C16941F08051C16109
:100B3000C069002200F0805000900F21901E00F04C
:100B400017F80448416821F0E061416008BD0000E9
:100B5000001002400000014000F01F0201219140FE
:100B60004009800000F1E020C0F80011704700004B
:100B7000F0B40E4B1B680C46C3F30223C3F1070508
:100B8000042D00D90425191D072901D2002300E0F6
:100B9000DB1E012606FA05F1491E214099409E40C0
:100BA000761E16403143F0BC00F050BF0CED00E063
:100BB000064900F0070208684FF6FF03184040EAB4
:100BC0000220034A10430860704700000CED00E06B
:100BD0000000FA052DE9F047DFF8548105460E467E
:100BE000D8F8000000F00700B0420CD2D8F800108E
:100BF00021F007013143C8F80010D8F8000000F0D8
:100C00000700B0426FD128684A4C810712D54007CF
:100C100003D5606840F4E06060602878000703D581
:100C2000606840F4605060606068A96820F0F0007F
:100C3000084360602878C00744D06868012816D04F
:100C40002168022816D0890700294CDA616821F052
:100C5000030101436160FFF72FFC6968074641F219
:100C6000883001290ED00229814618D026E021685B
:100C70008903E9E78901E7E7FFF71EFCC11B494546
:100C800001D918E081466068C0F381000128F3D1E2
:100C900018E000BFFFF710FCC11B49450BD8606886
:100CA000C0F381000228F5D10CE000BFFFF704FC7F
:100CB000C11B494502D90320BDE8F087606810F0E8
:100CC0000C0FF3D1D8F80010404601F00701B142F3
:100CD0000BD9016821F0070131430160006800F081
:100CE0000700B04201D00120E6E72878400705D58B
:100CF0006068E96820F4E0600843606028780007D5
:100D000006D56068296920F4605040EAC10060603F
:100D100000F056F86168084AC1F30311515CC840FD
:100D2000064908600020FFF7BBFE0020C4E7000072
:100D300000200240001002402C2E0008F00000208D
:100D40000F2202600C4A536803F0030343605368A8
:100D500003F0F0038360536803F4E063C3605268F8
:100D60004FF4E06303EAD20202610448006800F035
:100D70000700086070470000001002400020024099
:100D80000448054900684968044AC1F30221515CDE
:100D9000C8407047F0000020001002403C2E0008C0
:100DA0000448054900684968044AC1F3C221515CFE
:100DB000C8407047F0000020001002403C2E0008A0
:100DC00012A185B00FC98DE80F0014A0144A006865
:100DD00004905168134801F00C03042B10D0082B29
:100DE0000ED1C1F38343C9031DF803000AD551682E
:100DF00004AAC1F34041515C0A4A5043B0FBF1F0F0
:100E000005B0704708494843FAE7000002030405AB
:100E1000060708090A0B0C0D0E0F10100102000046
:100E20000010024000127A0000093D002DE9F84F41
:100E300004460078B94DC00748D06868C0F3810007
:100E4000012807D06868C0F38100022809D16868CA
:100E5000C00306D52868800338D5606800286FD0A5
:100E600034E06068B0F5803F0BD010B1B0F5A02F32
:100E700011D0286820F480302860286820F4802071
:100E800002E0286840F480302860606888B1FFF78D
:100E900013FB064609E0286840F480202860F0E74C
:100EA000FFF70AFB801B642875D828688003F7D5F4
:100EB0000CE0FFF701FB064605E000BFFFF7FCFA78
:100EC000801B6428F0D828688003F7D42078944EDB
:100ED00080074FF001094FF000083BD5686810F01B
:100EE0000C0F07D06868C0F38100022809D1686838
:100EF000C00306D42868800714D5206901281FD1B3
:100F000010E02069B0B1C6F80090FFF7D5FA0746A7
:100F100005E000BFFFF7D0FAC01B0228C4D828683C
:100F20008007F7D52868616920F0F80040EAC10021
:100F300028600FE0C6F80080FFF7BEFA074606E01B
:100F4000E9E000BFFFF7B8FAC01B022823D82868E1
:100F50008007F7D4207800072CD57248A169D9B151
:100F6000C0F80090FFF7A8FA074604E0FFF7A4FADC
:100F7000C01B02280FD8686A8007F7D56A484FF46B
:100F8000FA510068B0FBF1F0009000BF0098411EDC
:100F90000091FAD20EE080E0C0F80080FFF78CFAF2
:100FA000074604E0FFF788FAC01B022875D8686A74
:100FB0008007F7D42078400760D5E8690027C00093
:100FC00008D4E86940F08050E861E869012700F042
:100FD0008050009055480168C90513D401688346C4
:100FE00041F480710160FFF767FA824606E000BFB6
:100FF000FFF762FAA0EB0A0064284ED8DBF8000085
:10100000C005F5D5E06801280AD008B1052813D03D
:10101000286A20F001002862286A20F0040002E01B
:10102000286A40F001002862E06841F2883B98B1EC
:10103000FFF742FA82460BE0286A40F0040028627B
:10104000EEE700BFFFF738FAA0EB0A0159455AD87E
:10105000286A8007F6D50CE0FFF72EFA824605E0F5
:10106000FFF72AFAA0EB0A0159454CD8286A8007F5
:10107000F6D41FB1E86920F08050E861E06988B3D8
:101080006968C1F38101022945D00228C6F8608051
:1010900004D0FFF711FA044638E034E0FFF70CFA09
:1010A000074604E0FFF708FAC01B02282BD828687F
:1010B0008001F7D4206AB0F5803F05D16868A16847
:1010C00020F4003008436860D4E9080108436968E7
:1010D00021F4741108436860C6F86090FFF7ECF9DA
:1010E000044606E015E000BFFFF7E6F9001B022802
:1010F00009D828688001F7D50BE000BFFFF7DCF9BD
:10110000001B022802D90320BDE8F88F286880015F
:10111000F4D40020F8E70120F6E7000000100240B8
:101120000000424280044242F00000200070004073
:101130007047704730B590F83C20012A20D001223A
:1011400080F83C20022380F83D3003685C6824F07E
:1011500070045C6003685C680D682C435C60036825
:101160009C6824F080049C6003689C6849680C4378
:101170009C6080F83D20002180F83C10084630BD7E
:10118000022030BD10B5040003D094F83D0010B12A
:1011900007E0012010BD002084F83C00204600F04C
:1011A0000DF8022084F83D00211D206800F032FD7A
:1011B000012084F83D00002010BD000008B5016842
:1011C0001448B1F1804F14D0134A914220D1C16923
:1011D00041F00201C161C069002200F002000090EC
:1011E00005211D20FFF7C4FC1D20BDE80840FFF7C6
:1011F000B3BCC16941F00101C161C069002200F0C6
:101200000100009005211C20FFF7B2FC1C20ECE738
:1012100008BD000000100240000400400168CA68D8
:1012200042F00102CA600068016841F001010160FA
:101230000020704770B5044690F83C00012817D094
:10124000012584F83C50022084F83D002068826823
:1012500022F0770222F47F4282600868502837D05B
:101260000DDC202859D005DC88B3102841D151E08D
:10127000022070BD302853D040283AD13FE060288A
:101280002ED070280BD0B0F5805F03D0B0F5005F92
:101290002FD110E02068816821F0070115E0CB68AC
:1012A000D1E90121206800F0EBFC2168886840F05A
:1012B000770088601DE0CB68D1E90121206800F04B
:1012C000DFFC2068816841F48041816011E01EE00C
:1012D000CA684968206800F0E5FC5021206806E0F3
:1012E000CA684968206800F0EEFC6021206800F0C0
:1012F000D1FC84F83D50002084F83C0070BDCA68E1
:101300004968206800F0CEFC40212068EFE700210A
:101310002068ECE710212068E9E720212068E6E753
:1013200030212068E3E7704770B504460068016922
:101330004FF00005C943890715D4C168C94389071F
:1013400011D4E91E0161012020772068806980079F
:10135000204602D0FFF7E7FF04E000F098F82046AF
:1013600000F096F8257720680169C943490717D42A
:10137000C168C943490713D46FF004010161022019
:1013800020772068806910F4407F204602D0FFF764
:10139000CAFF04E000F07BF8204600F079F82577DA
:1013A00020680169C943090716D4C168C943090700
:1013B00012D46FF008010161042020772068C06911
:1013C0008007204602D0FFF7AEFF04E000F05FF890
:1013D000204600F05DF8257720680169C943C906F9
:1013E00017D4C168C943C90613D46FF01001016155
:1013F000082020772068C06910F4407F204602D082
:10140000FFF791FF04E000F042F8204600F040F8BA
:10141000257720680169C943C90708D1C168C94354
:10142000C90704D1891E0161204600F033F8206805
:101430000169C943090609D4C168C943090605D42D
:101440006FF0800101612046FFF772FE206801699C
:10145000C943490609D4C168C943490605D46FF098
:1014600040010161204600F03DF820680169C94350
:1014700089060BD4C168C943890607D46FF02001DF
:1014800001612046BDE87040FFF753BE70BD704754
:101490007047000010B504460068B0F1804F01D1DC
:1014A00000F008FB0C492068884201D1FFF7DEFA02
:1014B0000A49206888420ED109480189B1F57A7F2E
:1014C00001D9002101810179012901D10189C1805E
:1014D0000189491C018110BD002C0140000400401D
:1014E00000000020704770B5040004D094F8390063
:1014F000002510B106E0012070BD84F83850204668
:1015000000F022F8242084F839002068C16821F412
:101510000051C160204600F099FC2068016921F467
:10152000904101612068416921F02A0141612068F0
:10153000C16841F40051C160E563202084F839009E
:1015400084F83A00002070BD30B585B000240094C6
:1015500001940294039400681449884224D11448E9
:10156000816941F480418161816901F48041049184
:10157000816941F00401816180690E4D00F0040031
:1015800004904FF40070009002200190032003901B
:1015900069462846FEF7A8FE2815CDE900046946ED
:1015A00028460294FEF7A0FE05B030BD0038014089
:1015B00000100240000801402DE9F843044690F86D
:1015C00039001F4616460D46202850D1A5B19EB1C0
:1015D00094F8380001284AD0012084F838004FF0F0
:1015E0000008C4F83C80212084F83900FEF764FF2D
:1015F000A6848146E68426E00120BDE8F883E08CDD
:10160000401EE084A0684B46B0F5805F4FF00002BA
:101610004FF080012046009703D000F0CFFCE8B9DE
:101620000DE000F0CBFCC8B928882168C0F30800A1
:101630004860206908B16D1C05E0AD1C03E021681D
:1016400015F8010B4860E08C0028D8D14B460022E9
:1016500040212046009700F0B1FC08B10320CCE700
:10166000202084F8390084F838800020C5E7022063
:10167000C3E7FEE701684A69D24352050CD46FF410
:1016800080624A6104210164002140F8301F202259
:101690004273017301207047002070472DE9F84F15
:1016A0000446006889460B9D01689846174641F438
:1016B000806101602068016841F4807101600095DB
:1016C0004FF0011A0022514620460A9B00F05EF8B6
:1016D000F0BB216809F0FE0008610AF1010B2B46FE
:1016E000594620460A9A00F081F818B1206C042867
:1016F00012D03AE020684169806900902A4620466D
:101700000A9900F0E8F850B1206C04282DD1206827
:10171000016841F4007101600120BDE8F88FFEB25C
:10172000B8F1010F09D02168380A08612A4620461D
:101730000A9900F0D0F80028E6D1206806612A4610
:1017400020460A9900F0C7F80028DDD1206800E0A3
:101750000BE0016841F48071016000950022514660
:1017600020460A9B00F012F808B10320D5E7216853
:1017700009F0FF0040F0010008612B465946204661
:101780000A9A00F033F80028B0D1C6E72DE9F047F7
:101790001E4690460D460446C1F30747DDF82090EB
:1017A00012E0701C10D02EB1FEF786FEA0EB0900EF
:1017B000B04209D9002044F8300F20216173A07392
:1017C00020730320BDE8F0872068012F0AD08069CC
:1017D00025EA00000004000C06D000214145E0D0BD
:1017E0000020EFE74069F3E70121F7E72DE9F04733
:1017F0009A4691460D46044600264FF02008C1F354
:1018000007472AE020684069C043400512D4206899
:10181000016841F40071016021686FF480604861E3
:1018200004202064266384F83D8084F83C60012015
:10183000BDE8F087B9F1FF3F0FD0B9F1000F05D037
:10184000FEF73AFEA0EB0A01494506D944F8306F8D
:1018500084F80D8026730320EAE72068012F07D063
:10186000D0F8180025EA00000004000CE0D0C9E719
:101870004069F7E72DE9F041002590460E46044601
:10188000202721E04069C043C0060CD421686FF0D6
:10189000100048612564256384F83D7084F83C504D
:1018A0000120BDE8F0812EB1FEF706FEA0EB080096
:1018B000B04209D954F8400F40F0200044F8040920
:1018C000677025700320ECE720684169C943490629
:1018D000D8D40020E5E770B516460D4604461AE058
:1018E0002046FFF7C7FE08B1012070BD681C12D06A
:1018F00025B1FEF7E1FD801BA8420CD954F8400F3A
:1019000040F0200044F8100900202060202161737D
:101910002073032070BD20684069C0430006DFD4F7
:10192000002070BD30B51B488DB0816941F00401C5
:101930008161816901F004010C91816941F0080124
:101940008161816901F008010C91816941F0100108
:10195000816180690124FF2500F01000CDE9005469
:101960000C9069460C480394FEF7BEFC0020CDE9BC
:10197000045004A907940948FEF7B6FC4FF6FF701F
:10198000CDE9080408A906480B94FEF7ADFC0DB09C
:1019900030BD00000010024000080140000C014072
:1019A0000010014010B586B0002411480094019445
:1019B0000294039404944FF080410594016047F62B
:1019C000FF41C0E901140521C0E903148461FFF758
:1019D000D9FB4FF48050009069460548FFF72AFC78
:1019E000049404A902480594FFF7A4FB06B010BDB7
:1019F000AC01002010B586B0002412480094019478
:101A00000294039404940E490594016047F6FF4143
:101A1000C0E90114C821C0E903148461FFF7B2FBD7
:101A20004FF48050009069460648FFF703FC049489
:101A300004A904480594FFF77DFB06B010BD000023
:101A400000040040EC010020FEE770470907090E82
:101A5000002806DA00F00F0000F1E02080F8141DE5
:101A6000704700F1E02080F80014704710B542F292
:101A70000F71884200D900204FF47A71B0FBF1F267
:101A800001FB12016423B1FBF3F209494A714C795D
:101A90000A2204B94A71B0FBF3F403FB1403B3FB4D
:101AA000F2F38B71B0FBF2F302FB1300C87110BDAF
:101AB0002400002030B51A48427801219140194A8B
:101AC000116044781849194B00F12402062C01D109
:101AD00004792CB14478062C02D10479012C12D05F
:101AE000CC6804F47F44CC60CC684578525D9A5C45
:101AF0001443CC604178491C41704178072901D9D1
:101B00000021417030BDCC6804F47F44CC60CC68C7
:101B10004578525D9A5C144344F08002CA60E9E75C
:101B2000000000200C08014000100140902D00082A
:101B300010B5502080F31188BFF34F8FBFF36F8F24
:101B400001F060F818B104494FF08050086000209F
:101B500080F3118810BD000004ED00E030B58FB0B7
:101B600028216846FEF743FB14210AA8FEF73FFB35
:101B700002240120049000941020059000254FF4C9
:101B80006010CDE9085007946846FFF74FF90AA99D
:101B90000F2081E831006002CDE90D0502210AA87D
:101BA000FFF718F80FB030BD0D48016841F0010192
:101BB000016041680B4A1140416001680A4A1140C6
:101BC0000160016821F480210160416821F4FE0177
:101BD00041604FF41F0181600449C00308607047F1
:101BE000001002400000FFF8FFFFF6FE08ED00E0E5
:101BF0000148FFF799BB00006C0200200148FFF785
:101C000093BB0000AC0100200148FFF78DBB000032
:101C1000EC010020F0B50268164B174C174D4FF041
:101C20008047984205D0B84203D0A04201D0A842D4
:101C300003D122F070064A683243984205D0B84278
:101C400003D0A04201D0A84203D122F44074CA6854
:101C5000224322F080044A69224302608A68C262F9
:101C60000A688262984201D10969016301214161D8
:101C7000F0BD0000002C01400004004000080040BE
:101C800010B5846842EA032224F47F440A432243C5
:101C9000826010BD826822F070020A4342F00701A0
:101CA0008160704710B5036A046A24F0010404627D
:101CB000846924F0F00444EA021423F00A020A437F
:101CC0008461026210BD10B5036A23F01003036241
:101CD0008369046A23F4704343EA023224F0A003C8
:101CE00043EA01118261016210BD000070B50A4D26
:101CF000044601212846FEF7D5FB08490C4430B1C3
:101D000002212846FEF7CEFB20B1FF2070BD14F85B
:101D1000010C70BDE07970BD000C01402C0000206A
:101D200010B5012000F036F80120FFF7DFFFFF2893
:101D30002FD1022000F02EF80220FFF7D7FFFF2856
:101D400027D1032000F026F80320FFF7CFFFFF285C
:101D50001FD1042000F01EF80420FFF7C7FFFF2862
:101D600017D1052000F016F80520FFF7BFFFFF2868
:101D70000FD1062000F00EF80620FFF7B7FFFF286E
:101D800007D1072000F006F8BDE810400720FFF754
:101D9000ADBF10BD2DE9F05F01222B4D04461602A8
:101DA00031462846FEF783FB012257023946284672
:101DB000FEF77DFB4FF48068012241462846FEF77E
:101DC00076FB4FF40069012249462846FEF76FFB77
:101DD0004FF4805A012251462846FEF768FB4FF423
:101DE000005B012259462846FEF761FB0122910360
:101DF0002846FEF75CFB012C12D0022C13D0032CDA
:101E000014D0042C15D0052C16D0062C17D0072C76
:101E100018D10022B1012846BDE8F05FFEF747BBAC
:101E200000223146F7E700223946F4E70022414616
:101E3000F1E700224946EEE700225146EBE7002297
:101E40005946E8E7BDE8F09F001001402DE9F04158
:101E5000044600680169E26821F4405111430161C0
:101E60002169A0680843616908432168CA6841F292
:101E70000C639A430243CA6020684169A26921F455
:101E80004071114341614C492068642532268842E3
:101E90003CD1FEF785FF00EBC00101EB001061684B
:101EA0008900B0FBF1F7FEF77BFF00EBC00101EB0F
:101EB00000106168B0468900B0FBF1F0B0FBF5F0AE
:101EC0006FF01801484307EB800106EB0110B0FBEF
:101ED000F5F000F0F006FEF763FF00EBC00101EB48
:101EE000001061688900B0FBF1F0B0FBF5F006EB83
:101EF0000016FEF755FF00EBC00101EB0010616812
:101F00008900B0FBF1F7FEF74BFF3BE0FEF738FF2F
:101F100000EBC00101EB001061688900B0FBF1F734
:101F2000FEF72EFF00EBC00101EB00106168B04628
:101F30008900B0FBF1F0B0FBF5F06FF018014843F9
:101F400007EB800106EB0110B0FBF5F000F0F006A6
:101F5000FEF716FF00EBC00101EB0010616889007D
:101F6000B0FBF1F0B0FBF5F006EB0016FEF708FF52
:101F700000EBC00101EB001061688900B0FBF1F7D4
:101F8000FEF7FEFE00EBC00101EB00106168890066
:101F9000B0FBF1F0B0FBF5F06FF01801484307EB30
:101FA000800108EB0110B0FBF5F0216800F00F0094
:101FB00030448860BDE8F081003801402DE9F041EF
:101FC000984617460E460446069D1DE0681C1BD029
:101FD0002DB1FEF771FAA0EB0800A84214D92068D1
:101FE000C16821F4D071C1602068416921F001010C
:101FF0004161202084F8390084F83A00002084F8F8
:1020000038000320BDE8F0812068006836EA00004F
:1020100004D00020B842D9D00020F3E70120F9E72E
:10202000FEE70000014A024900F013B875200008DD
:102030005401002002E008C8121F08C1002AFAD18A
:1020400070477047002001E001C1121F002AFBD138
:1020500070472DE9F04116460F460446002503E07F
:102060003946B047641C6D1C20780028F8D12846FA
:10207000BDE8F08113B56423012269460248FFF7E9
:102080009BFA00981CBD00002C02002090B0FEF7C7
:10209000F5FCFFF763FDFFF745FC5D485B49002455
:1020A00001604FF4E131C0E901140C21C460C0E9C2
:1020B00004418461C461FFF716FA55485549D43884
:1020C000016046F2A811C0E901144FF48041C0E953
:1020D000034144618461C4610462FEF739FAFFF789
:1020E00061FCFFF787FC4A488038FFF797F84848BB
:1020F0004038FFF793F84648D438FEF7E3F902E09A
:102100006420FEF7DFF8FEF7BDF80028F8D00F22B4
:1021100041490020FEF7C4F86420FEF7D3F83E4999
:102120000F220F311020FEF7BBF86420FEF7CAF82B
:1021300039490F221E312020FEF7B2F86420FEF745
:10214000C1F835490F222D313020FEF7A9F864205F
:10215000FEF7B8F830490F223C314020FEF7A0F8D6
:102160006420FEF7AFF82C490F224B315020FEF7C8
:1021700097F86420FEF7A6F827490F225A3160200D
:10218000FEF78EF86420FEF79DF823490F2269318F
:102190007020FEF785F86420FEF794F81E490F22A0
:1021A00078318020FEF77CF86420FEF78BF81A491E
:1021B0000F2287319020FEF773F86420FEF782F833
:1021C000142216496846FDF7F9FF0021684600F021
:1021D00039F8114C11494B3C1422A061143105A867
:1021E000FDF7ECFF002105A800F02CF80B49E06199
:1021F000142228310AA8FDF7E1FF00210AA800F007
:1022000021F8206200F019F8FEE7000000380140D4
:102210002C020020005400404B000020F02D00084C
:1022200001460020842900D0C81C704710B500B9B1
:10223000012000F0F1FB002010BD10B500F012FCF1
:10224000002010BD3EB504460D46B0F90800FFF76A
:10225000E7FF02A9CDE90001208A2B4682B2D4E92A
:10226000001000F0A3FC012801D000203EBD029820
:102270003EBD00002DE9F041184C0F460546E668CA
:102280002068001D00F012FB38B9206890F82C106F
:1022900001208840216981432161681C07D137B141
:1022A0002168BDE8F0410E48091D00F037BB2068E9
:1022B0003544B5424560216805D2A06BBDE8F041C8
:1022C000091D00F013BB606B091D00F00FFBA06A35
:1022D000854200D2A562BDE8F0810000F400002034
:1022E000880300202DE9F041054600F023FB2E4C29
:1022F000A068401CA06020682C4F10B1606940B3FA
:102300002DE02560A068012829D1002606EB860073
:1023100007EB800000F0DCFA761C072EF6D323488A
:102320008C3000F0D5FA2148A03000F0D1FA1F48D7
:10233000B43000F0CDFA1D48C83000F0C9FA1B488F
:10234000DC3000F0C5FA19488C3060631430A063AB
:1023500005E02068E96AC06A884200D82560606AA2
:10236000401C6062E96A01202269884010432061B4
:1023700001EB810007EB8000291D00F0CFFA00F08F
:10238000F9FA606900280CD02068E96AC06A8842BE
:1023900007D207494FF080500860BFF34F8FBFF35B
:1023A0006F8FBDE8F0810000F4000020AC02002037
:1023B00004ED00E070B5114E114C17E000F086FB03
:1023C0003068B8B100F082FC00F0B4FAF068C5687B
:1023D000281D00F06BFAA068401EA0606068401ED7
:1023E000606000F0C7FA284600F00CF8606800282A
:1023F000E4D170BD00F06AFCF8E70000740300202F
:10240000F400002010B50446006B00F0C7FA204627
:10241000BDE8104000F0C2BA10484FF440614207D6
:1024200006D0C01D0D4920F00700411AC1F54061DA
:102430000B4A00230144C2E900030839103A21F095
:10244000070111604B600B600B1AC0E90013936029
:102450004FF000405360D060704700009C030020A4
:1024600040010020074C4FF08056074DFFF7A2FFB8
:1024700020680128FAD92E60BFF34F8FBFF36F8F0A
:10248000F4E70000AC02002004ED00E02DE9F04785
:102490009A46DDE9098481466FF00303206B03EB64
:1024A00082021044089D20F00706700707D05020D4
:1024B00080F31188BFF34F8FBFF36F8FFEE72318B0
:1024C0000A5C83F834200A5C12B1401C1028F6D351
:1024D000002784F84370072D00D30625E562C4E980
:1024E0001157201D00F0FFF904F1180000F0FBF96E
:1024F0002461C5F107006462A061E76484F850704C
:1025000052464946304600F0BFF82060B8F1000F4F
:1025100001D0C8F80040BDE8F087000030B511498F
:1025200000E011460A688242FBD34B685C18844283
:1025300003D1406818444860084643681C18944218
:1025400009D1084C103C2468A24209D052681A44B0
:1025500042600A6812680260814200D0086030BDA3
:102560000460F9E7400100200648416B096829B181
:10257000416BC968C9684968816270474FF0FF3193
:10258000FAE70000F400002008484068401C4FF0C3
:10259000500080F3118804D0BFF34F8FBFF36F8FCB
:1025A000FEE7BFF34F8FBFF36F8FFEE748010020B8
:1025B0002DE9F0410546002700F088FA314E3068D9
:1025C00008B9FFF729FFF06805424BD1C5B30835BC
:1025D00068070ED005F00700C0F108000544680741
:1025E00007D0502080F31188BFF34F8FBFF36F8F58
:1025F000FEE72DB37068854234D82248103001467A
:102600000C6801E020460C466168A94202D22168AC
:102610000029F7D131688C4224D007682168016015
:1026200060680837411B10290FD96019420708D08C
:10263000502080F31188BFF34F8FBFF36F8FFEE7F9
:1026400010E041606560FFF769FF61687068401ADB
:102650007060B268904200D2B060F0680143002020
:10266000C4E9000100F032FB780707D0502080F366
:102670001188BFF34F8FBFF36F8FFEE73846BDE879
:10268000F08100003001002010B5031F4FF080746E
:102690001C601B1F21F001011960191F024B0B6008
:1026A000143940380A6010BD892500080BA0FFF7D7
:1026B000B9FC13A0FFF7B6FC17A0FFF7B3FC22A0EC
:1026C000FFF7B0FC264C2079012802D1E088FFF703
:1026D000CDF90A20FFF7AAFDF5E700004465766909
:1026E00063653A20647275672070726F64756374F5
:1026F00020636F6E74726F6C6C65720D0A0000005F
:102700005265766973653A2032382F30342F323073
:1027100031390D0A00000000437573746F6D6572E6
:102720003A20446F616E2056616E204C756F6E6763
:1027300040446F6D6573636F20446F6E672054680B
:1027400061700D0A0000000044657369676E657270
:102750003A2070686F6E676E68333238390D0A0040
:1027600000000020494C002504F124060A27E078E7
:10277000012803D085E06420FDF7A4FDFDF782FD6C
:102780000028F8D060794FF6FF71401E01EA001072
:102790003E490F223C31FDF783FD3C4864223C302A
:1027A00001785143427802EB820201EB42018278C8
:1027B00011446181C17864225143027902EB8202A3
:1027C00001EB420142791144A18181796422514394
:1027D000C27902EB820201EB4201027A1144E181EB
:1027E000417A64225143827A02EB820201EB420178
:1027F000C27A11442182017B64225143427B807B57
:1028000002EB820201EB4201084460822581E580EF
:10281000012020710B2030707770B770F7706089DD
:1028200021898842FBD12581E5800C203070A08968
:1028300021898842FBD12581E5800D203070E08917
:1028400021898842FBD12581E5800E203070208AC5
:1028500021898842FBD12581E5800F203070608A74
:1028600021898842FBD1E57025711D2030701E2022
:1028700070701920B0701A20F07037717771B771CD
:10288000F7710120FFF7D2FC71E700000000002083
:10289000054C00BFFFF744FA2070FF2800D0A0705D
:1028A0006420FFF7C3FCF5E700000020D0E9013207
:1028B00001699A60D0E901235A604A68824201D1D5
:1028C00082684A60002202610868401E0860704702
:1028D00000F108014FF0FF32C0E90112C16001614F
:1028E00000210160704700210161704730B50B681D
:1028F0005A1C02D000F1080202E0026904E02246FC
:10290000546825689D42FAD953684B6099608A6083
:10291000516008610168491C016030BD42684A602D
:1029200093688B6093685960916008610168491CE5
:1029300001607047502080F31188BFF34F8FBFF3C1
:102940006F8F0A494868401C486001280CD108482C
:10295000006810F0FF0F07D0502080F31188BFF3FC
:102960004F8FBFF36F8FFEE77047000048010020D4
:1029700004ED00E00849486828B1401E486001D1D4
:1029800080F311887047502080F31188BFF34F8F78
:10299000BFF36F8FFEE700004801002070B50028EC
:1029A00027D0144DA0F108046168E868014207D1FE
:1029B000502080F31188BFF34F8FBFF36F8FFEE776
:1029C00022683AB1502080F31188BFF34F8FBFF3D4
:1029D0006F8FFEE78143616000F078F86068696896
:1029E000084468602046FFF799FDBDE8704000F09C
:1029F0006DB970BD3001002006484FF47A7100684F
:102A0000B0FBF1F14FF0E020491E41610721016167
:102A100070470000F000002010B5020014D00F48ED
:102A2000006B38B1502080F31188BFF34F8FBFF394
:102A30006F8FFEE700F04AF800211046FFF71AFCFE
:102A400000F044F9002807D105494FF08050086094
:102A5000BFF34F8FBFF36F8F10BD0000F400002055
:102A600004ED00E01CB515480024CDE900402346E4
:102A7000802213A1144800F099F8012809D0401CC5
:102A80001AD1502080F31188BFF34F8FBFF36F8F9F
:102A9000FEE7502080F31188BFF34F8FBFF36F8F95
:102AA00006484FF0FF312C38816201214161C4603A
:102AB000BDE81C4000F040B81CBD00002001002013
:102AC00049444C4500000000652400080248016BA1
:102AD000491C016370470000F40000201448016B9A
:102AE00011B10121C16170470021C1610169B1FAD1
:102AF00081F1C1F11F0101EB81020E4951F8223031
:102B00006BB101EB820101F108034A6852684A6027
:102B10009A4201D152684A60D168016070475020E2
:102B200080F31188BFF34F8FBFF36F8FFEE7000074
:102B3000F4000020AC0200201CB51949087801906F
:102B4000FF20087008788DF800009DF80000154AF5
:102B500000F0500010700720906005E09DF80030F4
:102B60005B008DF80030401E9DF800301B06F5D448
:102B7000000200F4E0609060019808700A48016863
:102B800041F470010160016841F070410160FFF79C
:102B900033FF00205060FDF7C5FA00201CBD000087
:102BA00000E400E04801002020ED00E02DE9FF5F97
:102BB0008346DDE90E87994616468A469000FFF760
:102BC000F7FC05001AD05420FFF7F2FC040012D0E5
:102BD00025630021CDE90241CDE900874B4632460D
:102BE00051465846FFF752FC2046FFF77BFB012079
:102BF00004B0BDE8F09F2846FFF7D0FE4FF0FF304D
:102C0000F6E700002DE9F0412E4C0027206B40B183
:102C1000A069401CA061E06900B101273846BDE809
:102C2000F081E668761CE66013D1606B006838B10D
:102C3000502080F31188BFF34F8FBFF36F8FFEE7F3
:102C4000606BA16B6163A063206A401C2062FFF788
:102C50008BFCA06ADFF87080864209D3606B006845
:102C600080B1606BC068C568686886420DD2A0629A
:102C70002068C06A00EB800158F821000128CAD9F9
:102C80000127C8E74FF0FF30F1E7281DFFF70EFEE0
:102C9000A86A18B105F11800FFF708FEE86A0121DB
:102CA000226981401143216100EB800108EB810022
:102CB000291DFFF733FEE86A2168C96A8842CDD32F
:102CC0000127CBE7F4000020AC0200202DE9F047FB
:102CD0002C4D00242746286B38B1FFF72BFE286BBC
:102CE000401E2863286B40B146E0502080F31188D5
:102CF000BFF34F8FBFF36F8FFEE7A968224E01200D
:102D0000D1B3A6F1B40980463068E8B1F068C46870
:102D100004F11800FFF7CAFD201DFFF7C7FDE06AA8
:102D20002A6908FA00F11143296100EB800109EBDF
:102D30008100211DFFF7F2FDE06A2968C96A884217
:102D4000E2D3C5F81C80DFE70CB1FFF70DFCAC69DE
:102D500044B14646FFF756FF00B1EE61641EF9D15B
:102D60000020A861E86938B10849012738070860E0
:102D7000BFF34F8FBFF36F8FFFF7FCFD3846BDE801
:102D8000F0870000F40000206003002004ED00E064
:102D90003F065B4F666D7D077F6F00777C395E79FC
:102DA000713D76301E753815375C736B336D313E6F
:102DB0003E2A766E5B090D614843D35F39640F2369
:102DC00008025F7C585E7B716F74100C7530145470
:102DD0005C7367506D781C1C14766E5B4630700116
:102DE0000086227E6DD24620290B21701001805270
:102DF000502E0008AD260008000000000000000072
:102E0000800000005C2E000891280008FDFF0000F3
:102E10000000000080000000442E00086527000824
:102E2000FDFF000000000000800000000000000026
:102E3000000000000102030406070809000000006A
:102E400001020304726573657276655F69737200CF
:102E50006D61696E5F69737200000000736574755F
:102E6000705F697372000000882E00080000002067
:102E70005801000028020008D42E00085801002044
:102E8000481200004420000842FF021E011E1D1EC1
:102E9000191A0A01C81202030569046F73070104B5
:102EA0000B700D630F640101111306031305061364
:102EB0000802580E04050104080102030405060770
:102EC000080709760F59DF82100458A24A041AAA8B
:042ED000018100007C
:04000005080000ED02
:00000001FF
