:020000040800F2
:100000009012002099010008AB110008531100085C
:10001000A911000829020008E915000800000000E5
:1000200000000000000000000000000001010008C6
:100030002B020008000000004501000865120008BE
:10004000B3010008B3010008B3010008B3010008C0
:10005000B3010008B3010008B3010008B3010008B0
:10006000B3010008B3010008B3010008B3010008A0
:10007000B3010008B3010008B3010008B301000890
:10008000B3010008B3010008B3010008B301000880
:10009000B3010008B3010008B3010008B301000870
:1000A000B301000825130008B3010008B3010008DC
:1000B00031130008B3010008B3010008B3010008C0
:1000C000B3010008B3010008B3010008B301000840
:1000D000B3010008B3010008B3010008B301000830
:1000E000B3010008B3010008B3010008DFF80CD029
:1000F00000F088F8004800475516000890120020CC
:10010000224B19680868B0E8F00F80F30988BFF344
:100110006F8F4FF0000080F311884EF00D0E704786
:100120000000000006480068006880F3088862B696
:1001300061B6BFF34F8FBFF36F8F00DF00BF00BF0B
:1001400008ED00E0EFF30980BFF36F8F0F4B1A68E3
:1001500020E9F00F106008B54FF0500080F31188CF
:10016000BFF34F8FBFF36F8F01F0C0FE4FF0000061
:1001700080F31188BDE8084019680868B0E8F00FFE
:1001800080F30988BFF36F8F704700BF28000020FD
:10019000EFF3058070470000064880470648004797
:1001A000FEE7FEE7FEE7FEE7FEE7FEE7FEE7FEE727
:1001B000FEE7FEE7DD120008ED00000840EA01035B
:1001C0009B0703D009E008C9121F08C0042AFAD20D
:1001D00003E011F8013B00F8013B521EF9D27047D1
:1001E000D2B201E000F8012B491EFBD27047002279
:1001F000F6E710B513460A4604461946FFF7F0FF26
:10020000204610BD064C074D06E0E06840F00103B3
:1002100094E8070098471034AC42F6D3FFF76AFF22
:100220002422000844220008FEE770472DE9F84F19
:10023000DFF890A100220AF1040B144601274FF0C9
:100240000F090BF1040E00BF0B6807FA04F52B40F1
:10025000AB4274D1DFF870C14E68A6EB0C0866455E
:100260002BD00DDC032E34D005DC36B3012E19D093
:10027000022E2FD11BE0112E16D0122E2AD119E0FA
:10028000B8F5881F19D006DCB8F5803F15D0B8F551
:10029000801F1FD111E0B8F5001F0ED0B8F5041F64
:1002A00018D10AE0CA6815E0CA68121D12E0CA68CF
:1002B00008320FE0CA680C320CE08A682AB1012AC1
:1002C0004FF0080203D0456104E0042202E005611A
:1002D00000E00022FF2B01D8064601E000F10406F1
:1002E0004FEA840501D9A5F12005D6F800C009FA26
:1002F00005F82CEA080C02FA05F54CEA050CC6F8DC
:1003000000C04D68ED0057D5304DAE6946F001068E
:10031000AE61AD6924F0030605F0010500952C4D92
:1003200006EB050CDCF80850A6074FEA167809FA28
:1003300008F6B543274EB04202D1002610E03BE05C
:10034000254EB04201D101260AE0244EB04201D12F
:10035000022605E0224EB04201D1032600E0042629
:1003600006FA08F62E43CCF808604D68DAF800600B
:10037000ED03554601D51E4300E09E432E604D68B7
:10038000DBF80060AD035D4601D51E4300E09E43EF
:100390002E604D68DEF80060ED02754601D51E4303
:1003A00000E09E432E604D68AD020E4D2E6801D5D3
:1003B0001E4300E09E432E60641C102CFFF444AFEB
:1003C000BDE8F88F00040140000011100010024049
:1003D0000000014000080140000C014000100140F5
:1003E000001401400C0401400AB101617047090486
:1003F000FBE70000014880687047000018000020FB
:1004000070B504001BD094F83D00002520B984F895
:100410003C50204600F094F8242084F83D002068E9
:10042000016821F00101016000F042FA404A616870
:10043000914201D83F4900E03F49884201D2012062
:1004400070BD3E492368B0FBF1F159606368934287
:1004500006D94FF4967359434FF47A73B1FBF3F115
:100460002368491C19626168914210D84900401EF6
:10047000B0FBF1F2521CC2F30B02042A01D2042099
:1004800022E0B0FBF1F0401CC0F30B001CE0A368BD
:10049000CBB301EBC10202EB0116421EB2FBF6F236
:1004A000521C42F48042120536D06BB301EBC102FC
:1004B00002EB0111401EB0FBF1F0401CC0F30B0039
:1004C00040F4804040F400402168C861D4E907014D
:1004D000084321680860D4E9031008432168886054
:1004E000D4E9050108432168C8602068016841F02B
:1004F000010101602564202084F83D00256384F813
:100500003E50002070BD00E008E001EB4106421EB5
:10051000B2FBF6F2521CC6E70120D5E701EB410120
:10052000401EB0FBF1F0401CC0F30B00CAE7000016
:10053000A086010080841E0000093D0040420F009B
:1005400010B586B0002100910191029103910068DD
:100550000F4988421AD10F4CA06940F00800A061F1
:10056000A069694600F008000490C02000901220A5
:100570000190032003900848FFF758FEE06940F41B
:100580000010E061E06900F40010049006B010BDB6
:100590000054004000100240000C014002488168F5
:1005A000027811448160704718000020074810B598
:1005B000016841F010010160032000F091F8002073
:1005C00000F006F800F03EF8002010BD00200240C8
:1005D00000B5014687B00022192000F061F819200B
:1005E00000F052F81348816941F40061816180692B
:1005F00005A900F400600690684600F039F900F0A3
:1006000067F90D490D4AB0FBF1F10D48491E026032
:10061000416040F2E7320021C0E90321816000F02F
:1006200049FB10B1012007B000BD054800F07AFB7E
:10063000F9E700000010024040420F00002C01408A
:10064000600100200E4808B5816941F00101816117
:10065000816901F001010091C16941F08051C161DE
:10066000C069002200F0805000900F21901E00F021
:1006700017F80448416821F0E061416008BD0000BE
:10068000001002400000014000F01F0201219140D3
:100690004009800000F1E020C0F800117047000020
:1006A000F0B40E4B1B680C46C3F30223C3F10705DD
:1006B000042D00D90425191D072901D2002300E0CB
:1006C000DB1E012606FA05F1491E214099409E4095
:1006D000761E16403143F0BC00F068BD0CED00E022
:1006E000064900F0070208684FF6FF03184040EA89
:1006F0000220034A10430860704700000CED00E040
:100700000000FA052DE9F047DFF8548105460E4652
:10071000D8F8000000F00700B0420CD2D8F8001062
:1007200021F007013143C8F80010D8F8000000F0AC
:100730000700B0426FD128684A4C810712D54007A4
:1007400003D5606840F4E06060602878000703D556
:10075000606840F4605060606068A96820F0F00054
:10076000084360602878C00744D06868012816D024
:100770002168022816D0890700294CDA616821F027
:10078000030101436160FFF735FE6968074641F2E6
:10079000883001290ED00229814618D026E0216830
:1007A0008903E9E78901E7E7FFF724FEC11B494513
:1007B00001D918E081466068C0F381000128F3D1B7
:1007C00018E000BFFFF716FEC11B49450BD8606853
:1007D000C0F381000228F5D10CE000BFFFF70AFE4C
:1007E000C11B494502D90320BDE8F087606810F0BD
:1007F0000C0FF3D1D8F80010404601F00701B142C8
:100800000BD9016821F0070131430160006800F055
:100810000700B04201D00120E6E72878400705D55F
:100820006068E96820F4E0600843606028780007A9
:1008300006D56068296920F4605040EAC100606014
:1008400000F056F86168084AC1F30311515CC840D2
:10085000064908600020FFF7BBFE0020C4E7000047
:100860000020024000100240E8210008240000207F
:100870000F2202600C4A536803F00303436053687D
:1008800003F0F0038360536803F4E063C3605268CD
:100890004FF4E06303EAD20202610448006800F00A
:1008A000070008607047000000100240002002406E
:1008B0000448054900684968044AC1F30221515CB3
:1008C000C84070472400002000100240F8210008B2
:1008D0000448054900684968044AC1F3C221515CD3
:1008E000C84070472400002000100240F821000892
:1008F00012A185B00FC98DE80F0014A0144A00683A
:1009000004905168134801F00C03042B10D0082BFD
:100910000ED1C1F38343C9031DF803000AD5516802
:1009200004AAC1F34041515C0A4A5043B0FBF1F0C4
:1009300005B0704708494843FAE700000203040580
:10094000060708090A0B0C0D0E0F1010010200001B
:100950000010024000127A0000093D002DE9F84F16
:1009600004460078B94DC00748D06868C0F38100DC
:10097000012807D06868C0F38100022809D168689F
:10098000C00306D52868800338D5606800286FD07A
:1009900034E06068B0F5803F0BD010B1B0F5A02F07
:1009A00011D0286820F480302860286820F4802046
:1009B00002E0286840F480302860606888B1FFF762
:1009C00019FD064609E0286840F480202860F0E719
:1009D000FFF710FD801B642875D828688003F7D5C1
:1009E0000CE0FFF707FD064605E000BFFFF702FD3C
:1009F000801B6428F0D828688003F7D42078944EB0
:100A000080074FF001094FF000083BD5686810F0EF
:100A10000C0F07D06868C0F38100022809D168680C
:100A2000C00306D42868800714D5206901281FD187
:100A300010E02069B0B1C6F80090FFF7DBFC074674
:100A400005E000BFFFF7D6FCC01B0228C4D8286809
:100A50008007F7D52868616920F0F80040EAC100F6
:100A600028600FE0C6F80080FFF7C4FC074606E0E8
:100A7000E9E000BFFFF7BEFCC01B022823D82868AE
:100A80008007F7D4207800072CD57248A169D9B126
:100A9000C0F80090FFF7AEFC074604E0FFF7AAFCA1
:100AA000C01B02280FD8686A8007F7D56A484FF440
:100AB000FA510068B0FBF1F0009000BF0098411EB1
:100AC0000091FAD20EE080E0C0F80080FFF792FCBF
:100AD000074604E0FFF78EFCC01B022875D8686A41
:100AE0008007F7D42078400760D5E8690027C00068
:100AF00008D4E86940F08050E861E869012700F017
:100B00008050009055480168C90513D40168834698
:100B100041F480710160FFF76DFC824606E000BF82
:100B2000FFF768FCA0EB0A0064284ED8DBF8000051
:100B3000C005F5D5E06801280AD008B1052813D012
:100B4000286A20F001002862286A20F0040002E0F0
:100B5000286A40F001002862E06841F2883B98B1C1
:100B6000FFF748FC82460BE0286A40F00400286248
:100B7000EEE700BFFFF73EFCA0EB0A0159455AD84B
:100B8000286A8007F6D50CE0FFF734FC824605E0C2
:100B9000FFF730FCA0EB0A0159454CD8286A8007C2
:100BA000F6D41FB1E86920F08050E861E06988B3AD
:100BB0006968C1F38101022945D00228C6F8608026
:100BC00004D0FFF717FC044638E034E0FFF712FCCE
:100BD000074604E0FFF70EFCC01B02282BD828684C
:100BE0008001F7D4206AB0F5803F05D16868A1681C
:100BF00020F4003008436860D4E9080108436968BC
:100C000021F4741108436860C6F86090FFF7F2FBA6
:100C1000044606E015E000BFFFF7ECFB001B0228CE
:100C200009D828688001F7D50BE000BFFFF7E2FB89
:100C3000001B022802D90320BDE8F88F2868800134
:100C4000F4D40020F8E70120F6E70000001002408D
:100C50000000424280044242240000200070004014
:100C60007047704730B590F83C20012A20D001220F
:100C700080F83C20022380F83D3003685C6824F053
:100C800070045C6003685C680D682C435C600368FA
:100C90009C6824F080049C6003689C6849680C434D
:100CA0009C6080F83D20002180F83C10084630BD53
:100CB000022030BD10B5040003D094F83D0010B1FF
:100CC00007E0012010BD002084F83C00204600F021
:100CD0000DF8022084F83D00211D206800F02EFB55
:100CE000012084F83D00002010BD000008B5006818
:100CF000B0F1804F12D10A48C16941F00101C161D0
:100D0000C069002200F00100009005211C20FFF7BF
:100D1000C7FCBDE808401C20FFF7B6BC08BD0000BA
:100D2000001002400168CA6842F00102CA6000680F
:100D3000016841F0010101600020704770B5044670
:100D400090F83C00012817D0012584F83C5002207F
:100D500084F83D002068826822F0770222F47F4206
:100D600082600868502837D00DDC202859D005DC77
:100D700088B3102841D151E0022070BD302853D0F3
:100D800040283AD13FE060282ED070280BD0B0F533
:100D9000805F03D0B0F5005F2FD110E0206881683C
:100DA00021F0070115E0CB68D1E90121206800F0AE
:100DB000FBFA2168886840F0770088601DE0CB6806
:100DC000D1E90121206800F0EFFA2068816841F440
:100DD0008041816011E01EE0CA684968206800F027
:100DE000F5FA5021206806E0CA684968206800F0DA
:100DF000FEFA6021206800F0E1FA84F83D500020FE
:100E000084F83C0070BDCA684968206800F0DEFACA
:100E100040212068EFE700212068ECE710212068DE
:100E2000E9E720212068E6E730212068E3E7704702
:100E300070B50446006801694FF00005C943890791
:100E400015D4C168C943890711D4E91E0161012085
:100E50002077206880698007204602D0FFF7E7FFEF
:100E600004E000F098F8204600F096F82577206816
:100E70000169C943490717D4C168C943490713D455
:100E80006FF004010161022020772068806910F46E
:100E9000407F204602D0FFF7CAFF04E000F07BF855
:100EA000204600F079F8257720680169C9430907D1
:100EB00016D4C168C943090712D46FF00801016153
:100EC000042020772068C0698007204602D0FFF701
:100ED000AEFF04E000F05FF8204600F05DF82577F3
:100EE00020680169C943C90617D4C168C943C90646
:100EF00013D46FF010010161082020772068C069C9
:100F000010F4407F204602D0FFF791FF04E000F08C
:100F100042F8204600F040F8257720680169C9436F
:100F2000C90708D1C168C943C90704D1891E016135
:100F3000204600F033F820680169C943090609D446
:100F4000C168C943090605D46FF0800101612046DC
:100F5000FFF786FE20680169C943490609D4C168C4
:100F6000C943490605D46FF040010161204600F0F5
:100F700029F820680169C94389060BD4C168C943AF
:100F8000890607D46FF0200101612046BDE870405A
:100F9000FFF767BE70BD70477047000010B504468C
:100FA0000068B0F1804F01D100F010F904492068C9
:100FB000884203D1BDE81040FFF7F0BA10BD000031
:100FC000002C0140704770B5040004D094F839003B
:100FD000002510B106E0012070BD84F8385020468D
:100FE00000F022F8242084F839002068C16821F438
:100FF0000051C160204600F00DFA2068016921F41B
:10100000904101612068416921F02A014161206815
:10101000C16841F40051C160E563202084F83900C3
:1010200084F83A00002070BD30B585B000240094EB
:1010300001940294039400681449884224D114480E
:10104000816941F480418161816901F480410491A9
:10105000816941F00401816180690E4D00F0040056
:1010600004904FF400700090022001900320039040
:1010700069462846FFF7DAF82815CDE900046946E5
:1010800028460294FFF7D2F805B030BD0038014081
:1010900000100240000801402DE9F843044690F892
:1010A00039001F4616460D46202850D1A5B19EB1E5
:1010B00094F8380001284AD0012084F838004FF015
:1010C0000008C4F83C80212084F83900FFF792F929
:1010D000A6848146E68426E00120BDE8F883E08C02
:1010E000401EE084A0684B46B0F5805F4FF00002E0
:1010F0004FF080012046009703D000F043FAE8B992
:101100000DE000F03FFAC8B928882168C0F3080054
:101110004860206908B16D1C05E0AD1C03E0216842
:1011200015F8010B4860E08C0028D8D14B4600220E
:1011300040212046009700F025FA08B10320CCE7B3
:10114000202084F8390084F838800020C5E7022088
:10115000C3E7FEE710B586B000241248009401945E
:101160000294039404944FF080410594016048F682
:101170009F41C0E901144FF44871C0E90314846130
:10118000FFF798FD4FF48050009069460548FFF73F
:10119000D5FD049404A903480594FFF763FD06B048
:1011A00010BD0000E0000020FEE770470907090EAF
:1011B000002806DA00F00F0000F1E02080F8141D8E
:1011C000704700F1E02080F8001470472DE9F041ED
:1011D000204C21484FF400652178861541B1471510
:1011E000012908D0061502290ED0032914D01DE0CC
:1011F000002229460AE0002231460546FFF7F4F8AE
:101200000122394628460FE0002239460546FFF7FD
:10121000EBF801223146F5E7314600220646FFF79A
:10122000E3F8012229463046FFF7DEF80949207825
:1012300010310A4A095C515C094AC943C9B21160BC
:10124000401CC0B22070032801D900202070BDE8E6
:10125000F081000000000020000C0140A0210008E7
:101260000C08014010B5502080F31188BFF34F8F58
:10127000BFF36F8F00F0CEFE18B104494FF08050DD
:101280000860002080F3118810BD000004ED00E02C
:1012900030B58FB028216846FEF7A9FF14210AA8AF
:1012A000FEF7A5FF02240120049000941020059071
:1012B00000254FF4C010CDE9085007946846FFF7A9
:1012C0004DFB0AA90F2081E831006002CDE90D0530
:1012D00001210AA8FFF716FA0FB030BD0D480168CA
:1012E00041F00101016041680B4A11404160016811
:1012F0000A4A11400160016821F4802101604168BF
:1013000021F4FE0141604FF41F0181600449C003D4
:1013100008607047001002400000FFF8FFFFF6FE73
:1013200008ED00E00148FFF783BD000060010020E8
:101330000148FFF77DBD0000E0000020F0B5026825
:10134000164B174C174D4FF08047984205D0B842C6
:1013500003D0A04201D0A84203D122F070064A680F
:101360003243984205D0B84203D0A04201D0A842EF
:1013700003D122F44074CA68224322F080044A69EF
:10138000224302608A68C2620A688262984201D17E
:101390000969016301214161F0BD0000002C014099
:1013A000000400400008004010B5846842EA0322AF
:1013B00024F47F440A432243826010BD826822F0F5
:1013C00070020A4342F007018160704710B5036A5A
:1013D000046A24F001040462846924F0F00444EAFD
:1013E000021423F00A020A438461026210BD10B5A0
:1013F000036A23F0100303628369046A23F47043D1
:1014000043EA023224F0A00343EA0111826101623F
:1014100010BD00002DE9F041044600680169E26852
:1014200021F44051114301612169A06808436169B9
:1014300008432168CA6841F20C639A430243CA60B8
:1014400020684169A26921F44071114341614C490E
:1014500020686425322688423CD1FFF739FA00EB38
:10146000C00101EB001061688900B0FBF1F7FFF7E4
:101470002FFA00EBC00101EB00106168B046890053
:10148000B0FBF1F0B0FBF5F06FF01801484307EB4B
:10149000800106EB0110B0FBF5F000F0F006FFF75D
:1014A00017FA00EBC00101EB001061688900B0FB86
:1014B000F1F0B0FBF5F006EB0016FFF709FA00EBD0
:1014C000C00101EB001061688900B0FBF1F7FFF784
:1014D000FFF93BE0FFF7ECF900EBC00101EB001076
:1014E00061688900B0FBF1F7FFF7E2F900EBC0019A
:1014F00001EB00106168B0468900B0FBF1F0B0FB71
:10150000F5F06FF01801484307EB800106EB01107E
:10151000B0FBF5F000F0F006FFF7CAF900EBC001F0
:1015200001EB001061688900B0FBF1F0B0FBF5F051
:1015300006EB0016FFF7BCF900EBC00101EB001051
:1015400061688900B0FBF1F7FFF7B2F900EBC00169
:1015500001EB001061688900B0FBF1F0B0FBF5F021
:101560006FF01801484307EB800108EB0110B0FB56
:10157000F5F0216800F00F0030448860BDE8F0818C
:10158000003801402DE9F041984617460E460446C2
:10159000069D1DE0681C1BD02DB1FEF72BFFA0EBB4
:1015A0000800A84214D92068C16821F4D071C16034
:1015B0002068416921F001014161202084F839004F
:1015C00084F83A00002084F838000320BDE8F08158
:1015D0002068006836EA000004D00020B842D9D064
:1015E0000020F3E70120F9E7FEE70000014A024985
:1015F00000F013B83D1600088800002002E008C87B
:10160000121F08C1002AFAD170477047002001E07C
:1016100001C1121F002AFBD170472DE9F041164687
:101620000F460446002503E03946B047641C6D1C94
:1016300020780028F8D12846BDE8F08113B564234E
:10164000012269460248FFF727FD00981CBD0000F3
:101650002001002094B0FEF7A9FFFFF719FE3548DE
:10166000816941F004018161816901F004011391F4
:10167000816941F0080181618069694600F00800D4
:1016800013904FF6FF70009001200190022003900C
:101690002948FEF7CBFD69462848FEF7C7FD2948D3
:1016A0002749002401604FF4E131C0E901140C2105
:1016B000C460C0E904418461C461FFF784FC21482F
:1016C0002149943801602149C0E901144FF4804157
:1016D000C0E9034144618461C4610462FEF790FE85
:1016E000FFF738FD17484038FFF71CFB1422184954
:1016F00004A8FEF763FD002104A800F03FF8154C94
:10170000134914226060143109A8FEF757FD002127
:1017100009A800F033F80E49A060142228310EA861
:10172000FEF74CFD00210EA800F028F8E06000F064
:1017300020F8FEE70010024000080140000C0140C4
:10174000003801402001002000540040A086010024
:10175000AC2100080000002001460020842900D0B0
:10176000C81C704710B500B9012000F05DFB0020D7
:1017700010BD10B500F07EFB002010BD3EB5044644
:101780000D46B0F90800FFF7E7FF02A9CDE9000117
:10179000208A2B4682B2D4E9001000F00FFC012809
:1017A00001D000203EBD02983EBD00002DE9F04171
:1017B000184C0F460546E6682068001D00F07EFACA
:1017C00038B9206890F82C100120884021698143A5
:1017D0002161681C07D137B12168BDE8F0410E488E
:1017E000091D00F0A3BA20683544B5424560216860
:1017F00005D2A06BBDE8F041091D00F07FBA606B17
:10180000091D00F07BFAA06A854200D2A562BDE8FE
:10181000F0810000280000207C0200202DE9F0412A
:10182000054600F08FFA2E4CA068401CA06020688E
:101830002C4F10B1606940B32DE02560A0680128ED
:1018400029D1002606EB860007EB800000F048FA5D
:10185000761C072EF6D323488C3000F041FA21483D
:10186000A03000F03DFA1F48B43000F039FA1D48AE
:10187000C83000F035FA1B48DC3000F031FA194866
:101880008C3060631430A06305E02068E96AC06AA8
:10189000884200D82560606A401C6062E96A0120C5
:1018A000226988401043206101EB810007EB800032
:1018B000291D00F03BFA00F065FA606900280CD0A1
:1018C0002068E96AC06A884207D207494FF0805011
:1018D0000860BFF34F8FBFF36F8FBDE8F08100004A
:1018E00028000020A001002004ED00E070B5114E9A
:1018F000114C17E000F0F2FA3068B8B100F0EEFBDE
:1019000000F020FAF068C568281D00F0D7F9A0683B
:10191000401EA0606068401E606000F033FA2846F8
:1019200000F00CF860680028E4D170BD00F0D6FB30
:10193000F8E70000680200202800002010B50446E7
:10194000006B00F033FA2046BDE8104000F02EBADC
:1019500010484FF44061420706D0C01D0D4920F0E9
:101960000700411AC1F540610B4A00230144C2E956
:1019700000030839103A21F0070111604B600B6039
:101980000B1AC0E9001393604FF000405360D06021
:10199000704700009002002074000020074C4FF0B8
:1019A0008056074DFFF7A2FF20680128FAD92E6064
:1019B000BFF34F8FBFF36F8FF4E70000A00100204B
:1019C00004ED00E02DE9F0479A46DDE909848146FF
:1019D0006FF00303206B03EB82021044089D20F09C
:1019E0000706700707D0502080F31188BFF34F8F90
:1019F000BFF36F8FFEE723180A5C83F834200A5C7C
:101A000012B1401C1028F6D3002784F84370072D2C
:101A100000D30625E562C4E91157201D00F06BF9DB
:101A200004F1180000F067F92461C5F10700646251
:101A3000A061E76484F8507052464946304600F091
:101A4000BFF82060B8F1000F01D0C8F80040BDE831
:101A5000F087000030B5114900E011460A68824263
:101A6000FBD34B685C18844203D14068184448603B
:101A7000084643681C18944209D1084C103C24685D
:101A8000A24209D052681A4442600A681268026091
:101A9000814200D0086030BD0460F9E77400002086
:101AA0000648416B096829B1416BC968C968496832
:101AB000816270474FF0FF31FAE7000028000020F4
:101AC00008484068401C4FF0500080F3118804D053
:101AD000BFF34F8FBFF36F8FFEE7BFF34F8FBFF39F
:101AE0006F8FFEE77C0000202DE9F04105460027BE
:101AF00000F0F4F9314E306808B9FFF729FFF068BB
:101B000005424BD1C5B3083568070ED005F0070074
:101B1000C0F108000544680707D0502080F3118801
:101B2000BFF34F8FBFF36F8FFEE72DB37068854211
:101B300034D82248103001460C6801E020460C469B
:101B40006168A94202D221680029F7D131688C422C
:101B500024D007682168016060680837411B10299C
:101B60000FD96019420708D0502080F31188BFF3C5
:101B70004F8FBFF36F8FFEE710E041606560FFF7A6
:101B800069FF61687068401A7060B268904200D264
:101B9000B060F06801430020C4E9000100F09EFA43
:101BA000780707D0502080F31188BFF34F8FBFF321
:101BB0006F8FFEE73846BDE8F0810000640000202A
:101BC00010B5031F4FF080741C601B1F21F0010132
:101BD0001960191F024B0B60143940380A6010BDA0
:101BE000C11A00080AA0FFF701FD12A0FFF7FEFCD2
:101BF00016A0FFF7FBFC21A0FFF7F8FC4FF47A7466
:101C000024A0FFF7F3FC2046FFF7ACFDF8E7000047
:101C10004465766963653A20647275672070726FF7
:101C20006475637420636F6E74726F6C6C65720D93
:101C30000A0000005265766973653A2032382F3009
:101C4000342F323031390D0A0000000043757374AF
:101C50006F6D65723A20446F616E2056616E204C44
:101C6000756F6E6740446F6D6573636F20446F6E70
:101C70006720546861700D0A0000000044657369B4
:101C8000676E65723A2070686F6E676E68333238BF
:101C9000390D0A006C6F6720636F6D6D616E643A79
:101CA0002048656C6C6F0D0A000000000120FFF7F2
:101CB00059FDFBE70120FFF755FDFBE7D0E90132B5
:101CC00001699A60D0E901235A604A68824201D1D1
:101CD00082684A60002202610868401E08607047FE
:101CE00000F108014FF0FF32C0E90112C16001614B
:101CF00000210160704700210161704730B50B6819
:101D00005A1C02D000F1080202E0026904E02246F7
:101D1000546825689D42FAD953684B6099608A607F
:101D2000516008610168491C016030BD42684A6029
:101D300093688B6093685960916008610168491CE1
:101D400001607047502080F31188BFF34F8FBFF3BD
:101D50006F8F0A494868401C486001280CD1084828
:101D6000006810F0FF0F07D0502080F31188BFF3F8
:101D70004F8FBFF36F8FFEE7704700007C0000209D
:101D800004ED00E00849486828B1401E486001D1D0
:101D900080F311887047502080F31188BFF34F8F74
:101DA000BFF36F8FFEE700007C00002070B50028B5
:101DB00027D0144DA0F108046168E868014207D1FA
:101DC000502080F31188BFF34F8FBFF36F8FFEE772
:101DD00022683AB1502080F31188BFF34F8FBFF3D0
:101DE0006F8FFEE78143616000F078F86068696892
:101DF000084468602046FFF72DFEBDE8704000F003
:101E00006DB970BD6400002006484FF47A71006817
:101E1000B0FBF1F14FF0E020491E41610721016163
:101E2000704700002400002010B5020014D00F48B5
:101E3000006B38B1502080F31188BFF34F8FBFF390
:101E40006F8FFEE700F04AF800211046FFF7AEFC66
:101E500000F044F9002807D105494FF08050086090
:101E6000BFF34F8FBFF36F8F10BD0000280000201D
:101E700004ED00E01CB515480024CDE900402346E0
:101E8000802213A1144800F099F8012809D0401CC1
:101E90001AD1502080F31188BFF34F8FBFF36F8F9B
:101EA000FEE7502080F31188BFF34F8FBFF36F8F91
:101EB00006484FF0FF312C38816201214161C46036
:101EC000BDE81C4000F040B81CBD000054000020DC
:101ED00049444C45000000009D1900080248016B70
:101EE000491C016370470000280000201448016B62
:101EF00011B10121C16170470021C1610169B1FACD
:101F000081F1C1F11F0101EB81020E4951F822302C
:101F10006BB101EB820101F108034A6852684A6023
:101F20009A4201D152684A60D168016070475020DE
:101F300080F31188BFF34F8FBFF36F8FFEE7000070
:101F400028000020A00100201CB519490878019044
:101F5000FF20087008788DF800009DF80000154AF1
:101F600000F0500010700720906005E09DF80030F0
:101F70005B008DF80030401E9DF800301B06F5D444
:101F8000000200F4E0609060019808700A4801685F
:101F900041F470010160016841F070410160FFF798
:101FA00033FF00205060FEF7BDF800201CBD00008C
:101FB00000E400E07C00002020ED00E02DE9FF5F60
:101FC0008346DDE90E87994616468A469000FFF75C
:101FD0008BFD05001AD05420FFF786FD040012D0B7
:101FE00025630021CDE90241CDE900874B46324609
:101FF00051465846FFF7E6FC2046FFF70FFC01204C
:1020000004B0BDE8F09F2846FFF7D0FE4FF0FF3048
:10201000F6E700002DE9F0412E4C0027206B40B17F
:10202000A069401CA061E06900B101273846BDE805
:10203000F081E668761CE66013D1606B006838B109
:10204000502080F31188BFF34F8FBFF36F8FFEE7EF
:10205000606BA16B6163A063206A401C2062FFF784
:102060001FFDA06ADFF87080864209D3606B0068AC
:1020700080B1606BC068C568686886420DD2A06296
:102080002068C06A00EB800158F821000128CAD9F5
:102090000127C8E74FF0FF30F1E7281DFFF70EFEDC
:1020A000A86A18B105F11800FFF708FEE86A0121D7
:1020B000226981401143216100EB800108EB81001E
:1020C000291DFFF733FEE86A2168C96A8842CDD32B
:1020D0000127CBE728000020A00100202DE9F047D0
:1020E0002C4D00242746286B38B1FFF72BFE286BB8
:1020F000401E2863286B40B146E0502080F31188D1
:10210000BFF34F8FBFF36F8FFEE7A968224E012008
:10211000D1B3A6F1B40980463068E8B1F068C4686C
:1021200004F11800FFF7CAFD201DFFF7C7FDE06AA4
:102130002A6908FA00F11143296100EB800109EBDB
:102140008100211DFFF7F2FDE06A2968C96A884213
:10215000E2D3C5F81C80DFE70CB1FFF7A1FCAC6946
:1021600044B14646FFF756FF00B1EE61641EF9D157
:102170000020A861E86938B10849012738070860DC
:10218000BFF34F8FBFF36F8FFFF7FCFD3846BDE8FD
:10219000F0870000280000205402002004ED00E039
:1021A0007E306D79335B5F707F7B00000C2200080E
:1021B000E51B000800000000000000008000000097
:1021C00018220008B51C0008FDFF000000000000F8
:1021D0008000000000220008AD1C0008FDFF000088
:1021E000000000008000000000000000000000006F
:1021F00001020304060708090000000001020304AD
:10220000726573657276655F697372006D61696E80
:102210005F6973720000000073657475705F6973A5
:102220007200000044220008000000208C00000022
:10223000FC150008D02200088C00002004120000C9
:102240000C16000800000000000000000000000064
:102250000000000001020304050607080100000059
:10226000100000000000000000A24A04000000006E
:10227000000000000000000000000000000000005E
:10228000000000000000000000000000000000004E
:10229000000000000000000000000000000000003E
:1022A000000000000000000000000000000000002E
:1022B000000000000000000000000000000000001E
:1022C00000000000AAAAAAAA000000000000000066
:04000005080000ED02
:00000001FF
