:020000040800F2
:10000000A813002099010008A71C0008DF170008AA
:10001000A51C00087F0200087522000800000000EF
:1000200000000000000000000000000001010008C6
:10003000810200080000000045010008851D00083D
:10004000B3010008B3010008B3010008B3010008C0
:10005000B3010008B3010008B3010008B3010008B0
:10006000B3010008B3010008B3010008B3010008A0
:10007000B3010008B3010008B3010008B301000890
:10008000B3010008B3010008B3010008B301000880
:10009000B3010008B3010008B3010008B301000870
:1000A000B3010008451E0008B3010008B3010008B1
:1000B000511E00085D1E0008B3010008B3010008CE
:1000C000B3010008B3010008B3010008B301000840
:1000D000B3010008B3010008B3010008B301000830
:1000E000B3010008B3010008B3010008DFF80CD029
:1000F00000F088F800480047E1220008A81300201B
:10010000224B19680868B0E8F00F80F30988BFF344
:100110006F8F4FF0000080F311884EF00D0E704786
:100120000000000006480068006880F3088862B696
:1001300061B6BFF34F8FBFF36F8F00DF00BF00BF0B
:1001400008ED00E0EFF30980BFF36F8F0F4B1A68E3
:1001500020E9F00F106008B54FF0500080F31188CF
:10016000BFF34F8FBFF36F8F03F054FB4FF00000CE
:1001700080F31188BDE8084019680868B0E8F00FFE
:1001800080F30988BFF36F8F704700BF0001002024
:10019000EFF3058070470000064880470648004797
:1001A000FEE7FEE7FEE7FEE7FEE7FEE7FEE7FEE727
:1001B000FEE7FEE7FD1D0008ED00000840EA010330
:1001C0009B0703D009E008C9121F08C0042AFAD20D
:1001D00003E011F8013B00F8013B521EF9D27047D1
:1001E000D2B201E000F8012B491EFBD27047002279
:1001F000F6E710B513460A4604461946FFF7F0FF26
:10020000204610BD064C074D06E0E06840F00103B3
:1002100094E8070098471034AC42F6D3FFF76AFF22
:10022000A03B0008C03B000870B58C1810F8015BBB
:1002300015F0070301D110F8013B2A1106D110F87F
:10024000012B03E010F8016B01F8016B5B1EF9D183
:100250002B0705D40023521E0DD401F8013BFAE709
:1002600010F8013BCB1A921C03E013F8015B01F874
:10027000015B521EF9D5A142D8D3002070BDFEE724
:100280007047000010B564230122A021034800F04C
:1002900017FA08B1002010BD012010BD6401002034
:1002A0000EB5642392B28DE80E0002461023A02101
:1002B000034800F0B5FA08B100200EBD01200EBDC4
:1002C000640100200EB5202A0AD8642392B28DE87A
:1002D0000E0002461023A021054800F0B1FB08B132
:1002E00000200EBD072000F005F801200EBD000023
:1002F0006401002070B5044600F0F6F80546601C65
:1003000002D004480078044400F0EEF8401BA042FC
:10031000FAD370BDF00000202DE9F84FDFF890A16E
:1003200000220AF1040B144601274FF00F090BF1CC
:10033000040E00BF0B6807FA04F52B40AB4274D1E2
:10034000DFF870C14E68A6EB0C0866452BD00DDCBB
:10035000032E34D005DC36B3012E19D0022E2FD156
:100360001BE0112E16D0122E2AD119E0B8F5881FE5
:1003700019D006DCB8F5803F15D0B8F5801F1FD125
:1003800011E0B8F5001F0ED0B8F5041F18D10AE02F
:10039000CA6815E0CA68121D12E0CA6808320FE088
:1003A000CA680C320CE08A682AB1012A4FF00802B0
:1003B00003D0456104E0042202E0056100E0002270
:1003C000FF2B01D8064601E000F104064FEA840540
:1003D00001D9A5F12005D6F800C009FA05F82CEAE4
:1003E000080C02FA05F54CEA050CC6F800C04D6889
:1003F000ED0057D5304DAE6946F00106AE61AD69EE
:1004000024F0030605F0010500952C4D06EB050CC4
:10041000DCF80850A6074FEA167809FA08F6B54343
:10042000274EB04202D1002610E03BE0254EB042FC
:1004300001D101260AE0244EB04201D1022605E096
:10044000224EB04201D1032600E0042606FA08F647
:100450002E43CCF808604D68DAF80060ED0355468D
:1004600001D51E4300E09E432E604D68DBF800601E
:10047000AD035D4601D51E4300E09E432E604D68EE
:10048000DEF80060ED02754601D51E4300E09E4394
:100490002E604D68AD020E4D2E6801D51E4300E062
:1004A0009E432E60641C102CFFF444AFBDE8F88F0F
:1004B0000004014000001110001002400000014043
:1004C00000080140000C01400010014000140140F0
:1004D0000C0401408068084000D0012070470AB138
:1004E000016170470904FBE701488068704700001C
:1004F000F000002030B51E4D03681E4C122103226F
:100500001D4885B0AB4216D1E36943F40013E361A3
:10051000E369039203F400130493C023CDE900318F
:100520006946FFF7F9FEE06940F40010E061E06918
:1005300000F4001019E0114DAB4217D1E36943F408
:100540008003E361E369039203F4800304934FF4AF
:100550004063CDE900316946FFF7DEFEE06940F413
:100560008000E061E06900F48000049005B030BDD7
:100570000054004000100240000C014000580040B0
:1005800070B504001BD094F83D00002520B984F814
:100590003C50204600F0F2FA242084F83D00206808
:1005A000016821F00101016000F0A0FC404A61688F
:1005B000914201D83F4900E03F49884201D20120E1
:1005C00070BD3E492368B0FBF1F159606368934206
:1005D00006D94FF4967359434FF47A73B1FBF3F194
:1005E0002368491C19626168914210D84900401E75
:1005F000B0FBF1F2521CC2F30B02042A01D2042018
:1006000022E0B0FBF1F0401CC0F30B001CE0A3683B
:10061000CBB301EBC10202EB0116421EB2FBF6F2B4
:10062000521C42F48042120536D06BB301EBC1027A
:1006300002EB0111401EB0FBF1F0401CC0F30B00B7
:1006400040F4804040F400402168C861D4E90701CB
:10065000084321680860D4E90310084321688860D2
:10066000D4E9050108432168C8602068016841F0A9
:10067000010101602564202084F83D00256384F891
:100680003E50002070BD00E008E001EB4106421E34
:10069000B2FBF6F2521CC6E70120D5E701EB41019F
:1006A000401EB0FBF1F0401CC0F30B00CAE7000095
:1006B000A086010080841E0000093D0040420F001A
:1006C0002DE9FF4F81B099468B4604464FF0010853
:1006D000FFF70AFF054694F83D0020287BD1192337
:1006E00001224D492046009501F07DF9002872D184
:1006F00094F83C0001286ED0012084F83C0020686A
:100700000168C90703D1016841F001010160206857
:10071000016821F400610160242084F83D00002676
:1007200026643E48E06220272068016841F4807119
:1007300001604B4600224FF001112046009501F068
:1007400052F9002858D121680BF0FE000861FFF72C
:10075000CBFE2168054648694969C0F3400094F81A
:100760003D20C1F380214FF0A00A12E0B9F1000F43
:1007700004D0FFF7B9FE411B494501D984F83DA0DB
:10078000216848694969C0F3400094F83D20C1F3ED
:100790008021084301D1A02AE8D184F83D70206867
:1007A0004169C943890717D4016841F400710160A8
:1007B0002068416980691923012217492046009564
:1007C00001F011F9C0B984F83D7084F83C60002054
:1007D00005B0BDE8F08F1DE0016841F400710160D3
:1007E00021686FF480604861192301220A4920467C
:1007F000009501F0F8F808B10320E9E741460398B5
:1008000008F1010881428FD384F83D7084F83C6080
:100810000120DDE70220DBE7020010000000FFFFFF
:100820002DE9FF4F83B09A46DDE9118793460446D0
:10083000DDF84090FFF758FE054694F83D0020286B
:1008400072D1192301227B492046009501F0CBF893
:100850000028F5D194F83C00012865D0012084F8E7
:100860003C0020680168C90703D1016841F001011B
:1008700001602068016821F400610160222084F891
:100880003D00402084F83E0000262664C4F82490F1
:10089000A4F82A806848E062608D2085CDE9007563
:1008A00053465A462046049900F0AEFF28B1206C0A
:1008B00084F83C60042851D075E0208DDFF87C81FD
:1008C00068B1012814D00228206801681ED041F4C4
:1008D0008061016020684169806900909BE0206828
:1008E000416981690091016841F40071016092E001
:1008F0002068016821F48061016072B62068416956
:1009000081690091016841F400710AE041F40061DD
:10091000016072B62068416981690091016821F423
:100920008061016062B676E081E0032850D801283A
:100930000BD002283B464FF000024146204600956E
:1009400012D001F050F870BB13E02A463946204619
:1009500001F0BEF830B1206C202824D0012007B06F
:10096000BDE8F08F20684BE001F03DF8D8B972B6D1
:100970001BE02068016821F48061016072B6206884
:100980000169606A421C62620170208D401E2085F0
:10099000608D401E60853B46002241462046009502
:1009A00001F021F808B10320D9E72068016841F47B
:1009B0000071016020680169606A421C6262017016
:1009C000208D401E2085608D401E608562B6C9E77F
:1009D0002A463946204601F07BF80028BBD1206822
:1009E0000169606A421C62620170208D401E208590
:1009F000608D401E608520684169C94349070AD45B
:100A00000169606A421C62620170208D401E20856F
:100A1000608D401E6085208D002886D1202084F8BE
:100A20003D0084F83E6084F83C60002097E7022097
:100A300095E70000020010000000FFFF0400010025
:100A40002DE9FF4F83B09A46DDE9118793460446AE
:100A5000DDF84090FFF748FD064694F83D00202859
:100A60007DD11923012243492046009600F0BBFFA7
:100A700000287CD194F83C00012878D0012084F82B
:100A80003C0020680168C90703D1016841F00101F9
:100A900001602068016821F400610160212084F870
:100AA0003D00402084F83E0000252564C4F82490D1
:100AB000A4F82A803048E062608D2085CDE9007678
:100AC00053465A462046049900F016FF80B3206C26
:100AD00084F83C50042848D008E032463946204685
:100AE00001F027F830B1206C042839D0032007B07A
:100AF000BDE8F08F606A411C61622168007808617E
:100B0000208D401E80B22085618D491E618521683F
:100B10004A69D24352070BD468B1606A421C6262D0
:100B200000780861208D401E2085608D401E608504
:100B3000208D0028D1D132463946204600F02CFFC6
:100B40000028D0D154F83D0B016841F400710160D8
:100B5000202004F81E09E57765770020C7E706E046
:100B60002068016841F4007101600120BFE70220A4
:100B7000BDE70000020010000000FFFF10B586B0C6
:100B80000021009101910291039100680F49884270
:100B90001AD10F4CA06940F00800A061A069694615
:100BA00000F008000490C020009012200190032063
:100BB00003900848FFF7B0FBE06940F40010E061E3
:100BC000E06900F40010049006B010BD005400402D
:100BD00000100240000C0140024881680278114474
:100BE00081607047F0000020074810B5016841F0AF
:100BF00010010160032000F091F8002000F006F8D9
:100C000000F03EF8002010BD0020024000B5014673
:100C100087B00022192000F061F8192000F052F886
:100C20001348816941F400618161806905A900F47C
:100C300000600690684600F039F900F067F90D4948
:100C40000D4AB0FBF1F10D48491E0260416040F2CF
:100C5000E7320021C0E90321816000F049FB10B1B7
:100C6000012007B000BD054800F08EFBF9E7000049
:100C70000010024040420F00002C0140780200208A
:100C80000E4808B5816941F001018161816901F077
:100C900001010091C16941F08051C161C069002228
:100CA00000F0805000900F21901E00F017F80448CB
:100CB000416821F0E061416008BD00000010024081
:100CC0000000014000F01F02012191404009800016
:100CD00000F1E020C0F8001170470000F0B40E4BA6
:100CE0001B680C46C3F30223C3F10705042D00D98A
:100CF0000425191D072901D2002300E0DB1E01266F
:100D000006FA05F1491E214099409E40761E164084
:100D10003143F0BC00F0C8BF0CED00E0064900F024
:100D2000070208684FF6FF03184040EA0220034A12
:100D300010430860704700000CED00E00000FA0569
:100D40002DE9F047DFF8548105460E46D8F800003B
:100D500000F00700B0420CD2D8F8001021F00701D3
:100D60003143C8F80010D8F8000000F00700B04286
:100D70006FD128684A4C810712D5400703D56068B7
:100D800040F4E06060602878000703D5606840F4B4
:100D9000605060606068A96820F0F00008436060FF
:100DA0002878C00744D06868012816D02168022836
:100DB00016D0890700294CDA616821F0030101434C
:100DC0006160FFF791FB6968074641F288300129AD
:100DD0000ED00229814618D026E021688903E9E770
:100DE0008901E7E7FFF780FBC11B494501D918E0FE
:100DF00081466068C0F381000128F3D118E000BF8C
:100E0000FFF772FBC11B49450BD86068C0F3810036
:100E10000228F5D10CE000BFFFF766FBC11B494576
:100E200002D90320BDE8F087606810F00C0FF3D101
:100E3000D8F80010404601F00701B1420BD9016813
:100E400021F0070131430160006800F00700B04263
:100E500001D00120E6E72878400705D56068E968F9
:100E600020F4E060084360602878000706D56068D9
:100E7000296920F4605040EAC100606000F056F833
:100E80006168084AC1F30311515CC8400649086013
:100E90000020FFF7BBFE0020C4E700000020024056
:100EA00000100240643B0008FC0000200F2202609A
:100EB0000C4A536803F003034360536803F0F003E4
:100EC0008360536803F4E063C36052684FF4E063E7
:100ED00003EAD20202610448006800F007000860DB
:100EE00070470000001002400020024004480549FD
:100EF00000684968044AC1F30221515CC840704748
:100F0000FC00002000100240743B00080448054922
:100F100000684968044AC1F3C221515CC840704767
:100F2000FC00002000100240743B000812A185B0B4
:100F30000FC98DE80F0014A0144A0068049051688E
:100F4000134801F00C03042B10D0082B0ED1C1F371
:100F50008343C9031DF803000AD5516804AAC1F3ED
:100F60004041515C0A4A5043B0FBF1F005B0704774
:100F700008494843FAE70000020304050607080988
:100F80000A0B0C0D0E0F10100102000000100240A1
:100F900000127A0000093D002DE9F84F0446007860
:100FA000B94DC00748D06868C0F38100012807D058
:100FB0006868C0F38100022809D16868C00306D5BB
:100FC0002868800338D5606800286FD034E06068F6
:100FD000B0F5803F0BD010B1B0F5A02F11D028682C
:100FE00020F480302860286820F4802002E02868FF
:100FF00040F480302860606888B1FFF775FA0646D3
:1010000009E0286840F480202860F0E7FFF76CFAD8
:10101000801B642875D828688003F7D50CE0FFF79B
:1010200063FA064605E000BFFFF75EFA801B6428FE
:10103000F0D828688003F7D42078944E80074FF0CA
:1010400001094FF000083BD5686810F00C0F07D07D
:101050006868C0F38100022809D16868C00306D41B
:101060002868800714D5206901281FD110E0206965
:10107000B0B1C6F80090FFF737FA074605E000BFA9
:10108000FFF732FAC01B0228C4D828688007F7D5BA
:101090002868616920F0F80040EAC10028600FE08C
:1010A000C6F80080FFF720FA074606E0E9E000BF37
:1010B000FFF71AFAC01B022823D828688007F7D444
:1010C000207800072CD57248A169D9B1C0F80090EA
:1010D000FFF70AFA074604E0FFF706FAC01B0228EA
:1010E0000FD8686A8007F7D56A484FF4FA5100684C
:1010F000B0FBF1F0009000BF0098411E0091FAD2C1
:101100000EE080E0C0F80080FFF7EEF9074604E04B
:10111000FFF7EAF9C01B022875D8686A8007F7D480
:101120002078400760D5E8690027C00008D4E86946
:1011300040F08050E861E869012700F0805000909D
:1011400055480168C90513D40168834641F480718C
:101150000160FFF7C9F9824606E000BFFFF7C4F956
:10116000A0EB0A0064284ED8DBF80000C005F5D5D6
:10117000E06801280AD008B1052813D0286A20F0B9
:1011800001002862286A20F0040002E0286A40F08A
:1011900001002862E06841F2883B98B1FFF7A4F9AA
:1011A00082460BE0286A40F004002862EEE700BFA8
:1011B000FFF79AF9A0EB0A0159455AD8286A800727
:1011C000F6D50CE0FFF790F9824605E0FFF78CF9C1
:1011D000A0EB0A0159454CD8286A8007F6D41FB104
:1011E000E86920F08050E861E06988B36968C1F37C
:1011F0008101022945D00228C6F8608004D0FFF79B
:1012000073F9044638E034E0FFF76EF9074604E06E
:10121000FFF76AF9C01B02282BD828688001F7D491
:10122000206AB0F5803F05D16868A16820F40030DD
:1012300008436860D4E908010843696821F474111F
:1012400008436860C6F86090FFF74EF9044606E070
:1012500015E000BFFFF748F9001B022809D82868ED
:101260008001F7D50BE000BFFFF73EF9001B022815
:1012700002D90320BDE8F88F28688001F4D400204B
:10128000F8E70120F6E700000010024000004242AB
:1012900080044242FC00002000700040704770470C
:1012A00030B590F83C20012A20D0012280F83C2063
:1012B000022380F83D3003685C6824F070045C60B1
:1012C00003685C680D682C435C6003689C6824F0CC
:1012D00080049C6003689C6849680C439C6080F8AB
:1012E0003D20002180F83C10084630BD022030BD72
:1012F00010B5040003D094F83D0010B107E00120C0
:1013000010BD002084F83C00204600F00DF80220BB
:1013100084F83D00211D206800F0A6FD012084F81E
:101320003D00002010BD000008B501681448B1F16F
:10133000804F14D0134A914220D1C16941F002017B
:10134000C161C069002200F00200009005211D204B
:10135000FFF7C4FC1D20BDE80840FFF7B3BCC1691E
:1013600041F00101C161C069002200F0010000905C
:1013700005211C20FFF7B2FC1C20ECE708BD000093
:1013800000100240000400400168CA6842F00102F7
:10139000CA600068016841F00101016000207047E7
:1013A00070B5044690F83C00012817D0012584F858
:1013B0003C50022084F83D002068826822F07702C9
:1013C00022F47F4282600868502837D00DDC202844
:1013D00059D005DC88B3102841D151E0022070BDFE
:1013E000302853D040283AD13FE060282ED07028D2
:1013F0000BD0B0F5805F03D0B0F5005F2FD110E0C7
:101400002068816821F0070115E0CB68D1E901214E
:10141000206800F05FFD2168886840F077008860F0
:101420001DE0CB68D1E90121206800F053FD206860
:10143000816841F48041816011E01EE0CA6849681A
:10144000206800F059FD5021206806E0CA6849680C
:10145000206800F062FD6021206800F045FD84F8FE
:101460003D50002084F83C0070BDCA68496820687F
:1014700000F042FD40212068EFE700212068ECE702
:1014800010212068E9E720212068E6E73021206864
:10149000E3E7704770B50446006801694FF0000546
:1014A000C943890715D4C168C943890711D4E91E06
:1014B000016101202077206880698007204602D0E2
:1014C000FFF7E7FF04E000F098F8204600F096F8F8
:1014D000257720680169C943490717D4C168C94302
:1014E000490713D46FF004010161022020772068BE
:1014F000806910F4407F204602D0FFF7CAFF04E065
:1015000000F07BF8204600F079F825772068016923
:10151000C943090716D4C168C943090712D46FF03B
:1015200008010161042020772068C06980072046F7
:1015300002D0FFF7AEFF04E000F05FF8204600F0B5
:101540005DF8257720680169C943C90617D4C168C9
:10155000C943C90613D46FF0100101610820207738
:101560002068C06910F4407F204602D0FFF791FF49
:1015700004E000F042F8204600F040F825772068AB
:101580000169C943C90708D1C168C943C90704D162
:10159000891E0161204600F033F820680169C943C3
:1015A000090609D4C168C943090605D46FF0800152
:1015B00001612046FFF772FE20680169C9434906B0
:1015C00009D4C168C943490605D46FF040010161DF
:1015D000204600F03DF820680169C94389060BD414
:1015E000C168C943890607D46FF020010161204614
:1015F000BDE87040FFF753BE70BD704770470000F4
:1016000010B504460068B0F1804F01D100F080FBB6
:101610000C492068884201D1FFF7DEFA0A492068A8
:1016200088420ED10948418AB1F57A7F01D900215B
:101630004182C179012901D1418A0182418A491C33
:10164000418210BD002C0140000400400000002039
:10165000704770B5040004D094F83900002510B12B
:1016600006E0012070BD84F83850204600F022F8D2
:10167000242084F839002068C16821F40051C16039
:10168000204600F00DFD2068016921F490410161C0
:101690002068416921F02A0141612068C16841F454
:1016A0000051C160E563202084F8390084F83A00D5
:1016B000002070BD30B585B00024009401940294E0
:1016C000039400681449884224D11448816941F484
:1016D00080418161816901F480410491816941F017
:1016E0000401816180690E4D00F0040004904FF404
:1016F0000070009002200190032003906946284664
:10170000FEF70AFE2815CDE9000469462846029432
:10171000FEF702FE05B030BD003801400010024067
:10172000000801402DE9F843044690F839001F46AF
:1017300016460D46202850D1A5B19EB194F8380028
:1017400001284AD0012084F838004FF00008C4F87E
:101750003C80212084F83900FEF7C6FEA68481462D
:10176000E68426E00120BDE8F883E08C401EE0849A
:10177000A0684B46B0F5805F4FF000024FF080014B
:101780002046009703D000F043FDE8B90DE000F0DB
:101790003FFDC8B928882168C0F308004860206967
:1017A00008B16D1C05E0AD1C03E0216815F8010BC4
:1017B0004860E08C0028D8D14B46002240212046CA
:1017C000009700F025FD08B10320CCE7202084F825
:1017D000390084F838800020C5E70220C3E7FEE71F
:1017E00001684A69D24352050CD46FF480624A61A1
:1017F00004210164002140F8301F2022427301734C
:1018000001207047002070472DE9F84F044600681A
:1018100089460B9D01689846174641F48061016036
:101820002068016841F48071016000954FF0011A51
:101830000022514620460A9B00F0D5F8F0BB2168F3
:1018400009F0FE0008610AF1010B2B4659462046BB
:101850000A9A00F0F9F818B1206C042812D03AE086
:1018600020684169806900902A4620460A9900F064
:1018700060F950B1206C04282DD12068016841F432
:10188000007101600120BDE8F88FFEB2B8F1010FD0
:1018900009D02168380A08612A4620460A9900F0D2
:1018A00048F90028E6D1206806612A4620460A99B0
:1018B00000F03FF90028DDD1206800E00BE001686E
:1018C00041F48071016000950022514620460A9B38
:1018D00000F089F808B10320D5E7216809F0FF007E
:1018E00040F0010008612B46594620460A9A00F054
:1018F000ABF80028B0D1C6E72DE9F84304460068EC
:101900000D46DDE9089701689846164641F4807156
:1019100001604B4600224FF001112046009700F075
:1019200062F8E8B9216805F0FE0008613B464A46C6
:101930001849204600F088F828B1206C04280FD1FF
:101940000120BDE8F88320684169806900903A462B
:101950004946204600F0EDF820B1206C042813D051
:101960000320EEE7F5B2B8F1010F09D02168300A83
:1019700008613A464946204600F0DBF80028ECD1E1
:10198000206805610020DCE72068016841F40071EF
:101990000160D5E70200010070B516460D46044609
:1019A0001AE02046FFF71CFF08B1012070BD681C3B
:1019B00012D025B1FEF798FD801BA8420CD954F82F
:1019C000400F40F0200044F8100900202060202142
:1019D00061732073032070BD20684069C0434007D5
:1019E000DFD4002070BD2DE9F0471E4690460D461D
:1019F0000446C1F30747DDF8209012E0701C10D0B8
:101A00002EB1FEF771FDA0EB0900B04209D900200C
:101A100044F8300F20216173A07320730320BDE8C8
:101A2000F0872068012F0AD0806925EA00000004B1
:101A3000000C06D000214145E0D00020EFE74069CE
:101A4000F3E70121F7E700002DE9F0479A469146B8
:101A50000D46044600264FF02008C1F307472AE050
:101A600020684069C043400512D42068016841F4F1
:101A70000071016021686FF4806048610420206477
:101A8000266384F83D8084F83C600120BDE8F0873F
:101A9000B9F1FF3F0FD0B9F1000F05D0FEF724FDDB
:101AA000A0EB0A01494506D944F8306F84F80D804F
:101AB00026730320EAE72068012F07D0D0F818002A
:101AC00025EA00000004000CE0D0C9E74069F7E710
:101AD0002DE9F041002590460E460446202721E0DE
:101AE0004069C043C0060CD421686FF01000486103
:101AF0002564256384F83D7084F83C500120BDE8DE
:101B0000F0812EB1FEF7F0FCA0EB0800B04209D93D
:101B100054F8400F40F0200044F804096770257025
:101B20000320ECE720684169C9434906D8D4002066
:101B3000E5E770B516460D4604461AE02046FFF765
:101B40004FFE08B1012070BD681C12D025B1FEF710
:101B5000CBFC801BA8420CD954F8400F40F0200069
:101B600044F81009002020602021617320730320B5
:101B700070BD20684069C0430006DFD4002070BDFE
:101B800030B51B488DB0816941F0040181618169E4
:101B900001F004010C91816941F0080181618169C2
:101BA00001F008010C91816941F0100181618069A7
:101BB0000124FF2500F01000CDE900540C90694687
:101BC0000C480394FEF7A8FB0020CDE9045004A9BB
:101BD00007940948FEF7A0FB4FF6FF70CDE9080413
:101BE00008A906480B94FEF797FB0DB030BD000026
:101BF0000010024000080140000C014000100140AC
:101C000010B586B000241148009401940294039406
:101C100004944FF080410594016043F67F61C0E970
:101C200001140521C0E903148461FFF761FB4FF43F
:101C30008050009069460548FFF7B2FB049404A960
:101C400002480594FFF72CFB06B010BDB801002038
:101C500010B586B0002412480094019402940394B5
:101C600004940E490594016047F6FF41C0E9011450
:101C7000C821C0E903148461FFF73AFB4FF4805098
:101C8000009069460648FFF78BFB049404A90448BA
:101C90000594FFF705FB06B010BD000000040040EE
:101CA000F8010020FEE770470907090E002806DA50
:101CB00000F00F0000F1E02080F8141D704700F1E3
:101CC000E02080F80014704710B542F20F7188428E
:101CD00000D900204FF47A71B0FBF1F201FB120140
:101CE0006423B1FBF3F209494A714C790A2204B921
:101CF0004A71B0FBF3F403FB1403B3FBF2F38B71F3
:101D0000B0FBF2F302FB1300C87110BD30000020DD
:101D100030B51848427801219140174A1160447843
:101D20001649174B00F13002062C02D1C478012C61
:101D300012D0CC6804F47F44CC60CC684578525D06
:101D40009A5C1443CC604178491C41704178072962
:101D500001D90021417030BDCC6804F47F44CC60CF
:101D6000CC684578525D9A5C144344F08002CA60A6
:101D7000E9E70000000000200C08014000100140CD
:101D8000C83A000810B5502080F31188BFF34F8F78
:101D9000BFF36F8F01F0D2FD18B104494FF08050AE
:101DA0000860002080F3118810BD000004ED00E001
:101DB00030B58FB028216846FEF719FA14210AA819
:101DC000FEF715FA022401200490009410200590DB
:101DD00000254FF46010CDE9085007946846FFF7DE
:101DE000DBF80AA90F2081E831006002CDE90D057A
:101DF00002210AA8FEF7A4FF0FB030BD0D4801680C
:101E000041F00101016041680B4A114041600168E5
:101E10000A4A11400160016821F480210160416893
:101E200021F4FE0141604FF41F0181600449C003A9
:101E300008607047001002400000FFF8FFFFF6FE48
:101E400008ED00E00148FFF725BB00007802002004
:101E50000148FFF71FBB0000B80100200148FFF751
:101E600019BB0000F8010020F0B50268164B174CB2
:101E7000174D4FF08047984205D0B84203D0A0429A
:101E800001D0A84203D122F070064A68324398423A
:101E900005D0B84203D0A04201D0A84203D122F419
:101EA0004074CA68224322F080044A6922430260D7
:101EB0008A68C2620A688262984201D10969016334
:101EC00001214161F0BD0000002C014000040040F0
:101ED0000008004010B5846842EA032224F47F44DD
:101EE0000A432243826010BD826822F070020A43D6
:101EF00042F007018160704710B5036A046A24F05C
:101F000001040462846924F0F00444EA021423F01A
:101F10000A020A438461026210BD10B5036A23F00D
:101F2000100303628369046A23F4704343EA0232B4
:101F300024F0A00343EA01118261016210BD000098
:101F400070B50A4D044601212846FEF7C3FA084938
:101F50000C4430B102212846FEF7BCFA20B1FF2024
:101F600070BD14F8010C70BDE07970BD000C01402B
:101F70003800002010B5012000F036F80120FFF7EE
:101F8000DFFFFF282FD1022000F02EF80220FFF7FC
:101F9000D7FFFF2827D1032000F026F80320FFF702
:101FA000CFFFFF281FD1042000F01EF80420FFF708
:101FB000C7FFFF2817D1052000F016F80520FFF70E
:101FC000BFFFFF280FD1062000F00EF80620FFF714
:101FD000B7FFFF2807D1072000F006F8BDE8104042
:101FE0000720FFF7ADBF10BD2DE9F05F01222B4D9B
:101FF0000446160231462846FEF771FA01225702BE
:1020000039462846FEF76BFA4FF4806801224146B4
:102010002846FEF764FA4FF4006901224946284633
:10202000FEF75DFA4FF4805A012251462846FEF72A
:1020300056FA4FF4005B012259462846FEF74FFA44
:10204000012291032846FEF74AFA012C12D0022CF5
:1020500013D0032C14D0042C15D0052C16D0062C2C
:1020600017D0072C18D10022B1012846BDE8F05F37
:10207000FEF735BA00223146F7E700223946F4E789
:1020800000224146F1E700224946EEE70022514690
:10209000EBE700225946E8E7BDE8F09F0010014059
:1020A0002DE9F041044600680169E26821F44051DD
:1020B000114301612169A0680843616908432168EF
:1020C000CA6841F20C639A430243CA6020684169BE
:1020D000A26921F44071114341614C492068642593
:1020E000322688423CD1FEF711FF00EBC00101EB24
:1020F000001061688900B0FBF1F7FEF707FF00EB05
:10210000C00101EB00106168B0468900B0FBF1F03E
:10211000B0FBF5F06FF01801484307EB800106EBC8
:102120000110B0FBF5F000F0F006FEF7EFFE00EB5B
:10213000C00101EB001061688900B0FBF1F0B0FB59
:10214000F5F006EB0016FEF7E1FE00EBC00101EB37
:10215000001061688900B0FBF1F7FEF7D7FE3BE0A5
:10216000FEF7C4FE00EBC00101EB001061688900BE
:10217000B0FBF1F7FEF7BAFE00EBC00101EB001077
:102180006168B0468900B0FBF1F0B0FBF5F06FF08C
:102190001801484307EB800106EB0110B0FBF5F096
:1021A00000F0F006FEF7A2FE00EBC00101EB00100C
:1021B00061688900B0FBF1F0B0FBF5F006EB0016AA
:1021C000FEF794FE00EBC00101EB0010616889008E
:1021D000B0FBF1F7FEF78AFE00EBC00101EB001047
:1021E00061688900B0FBF1F0B0FBF5F06FF0180109
:1021F000484307EB800108EB0110B0FBF5F02168C4
:1022000000F00F0030448860BDE8F08100380140E4
:102210002DE9F041984617460E460446069D1DE0FE
:10222000681C1BD02DB1FEF75FF9A0EB0800A84297
:1022300014D92068C16821F4D071C1602068416957
:1022400021F001014161202084F8390084F83A002E
:10225000002084F838000320BDE8F0812068006881
:1022600036EA000004D00020B842D9D00020F3E7BD
:102270000120F9E7FEE70000014A024900F013B827
:10228000C92200086001002002E008C8121F08C12E
:10229000002AFAD170477047002001E001C1121FE7
:1022A000002AFBD170472DE9F04116460F4604463F
:1022B000002503E03946B047641C6D1C20780028D7
:1022C000F8D12846BDE8F08113B5642301226946A0
:1022D0000248FFF727FA00981CBD000038020020D2
:1022E00090B0FEF781FCFFF763FDFFF749FC6A48F9
:1022F0006849002401604FF4E131C0E901140C2168
:10230000C460C0E904418461C461FFF7A2F9624876
:102310006249D438016046F2A811C0E901144FF4B3
:102320008041C0E9034144618461C4610462FEF7F5
:1023300027F9FFF765FCFFF78BFC57488038FFF75C
:1023400023F855484038FFF71FF85348D438FEF7B4
:10235000D1F802E06420FDF7CDFFFDF793FF0028E0
:10236000F8D00F224E490020FDF79AFF6420FDF7B8
:10237000C1FF4B490F220F311020FDF791FF642060
:10238000FDF7B8FF46490F221E312020FDF788FFD8
:102390006420FDF7AFFF42490F222D313020FDF7B9
:1023A0007FFF6420FDF7A6FF3D490F223C3140200E
:1023B000FDF776FF6420FDF79DFF39490F224B3171
:1023C0005020FDF76DFF6420FDF794FF34490F2284
:1023D0005A316020FDF764FF6420FDF78BFF304920
:1023E0000F2269317020FDF75BFF6420FDF782FF4B
:1023F0002B490F2278318020FDF752FF6420FDF732
:1024000079FF27490F2287319020FDF749FF64208B
:10241000FDF770FF224903223739A020FDF740FF66
:102420006420FDF767FF1E49373901F110000A7873
:1024300042714B7883718978C17164204243184C92
:1024400003EB830002EB4000573C08442071142248
:1024500014496846FDF7B2FE0021684600F036F8E0
:10246000104960621422143105A8FDF7A7FE00216F
:1024700005A800F02BF80B49A062142228310AA805
:10248000FDF79CFE00210AA800F020F8E06200F0B1
:1024900018F8FEE7003801403802002000540040E0
:1024A00057000020283B000801460020842900D066
:1024B000C81C704710B500B9012001F049F900208F
:1024C00010BD10B501F06AF9002010BD3EB50446FC
:1024D0000D46B0F90800FFF7E7FF02A9CDE90001BA
:1024E000208A2B4682B2D4E9001001F0FBF90128C2
:1024F00001D000203EBD02983EBD00002DE9F04114
:10250000184C0F460546E6682068001D01F06AF881
:1025100038B9206890F82C10012088402169814347
:102520002161681C07D137B12168BDE8F0410E4830
:10253000091D01F08FB820683544B5424560216817
:1025400005D2A06BBDE8F041091D01F06BB8606BCE
:10255000091D01F067F8A06A854200D2A562BDE8B6
:10256000F081000000010020940300202DE9F041DB
:10257000054601F07BF82E4CA068401CA060206846
:102580002C4F10B1606940B32DE02560A068012890
:1025900029D1002606EB860007EB800001F034F815
:1025A000761C072EF6D323488C3001F02DF82148F5
:1025B000A03001F029F81F48B43001F025F81D487B
:1025C000C83001F021F81B48DC3001F01DF8194833
:1025D0008C3060631430A06305E02068E96AC06A4B
:1025E000884200D82560606A401C6062E96A012068
:1025F000226988401043206101EB810007EB8000D5
:10260000291D01F027F801F051F8606900280CD06D
:102610002068E96AC06A884207D207494FF08050B3
:102620000860BFF34F8FBFF36F8FBDE8F0810000EC
:1026300000010020B802002004ED00E070B5114E4A
:10264000114C17E001F0DEF83068B8B101F0DAF9AA
:1026500001F00CF8F068C568281D00F0C3FFA06801
:10266000401EA0606068401E606001F01FF82846B0
:1026700000F00CF860680028E4D170BD01F0C2F9E8
:10268000F8E70000800300200001002010B5044698
:10269000006B01F01FF82046BDE8104001F01AB8A9
:1026A00010484FF44061420706D0C01D0D4920F08C
:1026B0000700411AC1F540610B4A00230144C2E9F9
:1026C00000030839103A21F0070111604B600B60DC
:1026D0000B1AC0E9001393604FF000405360D060C4
:1026E00070470000A80300204C010020074C4FF069
:1026F0008056074DFFF7A2FF20680128FAD92E6007
:10270000BFF34F8FBFF36F8FF4E70000B8020020D4
:1027100004ED00E02DE9F0479A46DDE909848146A1
:102720006FF00303206B03EB82021044089D20F03E
:102730000706700707D0502080F31188BFF34F8F32
:10274000BFF36F8FFEE723180A5C83F834200A5C1E
:1027500012B1401C1028F6D3002784F84370072DCF
:1027600000D30625E562C4E91157201D00F057FF8C
:1027700004F1180000F053FF2461C5F10700646202
:10278000A061E76484F8507052464946304600F034
:10279000BFF82060B8F1000F01D0C8F80040BDE8D4
:1027A000F087000030B5114900E011460A68824206
:1027B000FBD34B685C18844203D1406818444860DE
:1027C000084643681C18944209D1084C103C246800
:1027D000A24209D052681A4442600A681268026034
:1027E000814200D0086030BD0460F9E74C01002050
:1027F0000648416B096829B1416BC968C9684968D5
:10280000816270474FF0FF31FAE7000000010020BD
:1028100008484068401C4FF0500080F3118804D0F5
:10282000BFF34F8FBFF36F8FFEE7BFF34F8FBFF341
:102830006F8FFEE7540100202DE9F0410546002787
:1028400000F0E0FF314E306808B9FFF729FFF0686B
:1028500005424BD1C5B3083568070ED005F0070017
:10286000C0F108000544680707D0502080F31188A4
:10287000BFF34F8FBFF36F8FFEE72DB370688542B4
:1028800034D82248103001460C6801E020460C463E
:102890006168A94202D221680029F7D131688C42CF
:1028A00024D007682168016060680837411B10293F
:1028B0000FD96019420708D0502080F31188BFF368
:1028C0004F8FBFF36F8FFEE710E041606560FFF749
:1028D00069FF61687068401A7060B268904200D207
:1028E000B060F06801430020C4E9000101F08AF8FB
:1028F000780707D0502080F31188BFF34F8FBFF3C4
:102900006F8FFEE73846BDE8F08100003C010020F3
:1029100010B5031F4FF080741C601B1F21F00101D4
:102920001960191F024B0B60143940380A6010BD42
:10293000112800080BA0FFF79FFC13A0FFF79CFCD9
:1029400017A0FFF799FC22A0FFF796FC264CE07930
:10295000012802D1208AFFF7B7F90A20FFF7AAFD64
:10296000F5E700004465766963653A20647275672F
:102970002070726F6475637420636F6E74726F6C15
:102980006C65720D0A0000005265766973653A2025
:1029900032382F30342F323031390D0A0000000028
:1029A000437573746F6D65723A20446F616E205683
:1029B000616E204C756F6E6740446F6D6573636F19
:1029C00020446F6E6720546861700D0A000000009B
:1029D00044657369676E65723A2070686F6E676EE2
:1029E00068333238390D0A0000000020684D0A278C
:1029F0000026A5F130044FF47A78A079012803D09D
:102A0000C1E06420FDF776FCFDF73CFC0028F8D01F
:102A1000207A4FF6FF71401E01EA00105C490F2238
:102A20001831FDF73DFC5A486421183002784A43BA
:102A3000417801EB810102EB410182781144A182CE
:102A4000C17864225143027902EB820201EB420118
:102A500042791144E182817964225143C27902EBC7
:102A6000820201EB4201027A11442183417A6422FD
:102A70005143827A02EB820201EB4201C27A114495
:102A80006183027B64214A43417B807B01EB8101AE
:102A900002EB41010844A083668226820120E07196
:102AA000E0706079012801D14F202871607908B960
:102AB000302028710B2028706F70AF70EF70A08AE3
:102AC000618A8842FBD16079012807D1668226821B
:102AD0000C202870E08A618A8842FBD166822682B7
:102AE0000D202870208B618A8842FBD16682268265
:102AF0000E202870608B618A8842FBD16682268214
:102B00000F202870A08B618A8842FBD1E671E670A5
:102B10002079401C20712179B1FBF8F208FB1210DA
:102B20006421B0FBF1F21A48103802702379B3FB2C
:102B3000F1FC01FB1C31B1FBF7F141702379B3FBD0
:102B4000F7FC07FB1C3383701D2028701E20687063
:102B50001920A8701A20E8705D2028716A71A97187
:102B6000EB7102E06420FDF7C5FBFDF78BFB00284D
:102B7000F8D0074903221039A020FDF7A3FB4046F7
:102B8000FDF7B8FBA6710A20FFF794FC35E70000BB
:102B900030000020DFF804A40026AAF137080AF16B
:102BA0000F0B012708F110044FF05D09FFF7E2F960
:102BB000FA4D573DFF28287000D0A870A8780A2841
:102BC00001D1AF71AE70A8790028EFD1A878732831
:102BD0002DD1AE70687920B16E716879012802D06C
:102BE00012E06F71F9E72670182060700A20A0705B
:102BF000E0704F20207198F80010617198F8011072
:102C0000A17198F80200E071687980B926701020EF
:102C10006070A0700A20E0703020207198F80010D9
:102C2000617198F80110A17198F80200E071A8781C
:102C3000632831D1AE702E7188F8006088F8016089
:102C400088F8026002E06420FDF754FBFDF71AFBF0
:102C50000028F8D0D14903223739A020FDF732FBF4
:102C60006420FDF747FBCD4903223739A020FDF74B
:102C700017FB1D2020701E2060701920A0701A20E4
:102C8000E07084F8049098F80010617198F80110D1
:102C9000A17198F80200E071A87801286CD1AE709B
:102CA000AF722E736E73EE72AE73687A012863D1C1
:102CB0000B2020700A206070A070E0702071287ACC
:102CC00001281BD0287A022821D0287A032827D06F
:102CD000287A042827D0287A052827D0287A062899
:102CE00027D0287A072827D0287A082827D0287ABA
:102CF000092827D0287A0A2827D02EE09AF8001031
:102D000061719AF80110A1719AF8020024E09BF811
:102D1000001061719BF80110A1719BF802001BE08B
:102D20009E481E3013E09D482D3010E09B483C30FB
:102D30000DE09A484B300AE098485A3007E097482F
:102D4000693004E09548783001E094488730017894
:102D500061714178A1718078E071607964214843A4
:102D6000A17901EB810100EB4100E179084428825F
:102D7000EF70288AFEF7A8FFA87802286CD1AE7001
:102D8000AE722E736E73EF72AE73687A012863D1E0
:102D90000C2020700A206070A070E0702071287AEA
:102DA00001281BD0287A022821D0287A032827D08E
:102DB000287A042827D0287A052827D0287A0628B8
:102DC00027D0287A072827D0287A082827D0287AD9
:102DD000092827D0287A0A2827D02EE09AF803104D
:102DE00061719AF80410A1719AF8050024E09BF82B
:102DF000031061719BF80410A1719BF805001BE0A2
:102E000066481E3013E065482D3010E063483C30C2
:102E10000DE062484B300AE060485A3007E05F48F6
:102E2000693004E05D48783001E05C488730C17863
:102E300061710179A1714079E07160796421484341
:102E4000A17901EB810100EB4100E179084428827E
:102E5000EF70288AFEF738FFA87803286CD1AE708F
:102E6000AE722F736E73EE72AE73687A012863D1FF
:102E70000D2020700A206070A070E0702071287A08
:102E800001281BD0287A022821D0287A032827D0AD
:102E9000287A042827D0287A052827D0287A0628D7
:102EA00027D0287A072827D0287A082827D0287AF8
:102EB000092827D0287A0A2827D02EE09AF8061069
:102EC00061719AF80710A1719AF8080024E09BF844
:102ED000061061719BF80710A1719BF808001BE0B8
:102EE0002E481E3013E02D482D3010E02B483C308A
:102EF0000DE02A484B300AE028485A3007E02748BE
:102F0000693004E02548783001E024488730817931
:102F10006171C179A171007AE071607964214843DF
:102F2000A17901EB810100EB4101E079084428829D
:102F3000EF70288AFEF7C8FEA87804286DD1AE701D
:102F4000AE722E736F73EE72AE73687A012864D11D
:102F50000E2020700A206070A070E0702071287A26
:102F600001281DD0287A022823D0287A032829D0C6
:102F7000287A042828D0287A052828D0287A0628F4
:102F800028D0287A072828D0287A082828D0287A14
:102F9000092828D0287A0A2828D02FE057000020B6
:102FA0009AF8091061719AF80A10A1719AF80B0049
:102FB00023E09BF8091061719BF80A10A1719BF83E
:102FC0000B001AE0FE4813E0FD480F3010E0FC480B
:102FD0001E300DE0FA482D300AE0F9483C3007E099
:102FE000F7484B3004E0F6485A3001E0F4486930C5
:102FF000417A6171817AA171C07AE071617964204E
:103000004143A07900EB800001EB4000E1790844E6
:103010002882EF70288AFEF757FEA87805286BD122
:10302000AE70AE722E736E73EE72AF73687A012853
:1030300062D10F2020700A206070A070E0702071B3
:10304000287A01281BD0287A022821D0287A032840
:1030500027D0287A042826D0287A052826D0287A4E
:10306000062826D0287A072826D0287A082826D0AD
:10307000287A092826D0287A0A2826D02DE09AF81E
:103080000C1061719AF80D10A1719AF80E0023E0EE
:103090009BF80C1061719BF80D10A1719BF80E004C
:1030A0001AE0C74813E0C6480F3010E0C4481E308D
:1030B0000DE0C3482D300AE0C1483C3007E0C0486D
:1030C0004B3004E0BE485A3001E0BD486930017B16
:1030D0006171417BA171807BE0716079642148431B
:1030E000A17901EB810100EB4101E07908442882DC
:1030F000EF70288AFEF7E8FDA878692875D1AE70D0
:10310000A87A012809D1288A401C2882EF70288AD1
:10311000FEF7DAFD002000F0CBF9E87A012809D1AA
:10312000288A401C2882EF70288AFEF7CDFD0320F4
:1031300000F0BEF9287B012809D1288A401C28828A
:10314000EF70288AFEF7C0FD062000F0B1F9687B19
:10315000012809D1288A401C2882EF70288AFEF7AE
:10316000B3FD092000F0A4F9A87B012809D1288A21
:10317000401C2882EF70288AFEF7A6FD0C2000F084
:1031800097F9687A012845D1A87A70BB287B60BB83
:10319000A87B50BBE87A40BB687B30BB287A401CD8
:1031A0002872287A0A2801D90A202872287A012848
:1031B0001CD0287A02281BD0287A032818D0287A15
:1031C000042815D0287A052812D0287A06280FD08E
:1031D000287A07280CD0287A082809D0287A0928C4
:1031E00006D0287A0A2807D008E013E0277000E00C
:1031F000207084F8019001E02770667084F80290D6
:1032000084F8039084F8049084F8059084F806907C
:1032100084F80790A87870287ED1AE70687A401C38
:103220006872687A022803D075E06420FDF762F8BE
:10323000FDF728F80028F8D0287A01281BD0287A32
:1032400002281DD0287A03281FD0287A042820D0ED
:10325000287A052822D0287A062824D0287A072818
:1032600026D0287A082828D0287A09282AD0287A2F
:103270000A282CD031E052490F221E3900202AE0C2
:103280004F490F220F39102025E00F224C492020F2
:1032900021E04B490F220F3130201CE048490F221A
:1032A0001E31402017E046490F222D31502012E0F8
:1032B00043490F223C3160200DE041490F224B3140
:1032C000702008E03E490F225A31802003E03C493B
:1032D0000F2269319020FCF7F5FF6E72EE70AE722E
:1032E0002E736E73EE72AE731D2020701E20607000
:1032F0001920A0701A20E07084F8049098F800104B
:10330000617198F80110A17198F80200E0714FF412
:103310007A70FCF7EFFF00E035E0687A012832D1DF
:10332000287A01281BD0287A02281AD0287A032864
:1033300017D0287A042814D0287A052811D0287AA2
:1033400006280ED0287A07280BD0287A082808D01B
:10335000287A092805D0287A0A2806D007E027709D
:1033600000E0207084F8019001E02770667084F816
:10337000029084F8039084F8049084F8059084F80F
:10338000069084F80790A878642876D1AE70A87A61
:10339000012809D1288A401E2882EF70288AFEF76A
:1033A00093FC002000F084F8E87A01280CD1288AE8
:1033B000401E2882EF70288AFEF786FC032001E079
:1033C0007500002000F074F8287B012809D1288AB4
:1033D000401E2882EF70288AFEF776FC062000F057
:1033E00067F8687B012809D1288A401E2882EF707F
:1033F000288AFEF769FC092000F05AF8A87B01280A
:1034000009D1288A401E2882EF70288AFEF75CFCCA
:103410000C2000F04DF8687A012843D1A87A60BBEF
:10342000287B50BBA87B40BBE87A30BB687B20BBC5
:10343000287A401E2872287A00B92F72287A01282B
:103440001CD0287A02281BD0287A032818D0287A82
:10345000042815D0287A052812D0287A06280FD0FB
:10346000287A07280CD0287A082809D0287A092831
:1034700006D0287A0A2807D008E013E0277000E079
:10348000207084F8019001E02770667084F8029043
:1034900084F8039084F8049084F8059084F80690EA
:1034A00084F807909620FFF705F8FFF77FBB000030
:1034B00070B54B490D7A64230A224FF47A74012DBA
:1034C00024D00D7A022D2BD00D7A032D42D00D7A07
:1034D000042D49D00D7A052D50D00D7A062D57D0E8
:1034E0000D7A072D5ED00D7A082D65D00D7A092D45
:1034F0006CD00D7A0A2D2CD10D8AB5FBF4F604FBA5
:103500001654B4FBF3F501F1DE0412E00D8AB5FBAD
:10351000F4F604FB1654B4FBF3F5314C573408E0D1
:103520000D8AB5FBF4F604FB1654B4FBF3F52C4CF2
:10353000663425540D8A2044B5FBF3F603FB16537D
:10354000B3FBF2F34370098AB1FBF2F302FB1311F0
:10355000817070BD0D8AB5FBF4F604FB1654B4FB04
:10356000F3F51F4C7534E4E70D8AB5FBF4F604FB64
:103570001654B4FBF3F51A4C8434DAE70D8AB5FB24
:10358000F4F604FB1654B4FBF3F5154C9334D0E772
:103590000D8AB5FBF4F604FB1654B4FBF3F5104C9E
:1035A000A234C6E70D8AB5FBF4F604FB1654B4FB4F
:1035B000F3F50B4CB134BCE70D8AB5FBF4F604FB14
:1035C0001654B4FBF3F5064CC034B2E70D8AB5FBD4
:1035D000F4F604FB1654B4FBF3F5014CCF34A8E722
:1035E00000000020D0E9013201699A60D0E901238E
:1035F0005A604A68824201D182684A6000220261B0
:103600000868401E0860704700F108014FF0FF3263
:10361000C0E90112C1600161002101607047002111
:103620000161704730B50B685A1C02D000F10802E6
:1036300002E0026904E02246546825689D42FAD9F6
:1036400053684B6099608A60516008610168491C49
:10365000016030BD42684A6093688B60936859602E
:10366000916008610168491C01607047502080F337
:103670001188BFF34F8FBFF36F8F0A494868401C12
:10368000486001280CD10848006810F0FF0F07D0EF
:10369000502080F31188BFF34F8FBFF36F8FFEE789
:1036A000704700005401002004ED00E0084948681C
:1036B00028B1401E486001D180F311887047502026
:1036C00080F31188BFF34F8FBFF36F8FFEE70000C9
:1036D0005401002070B5002827D0144DA0F1080433
:1036E0006168E868014207D1502080F31188BFF378
:1036F0004F8FBFF36F8FFEE722683AB1502080F3FF
:103700001188BFF34F8FBFF36F8FFEE78143616076
:1037100000F078F860686968084468602046FFF740
:1037200041F8BDE8704000F06DB970BD3C0100206B
:1037300006484FF47A710068B0FBF1F14FF0E020D9
:10374000491E41610721016170470000FC00002013
:1037500010B5020014D00F48006B38B1502080F330
:103760001188BFF34F8FBFF36F8FFEE700F04AF869
:1037700000211046FEF7C2FE00F044F9002807D1F0
:1037800005494FF080500860BFF34F8FBFF36F8F34
:1037900010BD00000001002004ED00E01CB515483C
:1037A0000024CDE900402346802213A1144800F0F4
:1037B00099F8012809D0401C1AD1502080F31188B3
:1037C000BFF34F8FBFF36F8FFEE7502080F3118858
:1037D000BFF34F8FBFF36F8F06484FF0FF312C3888
:1037E000816201214161C460BDE81C4000F040B825
:1037F0001CBD00002C01002049444C450000000085
:10380000ED2600080248016B491C01637047000067
:10381000000100201448016B11B10121C161704702
:103820000021C1610169B1FA81F1C1F11F0101EB10
:1038300081020E4951F822306BB101EB820101F196
:1038400008034A6852684A609A4201D152684A6045
:10385000D16801607047502080F31188BFF34F8F0B
:10386000BFF36F8FFEE7000000010020B8020020C8
:103870001CB5194908780190FF20087008788DF868
:1038800000009DF80000154A00F05000107007205D
:10389000906005E09DF800305B008DF80030401E20
:1038A0009DF800301B06F5D4000200F4E060906043
:1038B000019808700A48016841F4700101600168CC
:1038C00041F070410160FFF733FF00205060FCF7CA
:1038D00029FC00201CBD000000E400E05401002091
:1038E00020ED00E02DE9FF5F8346DDE90E87994674
:1038F00016468A469000FEF79FFF05001AD0542016
:10390000FEF79AFF040012D025630021CDE90241A1
:10391000CDE900874B46324651465846FEF7FAFE3F
:103920002046FEF723FE012004B0BDE8F09F2846A4
:10393000FFF7D0FE4FF0FF30F6E700002DE9F04131
:103940002E4C0027206B40B1A069401CA061E069AB
:1039500000B101273846BDE8F081E668761CE660D4
:1039600013D1606B006838B1502080F31188BFF329
:103970004F8FBFF36F8FFEE7606BA16B6163A06336
:10398000206A401C2062FEF733FFA06ADFF87080D7
:10399000864209D3606B006880B1606BC068C568FF
:1039A000686886420DD2A0622068C06A00EB800180
:1039B00058F821000128CAD90127C8E74FF0FF3085
:1039C000F1E7281DFFF70EFEA86A18B105F11800EF
:1039D000FFF708FEE86A0121226981401143216155
:1039E00000EB800108EB8100291DFFF733FEE86A38
:1039F0002168C96A8842CDD30127CBE700010020A6
:103A0000B80200202DE9F0472C4D00242746286BF2
:103A100038B1FFF72BFE286B401E2863286B40B19E
:103A200046E0502080F31188BFF34F8FBFF36F8FB4
:103A3000FEE7A968224E0120D1B3A6F1B409804661
:103A40003068E8B1F068C46804F11800FFF7CAFDF7
:103A5000201DFFF7C7FDE06A2A6908FA00F111434B
:103A6000296100EB800109EB8100211DFFF7F2FDC8
:103A7000E06A2968C96A8842E2D3C5F81C80DFE79A
:103A80000CB1FEF7B5FEAC6944B14646FFF756FFF0
:103A900000B1EE61641EF9D10020A861E86938B177
:103AA0000849012738070860BFF34F8FBFF36F8FB6
:103AB000FFF7FCFD3846BDE8F0870000000100205C
:103AC0006C03002004ED00E03F065B4F666D7D0750
:103AD0007F6F00777C395E79713D76301E753815C1
:103AE000375C736B336D313E3E2A766E5B090D6138
:103AF0004843D35F39640F2308025F7C585E7B71B3
:103B00006F74100C753014545C7367506D781C1C06
:103B100014766E5B463070010086227E6DD24620A0
:103B2000290B217010408052883B0008352900087D
:103B3000000000000000000080000000943B00082E
:103B4000952B0008FDFF0000000000008000000031
:103B50007C3B0008ED290008FDFF0000000000008C
:103B600080000000000000000000000001020304CB
:103B7000060708090000000001020304726573656E
:103B80007276655F697372006D61696E5F697372E9
:103B90000000000073657475705F69737200000047
:103BA000C03B00080000002064010000280200085B
:103BB0000C3C000864010020441200009822000818
:103BC00072FF022701C81A1D1E191A5D0A0A0A028D
:103BD0000305690A6F730701040B700D6364080124
:103BE0000111130603130506130802580E040501FC
:103BF000040801020304050607080709760F59E8BF
:0C3C000082100458A24A041AAA01810094
:04000005080000ED02
:00000001FF
